:020000040800F2
:10000000C0800020A1010008C11B0008391B0008A6
:10001000BD1B0008090400081F260008000000009E
:10002000000000000000000000000000491E000861
:100030000D040008000000004F0200084B1E0008DD
:10004000BB010008BB010008BB010008BB010008A0
:10005000BB010008BB010008BB010008BB01000890
:10006000BB010008BB010008BB010008BB01000880
:10007000BB010008BB010008BB010008BB01000870
:10008000BB010008BB010008BB010008BB01000860
:10009000BB010008BB010008BB010008BB01000850
:1000A000BB010008BB010008BB010008BB01000840
:1000B000BB0100080000000000000000BB010008B8
:1000C000BB010008BB010008BB010008BB01000820
:1000D000BB010008BB010008BB010008BB01000810
:1000E000BB010008BB010008000000000000000088
:1000F0000000000000000000000000000000000000
:1001000000000000BB01000800000000BB01000867
:100110000000000000000000B11F0008BB01000843
:10012000BB010008BB010008BB010008BB010008BF
:10013000BB010008000000000000000000000000FB
:10014000BB010008BB010008BB0100080000000063
:10015000BB010008BB010008BB010008BB0100088F
:10016000BB010008BB010008BB0100080000000043
:10017000BB010008BB0100080000000000000000F7
:10018000BB010008BB010008BB010008DFF80CD070
:1001900000F01CF90048004735360008C0800020F8
:1001A0000648804706480047FEE7FEE7FEE7FEE711
:1001B000FEE7FEE7FEE7FEE7FEE7FEE7611F000859
:1001C0008D01000872B6704762B67047EFF3108079
:1001D00072B6704780F310887047B0FA80F07047AD
:1001E00072B64EF62250CEF2000040F2FF01C0F28D
:1001F0000001017029480068006880F3088840F217
:100200001800C2F2000040F21C01C2F200010A68AC
:100210000260106880F30988EFF3148040F0020058
:1002200080F31488BFF36F8FBDE8F00F01BC0FBCE3
:10023000BDE8005006BC62B6084719484FF080512F
:100240000160704716484FF080510160704772B6E8
:10025000EFF309801EF0100F08BF20ED108A40F860
:1002600004ED20E9F00F40F21805C2F200052E68F7
:10027000306040F21C01C2F200010A682A60106876
:10028000B0E8F00F50F804EB1EF0100F08BF00F0BC
:1002900009B880F3098862B67047000008ED00E0F5
:1002A00004ED00E0B0EC088AB0EC08CAFFF7F1BF3B
:1002B0002DE9F05F0546002092469B46884606469B
:1002C000814640241BE0284641464746224600F02E
:1002D0006CF853465A46C01A914110D3114618463D
:1002E000224600F053F82D1A67EB01084F462246CC
:1002F0000120002100F04AF817EB00094E41201EB2
:10030000A4F10104DFDC484631462A46434600F0AA
:1003100000B830BCBDE8C09F40EA01039B0703D092
:1003200009E008C9121F08C0042AFAD203E011F834
:10033000013B00F8013B521EF9D27047D2B201E0F6
:1003400000F8012B491EFBD270470022F6E710B5DA
:1003500013460A4604461946FFF7F0FF204610BD33
:1003600030B50B46014600202022012409E021FA85
:1003700002F59D4205D303FA02F5491B04FA02F582
:100380002844151EA2F10102F1DC30BD202A04DB55
:10039000203A00FA02F1002070479140C2F1200398
:1003A00020FA03F3194390407047202A04DB203AD7
:1003B00021FA02F00021704721FA02F3D040C2F185
:1003C000200291400843194670470000064C074D33
:1003D00006E0E06840F0010394E807009847103415
:1003E000AC42F6D3FFF7D6FEC0500008E05000083C
:1003F00010B500F039F900F00BF801F033FD01F011
:100400009DFB01F0BBFB10BD00BFFEE770477047CE
:1004100008B500BF1A48C06C40F080001849C86495
:100420000846C06C00F08000009000BF00BF00BF15
:100430000846C06C40F00100C8640846C06C00F07B
:100440000100009000BF00BF00BF0846C06C40F034
:100450000200C8640846C06C00F00200009000BFB3
:1004600000BF00BF0846C06C40F00400C8640846E6
:10047000C06C00F00400009000BF00BF08BD000089
:100480000010024078B503460022CBE001269640DA
:100490000D6805EA0604002C72D04D68022D02D0CA
:1004A0004D68122D13D1D60803F1200555F826000A
:1004B0005507EE0E0F25B540A8435607F60E0D69F9
:1004C000B5402843D60803F1200545F826001868F2
:1004D00056000325B540A8430D7905F003055600E5
:1004E000B540284318604D68012D08D04D68022D95
:1004F00005D04D68112D02D04D68122D13D198688A
:1005000056000325B540A8435600CD68B5402843A2
:100510009860586801259540A8430D79C5F30015EA
:10052000954028435860D86856000325B540A84335
:1005300056008D68B5402843D8604D6805F0805559
:10054000B5F1805F6DD100BF394D2D6E45F00105CD
:10055000374E356635462D6E05F00105009500BF16
:1005600000BF4FEAB635960855F8260095072E0FBE
:100570000F25B540A843B3F1904F02D1002515E0F7
:100580004FE02C4DAB4201D101250FE02A4DAB428B
:1005900001D102250AE0294DAB4201D1032505E036
:1005A000274DAB4201D1042500E007259607360F01
:1005B000B5402843234D960845F82600224D28686B
:1005C000A0434D6805F48035B5F5803F00D1204348
:1005D0001D4D28602D1D2868A0434D6805F4003589
:1005E000B5F5003F00D12043174D2D1D28602D1D6E
:1005F0002868A0434D6805F48015B5F5801F00D12B
:100600002043114D083528602D1D2868A0434D68F2
:1006100005F40015B5F5001F00D120430A4D0C3537
:100620002860521C0D68D540002D7FF42FAF78BD97
:10063000001002400004004800080048000C004878
:100640000010004808000140000401400148006813
:10065000704700000400002002480068401C014967
:10066000086070470400002010B50024032000F04B
:10067000A5F8002000F008F808B1012401E000F01E
:100680004DF8204610BD0000F0B587B005460026A5
:10069000002700222946362000F04EF8362000F0D0
:1006A0003EF800BF1948806D40F01000174988657A
:1006B0000846806D00F01000009000BF00BF01A947
:1006C00002A800F071FB059E1EB900F095FB0446E0
:1006D00002E000F091FB44000D48B4FBF0F0471E2F
:1006E0000C480D49086040F2E7310B48C160476093
:1006F000002101618160816100F0A5FF20B90648F9
:1007000000F0BCFF07B0F0BD0120FBE70010024085
:1007100040420F000010004068000020704700BFFA
:1007200000F01F02012191404209920002F1E022F3
:10073000C2F8001100BF70472DE9F05F80460D46FA
:100740001646002701F03EFA074639462A46334648
:1007500001F00700C0F1070ABAF1040F02D94FF007
:10076000040A01E0C0F1070AD14600F1040ABAF117
:10077000070F02D24FF0000A01E0A0F1030AD446AD
:100780004FF0010A0AFA09FAAAF1010A0AEA020A72
:100790000AFA0CFA4FF0010B0BFA0CFBABF1010B50
:1007A0000BEA030B4AEA0B042146404601F012FA19
:1007B00000F000B830BCBDE8C09F000000BF00F0F2
:1007C0000702064B19684FF6FF031940044B0B4311
:1007D00043EA0221014B196000BF70470CED00E0B5
:1007E0000000FA050246B2F5007F2AD11D480068D4
:1007F00000F4C060B0F5007F32D01A48006820F4E1
:10080000C06040F40070174B18601748006832232E
:100810005843164BB0FBF3F0411C00E0491E114851
:10082000406900F48060B0F5806F01D10029F5D1F6
:100830000C48406900F48060B0F5806F10D103204F
:1008400070470848006800F4C060B0F5806F07D0BA
:100850000448006820F4C06040F48060014B1860D8
:100860000020EDE7007000400000002040420F0033
:100870000248006800F4C06070470000007000404B
:100880000348006840F48070014908607047000028
:10089000007000400348006840F00400014908600F
:1008A00070470000001002402DE9F843044600257F
:1008B000A846208800F40060B0F5006F26D1606C77
:1008C00068B1B0F5000F03D0B0F5400F0ED10CE0C9
:1008D000D548C06840F48030D349C86008E00021A2
:1008E000201D01F09FF9054602E001E0012500BF4F
:1008F00000BF55B9CC488830006820F44000616CD6
:100900000843C949C1F8880000E0A846206800F4FF
:100910000030B0F5003F75D14FF00009C248806D3E
:10092000012121EA107078B100BFBF48806D40F00E
:100930008050BD4988650846806D00F08050009069
:1009400000BF00BF4FF00109B848006840F4807054
:10095000B6490860FFF77AFE074606E0FFF776FE25
:10096000C01B022801D9032505E0B048006800F447
:1009700080700028F2D000BF7DBBAB48903000688B
:1009800000F44076CEB1A06DB04216D0A6489030AB
:10099000006820F44076A448D0F8900040F48030FD
:1009A000A149C1F890000846D0F8900020F48030AA
:1009B000C1F890000846C0F8906006F00100A8B1A8
:1009C000FFF744FE074609E0FFF740FEC01B41F277
:1009D0008831884202D9032507E016E0924890301A
:1009E000006800F002000028EED000BF5DB98E481C
:1009F0009030006820F44070A16D08438A49C1F826
:100A0000900003E00CE0A84600E0A846B9F1010F11
:100A100005D18548806D20F080508349886500BFEE
:100A2000207800F0010048B17F488830006820F04D
:100A30000300216A08437C49C1F88800207800F04F
:100A40000200022809D178488830006820F00C00A4
:100A5000616A08437449C1F88800207800F00400F6
:100A6000042809D170488830006820F03000A16A5D
:100A700008436D49C1F88800207800F02000202844
:100A800009D169488830006820F44060E16A084371
:100A90006549C1F88800208800F40070B0F5007F37
:100AA00009D161488830006820F44020E16B084398
:100AB0005D49C1F88800208800F48060B0F5806F3F
:100AC00009D159488830006820F44010216C08434F
:100AD0005549C1F88800207800F04000402809D12D
:100AE00051488830006820F44050216B08434E493B
:100AF000C1F88800207800F08000802809D14A4899
:100B00008830006820F44040616B08434649C1F8D2
:100B10008800208800F48070B0F5807F09D14248B9
:100B20008830006820F44030A16B08433E49C1F88A
:100B30008800206800F40020B0F5002F1FD13A484B
:100B40008830006820F04060A16C08433649883145
:100B50000860A06CB0F1006F06D13348C06840F463
:100B600080103149C8600AE0A06CB0F1806F06D1F6
:100B70000121201D01F056F8054605B1A846206860
:100B800000F48020B0F5802F1FD1274888300068FE
:100B900020F04060E16C0843234988310860E06C34
:100BA000B0F1006F06D12048C06840F480101E49A3
:100BB000C8600AE0E06CB0F1806F06D10121201D11
:100BC00001F030F8054605B1A846208800F48040C1
:100BD000B0F5804F14D114488830006820F04050A0
:100BE000216D0843104988310860206DB0F1805FA5
:100BF00006D10221201D01F015F8054605B1A846D1
:100C0000208800F40040B0F5004F09D10648883034
:100C1000006820F08040616D08430349C1F88800F6
:100C20004046BDE8F883000000100240007000401C
:100C30002DE9F04104460D4614B90120BDE8F081CC
:100C40005548006800F00700A8420ED252480068DC
:100C500020F007002843504908600846006800F06B
:100C60000700A84201D00120E8E7207800F0010049
:100C7000002840D06068032806D14848006800F08A
:100C80000070D8B90120D9E76068022806D143482E
:100C9000006800F4003088B90120CFE7606830B9FF
:100CA0003E48006800F0020040B90120C6E73B481A
:100CB000006800F4806008B90120BFE73748806809
:100CC00020F003006168084334498860FFF7BEFCE8
:100CD000064608E0FFF7BAFC801B41F288318842E3
:100CE00001D90320AAE72D48806800F00C00616854
:100CF000B0EB810FEED1207800F00200022807D17E
:100D00002648806820F0F000A168084323498860E5
:100D10002148006800F00700A8420ED91E4800686C
:100D200020F0070028431C4908600846006800F0CE
:100D30000700A84201D0012080E7207800F00400DD
:100D4000042807D11548806820F4E060E168084372
:100D500012498860207800F00800082808D10F4860
:100D6000806820F46050216940EAC1000B49886026
:100D700000F066F809498968C1F30311084A515C1B
:100D800001F01F01C840074908600020FFF77CFC04
:100D90000746384652E7000000200240001002409B
:100DA00070500008000000200F2202600D4A926877
:100DB00002F0030242600B4A926802F0F002826085
:100DC000084A926802F4E062C260064A926802F43D
:100DD0006052D2080261044A126802F007020A60F7
:100DE00070470000001002400020024001480068E7
:100DF000704700000000002000B5FFF7F7FF05492D
:100E00008968C1F30221044A515C01F01F01C84006
:100E100000BD0000001002408050000800B5FFF740
:100E2000E5FF05498968C1F3C221044A515C01F01C
:100E30001F01C84000BD00000010024080500008A3
:100E40002DE9F04100240020DFF800C1DCF808C0E3
:100E50000CF00C01DFF8F4C0DCF80CC00CF0030758
:100E600019B10C291ED1012F1CD1DFF8E0C0DCF82C
:100E700000C00CF0080CBCF1000F06D1DFF8CCC0AC
:100E8000DCF894C0CCF3032405E0DFF8C0C0DCF844
:100E900000C0CCF30314DFF8B8C05CF8244041B9BB
:100EA000204606E0042901D12A4802E0082900D1A1
:100EB00029480C2947D1DFF894C0DCF80CC00CF0AD
:100EC0000305DFF888C0DCF80CC0CCF3021C0CF181
:100ED0000103012D1FD0022D02D0032D1AD10CE0E9
:100EE000DFF870C0BCFBF3FCDFF86080D8F80C8042
:100EF000C8F306280CFB08F218E0DFF85CC0BCFB66
:100F0000F3FCDFF84880D8F80C80C8F306280CFB07
:100F100008F20BE000BFB4FBF3FCDFF83080D8F838
:100F20000C80C8F306280CFB08F200BF00BFDFF8F6
:100F30001CC0DCF80CC0CCF3416C0CF1010C4FEA86
:100F40004C06B2FBF6F0BDE8F08100000010024054
:100F5000885000080024F40000127A002DE9F843BC
:100F6000044614B90120BDE8F883F848806800F011
:100F70000C06F648C06800F00307207800F0100067
:100F8000102875D11EB10C2E74D1012F72D1EF48EB
:100F9000006800F0020018B1A06908B90120E2E77A
:100FA000EA48216A006800F0080020B1E7480068BC
:100FB00000F0F00005E0E5489430006800F470604F
:100FC000000981421FD9206A00F0F0FE08B101201B
:100FD000C9E700BFDD48006840F00800DB49086051
:100FE0000846006820F0F000216A0843D7490860ED
:100FF00000BF0846406820F47F40E16940EA0120D4
:10100000D24948601EE000BFD048006840F00800A8
:10101000CE4908600846006820F0F000216A0843C5
:10102000CA49086000BF0846406820F47F40E16973
:1010300040EA0120C5494860206A00F0B7FE08B1C7
:10104000012090E7FFF7FCFEC0498968C1F3031156
:10105000BF4A515C01F01F01C840BE490860002032
:10106000FFF712FB8046B8F1000F4ED040467AE7FA
:101070004BE0FFE7A06980B3B448006840F001008E
:10108000B2490860FFF7E2FA054606E0FFF7DEFA2C
:10109000401B022801D9032065E7AC48006800F036
:1010A00002000028F2D000BFA848006840F0080005
:1010B000A64908600846006820F0F000216A08434D
:1010C000A249086000BF0846406820F47F40E169FB
:1010D00040EA01209D49486017E0FFE79B4800680F
:1010E00020F0010099490860FFF7B0FA054606E0D4
:1010F000FFF7ACFA401B022801D9032033E79348DD
:10110000006800F002000028F2D1207800F0010011
:1011100000285CD0082E03D00C2E0AD1032F08D152
:101120008A48006800F4003088B3606878BB01200A
:1011300019E700BF6068B0F5803F06D183480068BA
:1011400040F48030814908601AE06068B0F5A02F53
:101150000BD17E48006840F480207C490860084636
:10116000006840F4803008600AE07848006820F4A5
:101170008030764908600846006820F480200860C6
:1011800000BF606890B1FFF761FA054607E01EE016
:10119000FFF75CFA401B642801D90320E3E66B48A3
:1011A000006800F400300028F2D010E0FFF74EFA9B
:1011B000054606E0FFF74AFA401B642801D90320E0
:1011C000D1E66248006800F400300028F2D12078AF
:1011D00000F00200022852D1042E03D00C2E14D1AC
:1011E000022F12D15948006800F4806018B1E068FD
:1011F00008B90120B7E65548406820F0F850217C36
:1012000040EA01605149486039E0E06800B34F4866
:10121000006840F480704D490860FFF717FA0546F2
:1012200006E0FFF713FA401B022801D903209AE6D3
:101230004648006800F480600028F2D043484068C7
:1012400020F0F850217C40EA01604049486016E0F7
:101250003E48006820F480703C490860FFF7F6F9CA
:10126000054606E0FFF7F2F9401B022801D90320EA
:1012700079E63648006800F480600028F2D12078D2
:1012800000F00800082836D16069D0B12F489430AA
:10129000006840F001002D49C1F89400FFF7D6F92D
:1012A000054606E0FFF7D2F9401B022801D90320CA
:1012B00059E626489430006800F002000028F1D07A
:1012C00019E022489430006820F001001F49C1F85D
:1012D0009400FFF7BBF9054606E0FFF7B7F9401B9E
:1012E000022801D903203EE618489430006800F037
:1012F00002000028F1D1207800F00400042870D109
:101300004FF000091148806D00F0805078B900BF9F
:101310000E48806D40F080500C4988650846806D0D
:1013200000F08050009000BF00BF4FF001090A4854
:10133000006800F48070F0B90748006840F48070DD
:1013400005490860FFF782F905460EE000100240EB
:10135000705000080000002000700040FFF776F990
:10136000401B022801D90320FDE59B48006800F4DA
:1013700080700028F2D000BFA068012808D19748EB
:10138000006840F0010095499039C1F8900021E0D3
:10139000A06805280FD19148006840F004008F49EB
:1013A0009039C1F890000846D0F8900040F0010054
:1013B000C1F890000EE08948006820F001008749DC
:1013C0009039C1F890000846D0F8900020F0040051
:1013D000C1F8900000BFA068A0B1FFF737F905463B
:1013E00009E02EE0FFF732F9401B41F288318842D4
:1013F00001D90320B7E57948006800F00200002811
:10140000F0D012E0FFF722F9054608E0FFF71EF9D9
:10141000401B41F28831884201D90320A3E56F487F
:10142000006800F002000028F0D1B9F1010F07D1E7
:101430006A489038806D20F08050684990398865FE
:1014400000BF207800F02000202838D1606AD8B191
:1014500062480830006840F0010060499039C1F8E6
:101460009800FFF7F3F8054606E0FFF7EFF8401B9A
:10147000022801D9032076E558480830006800F0BA
:1014800002000028F1D01AE054480830006820F02B
:10149000010052499039C1F89800FFF7D7F8054686
:1014A00006E0FFF7D3F8401B022801D903205AE5D4
:1014B0004A480830006800F002000028F1D1A06A14
:1014C000F0B30C2E74D0A06A022853D14348903850
:1014D000006820F08070414990390860FFF7B6F845
:1014E000054606E0FFF7B2F8401B022801D90320A9
:1014F00039E53A489038006800F000700028F1D1D2
:10150000206B401E0101606B41EA0020E16A084344
:10151000A18F0122C2EB510140EA41514020005D00
:10152000C2EB500041EA40613820005D41EAC060F2
:101530002A499039C8600846006840F0807000E091
:1015400048E008600846C06840F08070C860FFF757
:101550007DF8054606E0FFF779F8401B022801D91F
:10156000032000E51D489038006800F00070002856
:10157000F1D02FE019489038006820F080701749AA
:10158000903908600846006800F0006020B90846FD
:10159000C06820F00300C86010489038C068104947
:1015A00008400E499039C860FFF750F8054607E03B
:1015B0000EE0FFF74BF8401B022801D90320D2E4CC
:1015C00006489038006800F000700028F1D101E072
:1015D0000120C8E40020C6E40070004090100240E2
:1015E000FFFFEEFE042808D14FF0E021096941F029
:1015F00004014FF0E022116107E04FF0E02109699A
:1016000021F004014FF0E0221161704770B50446EB
:101610002546681EB0F1807F01D301200FE0681ECF
:101620004FF0E02148610F214FF0FF3000F0D2FA77
:1016300000204FF0E021886107200861002070BD84
:1016400070477047704710B504460CB9012010BDB3
:1016500094F83D0028B9002084F83C00204600F0B2
:101660000CF8022084F83D00211D206800F0A8FC41
:10167000012084F83D000020E9E770470146086832
:10168000C06840F001000A68D060086880680B4AB2
:101690001040062805D0086880681040B0F5803FEB
:1016A00001D1012000E0002028B90868006840F05E
:1016B00001000A6810600020704700000700010068
:1016C000704710B5044620680069C0F34000D8B1E7
:1016D0002068C068C0F34000B0B16FF0020021681C
:1016E0000861012020772068806900F0030018B1AC
:1016F0002046FFF7E5FF05E0204600F0BEF8204653
:1017000000F0BCF80020207720680069C0F380005A
:10171000D8B12068C068C0F38000B0B16FF0040099
:1017200021680861022020772068806900F44070F9
:1017300018B12046FFF7C4FF05E0204600F09DF8F1
:10174000204600F09BF80020207720680069C0F355
:10175000C000D8B12068C068C0F3C000B0B16FF05D
:10176000080021680861042020772068C06900F023
:10177000030018B12046FFF7A3FF05E0204600F064
:101780007CF8204600F07AF8002020772068006975
:10179000C0F30010D8B12068C068C0F30010B0B129
:1017A0006FF0100021680861082020772068C06968
:1017B00000F4407018B12046FFF782FF05E0204694
:1017C00000F05BF8204600F059F8002020772068F0
:1017D000006900F0010058B12068C06800F0010005
:1017E00030B16FF0010021680861204600F047F831
:1017F00020680069C0F3C01058B12068C068C0F309
:10180000C01030B16FF08000216808612046FFF7FA
:1018100018FF20680069C0F3002058B12068C06834
:10182000C0F3C01030B16FF48070216808612046A9
:10183000FFF706FF20680069C0F3801058B12068E8
:10184000C068C0F3801030B16FF0400021680861BB
:10185000204600F019F820680069C0F3401058B124
:101860002068C068C0F3401030B16FF020002168DC
:1018700008612046FFF7E6FE10BD7047704710B5BF
:101880000446FEF7E9FE10BD704710B504460CB9DA
:10189000012010BDA06900B100E000BF94F8710004
:1018A00028B9002084F87000204600F02BF824208E
:1018B00084F871002068006820F001002168086049
:1018C000204600F06DFC012800D1E2E7606A10B10B
:1018D000204600F0AFFB2068406820F4904021686B
:1018E00048602068806820F02A00216888602068AD
:1018F000006840F0010021680860204600F016FCF6
:10190000C7E7000010B586B00446142101A8FEF711
:101910001CFD52492068884231D100BF5048C06D3B
:1019200040F001004E49C8650846C06D00F0010056
:10193000009000BF00BF00BF0846C06C40F004002C
:10194000C8640846C06C00F00400009000BF00BFEF
:1019500003200190022002900020039003200490B5
:101960000820059001A93F48FEF78CFD0022114692
:101970004620FEF7E1FE4620FEF7D1FE6BE03A4935
:101980002068884232D100BF3548806D40F4003075
:10199000334988650846806D00F40030009000BF30
:1019A00000BF00BF0846C06C40F00100C864084694
:1019B000C06C00F00100009000BF00BF0C2001903F
:1019C000022002900020039003200490072005903D
:1019D00001A94FF09040FEF755FD00221146262048
:1019E000FEF7AAFE2620FEF79AFE34E01F49206883
:1019F000884230D100BF1A48806D40F480201849D9
:101A000088650846806D00F48020009000BF00BF0C
:101A100000BF0846C06C40F00400C8640846C06CB3
:101A200000F00400009000BF00BF302001900220B1
:101A3000029000200390032004900720059001A944
:101A40000848FEF71FFD002211462720FEF774FE0E
:101A50002720FEF764FE06B010BD000000800040A5
:101A600000100240000800480044004000480040C8
:101A70002DE9F84304460D4616461F464FF000096F
:101A800094F87100202855D105B116B90120BDE8A0
:101A9000F88300BF94F87000012801D10220F6E716
:101AA000012084F8700000BF00206067212084F8C6
:101AB0007100FEF7CBFD8146A4F85060A4F8526097
:101AC00021E04B46002280212046009700F071FD66
:101AD00008B10320DBE7A068B0F5805F0AD1206978
:101AE00040B9A846B8F80000C0F30800216808858E
:101AF000AD1C03E015F8010B21680885B4F852000D
:101B0000401EA4F85200B4F852000028D9D14B4628
:101B1000002240212046009700F04BFD08B1032031
:101B2000B5E7202084F8710000BF002084F8700021
:101B300000BFACE70220AAE700BFFEE710B50D48E2
:101B40000D4908604FF4E130486000210A48816087
:101B5000C16001610C21416100218161C1610162AB
:101B60000020054948620846FFF78FFE08B1FEF7DE
:101B70004EFC10BD00440040FC70002010B50D4824
:101B80000D4908604FF4E130486000210A48816047
:101B9000C16001610C21416100218161C16101626B
:101BA0000020054948620846FFF76FFE08B1FEF7BE
:101BB0002EFC10BD004800407471002000BFFEE7FD
:101BC0007047000002480068C0F302207047000020
:101BD0000CED00E010B5002807DA0A07140E054ADC
:101BE00000F00F031B1FD45403E00A07130E024A30
:101BF000135410BD18ED00E000E400E010B500281B
:101C000007DA0A07140E054A00F00F031B1FD4540D
:101C100003E00A07130E024A135410BD18ED00E04A
:101C200000E400E02DE9F04104460F4600255B4842
:101C3000C06800F0030090B15848C06800F003008D
:101C40002168884209D1206838B15448C068C0F37F
:101C50000210401C6168884233D0012531E02068C1
:101C6000012804D0022809D003281AD10DE04B48DE
:101C7000006800F0020000B9012514E04748006840
:101C800000F4806000B901250DE04448006800F4CC
:101C9000003028B94148006800F4802000B90125CF
:101CA00001E0012500BF00BF5DB9D4E90010401E6E
:101CB00041EA00103949C96821F0730108433749E6
:101CC000C860002D67D13548006820F08060334936
:101CD0000860FEF7BBFC064606E0FEF7B7FC801B7B
:101CE000022801D9032505E02C48006800F00060B7
:101CF0000028F2D100BFC5BB67B9A0680002217BF4
:101D000040EAC16025490969254A11400843234931
:101D1000086120E0012F0FD1A0680002218A012272
:101D2000C2EB510140EA41501C4909691D4A11406A
:101D300008431A4908610EE0A0680002217D0122D3
:101D4000C2EB510140EA416014490969164A114049
:101D50000843124908611148006840F080600F494B
:101D60000860FEF773FC064607E014E0FEF76EFC21
:101D7000801B022801D9032505E00848006800F00F
:101D800000600028F2D000BF2DB904480069A169A5
:101D90000843024908612846BDE8F081001002406E
:101DA000FF80FF07FF809FFFFF80FFF9F8B5044623
:101DB00000262348806D00F0805018B1FEF758FDD2
:101DC000054616E000BF1E48806D40F080501C495B
:101DD00088650846806D00F08050009000BF00BF0D
:101DE000FEF746FD05461648806D20F080501449E8
:101DF0008865B5F5007F07D1802C10D9A02C01D9BA
:101E000002260CE001260AE0802C01D9032606E018
:101E1000802C01D1022602E0702C00D10126094855
:101E2000006820F007003043064908600846006853
:101E300000F00700B04201D00120F8BD0020FCE70F
:101E40000010024000200240704710B5FEF704FC6D
:101E500002F044FC28B102F0DFFB03F0F1F802F0DD
:101E6000F3FB10BD10B5AEB044211DA8FEF76DFA0E
:101E7000142118A8FEF769FA5C2101A8FEF765FA9B
:101E8000FEF7FEFC3548006820F018003349903911
:101E9000C1F8900014201D9001201F902390002075
:101EA0002490602025900220279001211DA8C16266
:101EB000016328214163072181630221C163016419
:101EC000FFF74CF808B1FEF7A2FA0F201890032094
:101ED000199000201A901B901C90042118A8FEF75E
:101EE000A7FE08B1FEF793FA44F2660001900020C5
:101EF0000A900B900C900D904FF08050159001209F
:101F000002900121039110210491072105910221E2
:101F1000069107910106089101A8FEF7C5FC08B1DA
:101F2000FEF775FA4FF40070FEF75CFC08B1FEF79F
:101F30006EFAFEF7AFFCFEF759FF4FF47A71B0FB73
:101F4000F1F42046FFF762FB0420FFF74BFB002271
:101F50001146501EFEF7F0FB2EB010BD901002404F
:101F60001048006840F470000E4908600E48006890
:101F700040F001000C4908600020886008460068B5
:101F80000A490840084908608814C8600846006883
:101F900020F48020086000208861C803014980394E
:101FA0000860704788ED00E000100240FFFFF6EA8D
:101FB00010B50248FFF785FB10BD00006800002047
:101FC00010B50268184B984202D0B0F1804F03D18F
:101FD00022F070024B681A43134B984208D0B0F1BC
:101FE000804F05D0114B984202D0114B984203D13B
:101FF00022F44072CB681A4322F080034C6943EA12
:10200000040202608B68C3620B688362064B9842CD
:1020100005D0064B984202D0054B984201D10B697E
:1020200003630123436110BD002C014000400140C7
:102030000044014090F8241001F0010139B1016819
:10204000496821F40031826A11430268516090F8B6
:10205000241001F00201022907D10168496821F426
:102060008031C26A11430268516090F8241001F077
:102070000401042907D10168496821F48021026B19
:1020800011430268516090F8241001F008010829FA
:1020900007D10168496821F40041426B114302688D
:1020A000516090F8241001F01001102907D1016847
:1020B000896821F48051826B11430268916090F825
:1020C000241001F02001202907D10168896821F43A
:1020D0000051C26B11430268916090F8241001F026
:1020E0004001402913D10168496821F48011026C34
:1020F000114302685160016CB1F5801F07D101687E
:10210000496821F4C001426C11430268516090F8A3
:10211000241001F08001802907D10168496821F469
:102120000021826C114302685160704738B5044643
:10213000002500206067FEF789FA054620680068E0
:1021400000F0080008280CD16FF07E402B460022DA
:102150004FF400110090204600F02BFA08B1032044
:1021600038BD2068006800F0040004280CD16FF02E
:102170007E402B4600224FF480010090204600F064
:1021800018FA08B10320EBE7202084F8710084F8E6
:10219000720000BF002084F8700000BF00BFDFE7BE
:1021A0002DE9F84F04464FF0000910264FF0000BC0
:1021B0000025002000908246F3492068884200D123
:1021C00000E000BF2169A068084361690843E16934
:1021D00040EA010920680068EC49084040EA09002B
:1021E000216808602068406820F44050E168084396
:1021F00021684860D4F81890E3492068884202D0EA
:10220000206A40EA09092068806820F4306040EACA
:1022100009002168886000BFDD492068884216D126
:10222000DC48006800F0030030B1012808D0022823
:1022300004D0032808D105E0012607E0022605E0C6
:10224000042603E0082601E0102600BF53E0D2492F
:102250002068884216D1CF48006800F00C0030B1E9
:10226000042808D0082804D00C2808D105E000264E
:1022700007E0022605E0042603E0082601E0102618
:1022800000BF38E0C5492068884216D1C1480068BF
:1022900000F0300030B1102808D0202804D03028B9
:1022A00008D105E0002607E0022605E0042603E049
:1022B000082601E0102600BF1DE0B34920688842CF
:1022C00019D1B448006800F4406048B1B0F5806F9F
:1022D0000AD0B0F5006F05D0B0F5406F08D105E029
:1022E000002607E0022605E0042603E0082601E0B8
:1022F000102600BF00BF00BFA3492068884272D1EA
:10230000042E10D003DC3EB1022E13D108E0082EBB
:102310000DD0102E0ED10EE0FEF76EFD82460DE0C0
:10232000DFF87CA20AE0FEF78BFD824606E04FF460
:10233000004A03E000BF0120009000BF00BFBAF1D7
:10234000000F0AD0606800EB4000504503D8606879
:102350000003504502D2012000900FE1042E2ED040
:1023600003DC3EB1022E51D118E0082E3CD0102ED5
:102370004CD14CE0FEF740FD4FF48071A0FB0130E2
:10238000616849085F1840F10001D4F804C0624652
:1023900000233846FDF78CFF05463BE0D4F804C027
:1023A0004FEA5C0000217F4BC71841EB01086246F1
:1023B0000B4638464146FDF77BFF05462AE0FEF70F
:1023C0003FFD4FF48071A0FB0130616849085F1840
:1023D00040F10001D4F804C0624600233846FDF7FE
:1023E00067FF054616E022E0D4F804C04FEA5C001F
:1023F00000214FF40003C71841EB010862460B4669
:1024000038464146FDF754FF054603E000BF012072
:10241000009000BF00BFB5F5407F05D3B5F5801F24
:1024200002D22068C560A9E001200090A6E0E06922
:10243000B0F5004F57D1042E28D005DC4EB1012E47
:1024400011D0022E36D118E0082E29D0102E31D10D
:1024500031E0FEF7D1FC4000616800EB5100B0FBB9
:10246000F1F085B22AE0FEF7D9FC4000616800EB8C
:102470005100B0FBF1F085B220E04B49606801EB00
:1024800050006168B0FBF1F085B217E0FEF7D8FCB0
:102490004000616800EB5100B0FBF1F085B20DE047
:1024A0004FF48031606801EB50006168B0FBF1F0DF
:1024B00085B203E000BF0120009000BF00BF102DD7
:1024C0000ED3B5F5803F0BD24FF6F07005EA000B46
:1024D000C5F342004BEA000B2068C0F80CB04DE099
:1024E000012000904AE0042E26D005DC4EB1012EDA
:1024F00010D0022E33D116E0082E26D0102E2ED169
:102500002EE0FEF779FC616800EB5100B0FBF1F0C2
:1025100085B228E0FEF782FC616800EB5100B0FB59
:10252000F1F085B21FE01E49606801EB5000616860
:10253000B0FBF1F085B216E0FEF782FC616800EBBB
:102540005100B0FBF1F085B20DE04FF4004160683E
:1025500001EB50006168B0FBF1F085B203E000BF11
:102560000120009000BF00BF102D05D3B5F5803FBE
:1025700002D22068C56001E00120009000202066A2
:102580006066009800F012B800800040F369FFEF29
:1025900000380140881002400044004000480040DC
:1025A0000024F400000024F40048E80118BCBDE851
:1025B000E08F2DE9F04104460D4617469846069EE9
:1025C00021E0701CF8B12EB1FEF740F8A0EB080036
:1025D000B04218D92068006820F4D07021680860E3
:1025E0002068806820F0010021688860202084F83D
:1025F000710084F8720000BF002084F8700000BFF2
:102600000320BDE8F0812068C0692840A84201D1BC
:10261000012000E00020B842D3D00020F1E700BF45
:10262000FEE7000070B50446002500BF61194FF4B5
:102630007A7301220348FFF71BFA6D1C605D0028C6
:10264000F4D170BDFC7000200FB4054B10B503A988
:10265000044A029800F0E6F910BC5DF814FB000093
:10266000A93400086400002010B50446E143491C69
:1026700004EA010000F032FF401E10BD10B5044610
:10268000204600F02BFF401E10BD02E008C8121FBC
:1026900008C1002AFAD170477047002001E001C14B
:1026A000121F002AFBD1704710B50C68944201D26A
:1026B0000C6803550C68641C0C6010BD10B5044612
:1026C000601E00F005F8401E012101FA00F010BD67
:1026D0000146202209B900207047080C000408B9FF
:1026E0000904103A01F07F4008B90902083A01F0E4
:1026F000704008B90901121F01F0404008B9890073
:10270000921E01F0004008B94900521E1046E3E74E
:102710002DE9F0470746884691469A46DDE9085676
:102720000024002D00DD6C1E002C00DA00246CB1AA
:1027300006F0040050B905E020234A4641463846D9
:10274000FFF7B2FF201EA4F10104F5DC53464A4610
:1027500041463846FFF7A8FF6CB106F0040050B1BF
:1027600005E020234A4641463846FFF79DFF201EDC
:10277000A4F10104F5DCBDE8F08700002DE9FF4F6E
:1027800097B024AF97E88007289D00200690039714
:102790002020029067A001906BA00090B9F1020F79
:1027A00002DBB9F1100F02DD1BB000F0D7B805F065
:1027B000400008B10098019005F0040008B125F030
:1027C000020505F0200058B100210846791A78EB7F
:1027D000000005DA784203904FF02D0006900AE0E1
:1027E00005F0100010B12B20069004E005F0080061
:1027F00008B120200690002600BF039890FBF9F155
:1028000009FB11010198425C3046761C07A90A5465
:10281000039890FBF9F0039003980028EDDC002466
:10282000069820B12146641C04AA0698505405F06D
:102830000100B8B1B9F1080F02D0B9F1100F11D1F0
:1028400030222046641C04A90A54B9F1100F09D1A2
:1028500005F0400008B1782200E058222046641CB0
:1028600004A90A54002004A908553019504503DA78
:10287000AAEB0600001B00E00020834630195045FB
:1028800003DAAAEB0600A0EB040BBBF1000F25DD79
:1028900005F0040010BB05F0020070B1002406E052
:1028A00004A8035D17A807C8FFF7FEFE641C04A870
:1028B000005D0028F4D18DF810000AE005F0020058
:1028C00008B1302000E02020034617A807C8FFF712
:1028D000EBFEBBF10000ABF1010BEFDC002406E0E6
:1028E00004A8035D17A807C8FFF7DEFE641C04A850
:1028F000005D0028F4D105E007A8835D17A807C88C
:10290000FFF7D2FE301EA6F10106F5DCBBF1000F89
:102910000DDD05F0040050B104E0029B17A807C8C4
:10292000FFF7C2FEBBF10000ABF1010BF5DC00BF0D
:102930003AE70000303132333435363738394142E6
:1029400043444546000000003031323334353637D9
:1029500038396162636465660000000030BCBDE820
:10296000C08F2DE9F0478046894692461C46DDE936
:1029700008670025002E03DD204600F032F9351AE5
:10298000002D00DA00256DB107F0040050B905E014
:102990002023524649464046FFF786FE281EA5F1F1
:1029A0000105F5DC06E014F8013B52464946404675
:1029B000FFF77AFE20780028F5D16DB107F004000A
:1029C00050B105E02023524649464046FFF76CFED1
:1029D000281EA5F10105F5DCBDE8F08701460020C1
:1029E0000AE00A68127800EB800302EB4302A2F1CE
:1029F00030000A68521C0A600A681278302A03DB29
:102A00000A681278392AECDD704750600260416034
:102A1000086070475060026041600860704748601D
:102A2000016070472DE9FF4F8BB09A460F4605466F
:102A3000002606E025280BD052460D9990476D1CC4
:102A4000761C28780028F5D10FB0304600F0C6B8C3
:102A50000024A0460122604900E0044315F8013F2C
:102A6000203B02FA03F00842F7D128782E2817D12C
:102A700015F8010F44F004042A280ED06FF02F023D
:102A80002878A0F1300109290AD808EB880102EB67
:102A9000410100EB01086D1CF2E757F8048B6D1C37
:102AA000287869283ED006DC0028CDD063280BD0DA
:102AB000642804D136E0732810D075284BD05246D4
:102AC0000D999047761C85E017F8040B8DF80000EF
:102AD00000208DF80100E946012003E057F8049B2F
:102AE0004FF0FF3061074FF0000401D40AE0641C8E
:102AF00044450DDA8442FADB19F804100029F6D1B6
:102B000006E0641C8442FCDB19F804100029F8D1AB
:102B1000264404E019F8010B52460D999047641EB3
:102B2000F8D257E001CF4FF00A0B002802DA4042FA
:102B30002D2102E0210504D52B218DF8241001213F
:102B400003E0E10705D02021F7E70DF12009089106
:102B50000CE00021F9E701CF4FF00A0BF9E75946E5
:102B6000FDF7FEFB01F1300209F8012D0028F6D136
:102B7000ADEB090000F1200B600701D44FF0010814
:102B8000D84502DDA8EB0B0000E0002080460024C1
:102B900006E009A85246005D0D999047641C761C1A
:102BA00008988442F5DB04E0302052460D999047A6
:102BB000761CB8F10001A8F10108F5DC05E019F870
:102BC000010B52460D999047761CBBF10001ABF109
:102BD000010BF4DC6D1C34E70928010030BCBDE8B2
:102BE000C08F0146002001E0401C491C0A78002AE1
:102BF000FAD1704770B504460E4600250CB9002086
:102C000070BD3146204600F011F80546B5F1804F01
:102C100001D90020F4E70C2D01D92846F0E70C205B
:102C2000EEE70246481E1040101A70470246481E42
:102C300010444B1E9843704770B504460D46284615
:102C400000F024F9001D616808446060204600F02F
:102C50002EF8204670BD70B505460C46284600F09B
:102C600015F904F11001884201D3012070BD002044
:102C7000FCE70146A1F1080070477CB504462046F8
:102C800000F004F905466A4601A900F06FFD2046F0
:102C9000DDE9002100F02AFC7CBD0146087900F046
:102CA000010070470146087900F00200704770B5D6
:102CB0000446204600F063F805462C60284670BDA7
:102CC0007CB50446002001900090002504B97CBD2D
:102CD0006A4601A9204600F066FD0198182804DA2A
:102CE000694601A800F082F8054625B12846DDE9CD
:102CF000002100F0F9FF2846E9E770B504462046B8
:102D0000FFF7D5FF0546284600F0ABF8204600F057
:102D1000A3F870BD70B50446204600F030F80546B3
:102D2000284600F0A3F8204600F0ABF870BD70B55F
:102D30000446204600F023F805462846FFF7ADFF7D
:102D400038B1284600F041F829462046FFF774FFC5
:102D50000446204670BD70B504462046FFF7A2FF2A
:102D600058B1204600F02EF80546284600F02DF810
:102D700021462846FFF760FF0446204670BD2DE936
:102D8000F0410446204600F081F8061F204600F07E
:102D9000A1F80746314600F09DFD05462846BDE8EE
:102DA000F08170B504460D460CB9002070BD29466F
:102DB000204600F093F82046FFF7ACFF204600F0D5
:102DC00089F8F3E70146086870477CB50446204659
:102DD00000F05CF805466A4601A900F0C7FC2046F1
:102DE000DDE9002100F080FF7CBD00002DE9F04707
:102DF00005460E462C683768164850F824004FF0F8
:102E0000FF31B94000EA0109B9F1000F16D11148AC
:102E100014380069611C4FF0FF328A4000EA020852
:102E2000B8F1000F02D10020BDE8F0874046FFF75F
:102E30001BFC04462C60074850F824904846FFF7D6
:102E400013FC074637600348603000EBC41050F8AD
:102E50002700E9E77C630020416841F001014160FF
:102E60007047416841F0020141607047416821F0BC
:102E7000020141607047027902F003020A43426096
:102E80007047416821F00101416070470146486880
:102E900020F0030070472DE9F04105460C46284616
:102EA00000F018F88046211F00F014FD0646284661
:102EB000FFF7ECFF211D471A39463046FFF7DBFFCD
:102EC00021462846FFF7D7FF3046FFF716FF30466A
:102ED000BDE8F081014601F10800704770B5044675
:102EE0000D4629462046FFF7B6FE68B12946204622
:102EF000FFF7D1FF06462046FFF7D9FE3046FFF721
:102F0000B0FF3046FFF7B9FE70BD10B5FDF795F97B
:102F100010BD000010B507480CC807480068002124
:102F2000FDF7C6F9054908600846006800F00EF88C
:102F300010BD00002000002000000020280000201C
:102F400010B5FDF77FF910BDFDF74AF910B504463D
:102F5000002000F0B4FD204600F098FD10BDF0B553
:102F60000446059D581920F007004FF08077061F92
:102F700030463760061F30463460061F30463260E8
:102F80004FF01237061F304637604FF00337061FE9
:102F9000304637604FF00237061F304637607F10EB
:102FA000061F30463760061F304631606FF002075B
:102FB000061F304637604FF01137061F3046376026
:102FC0004FF01037061F304637604FF00937061FA5
:102FD000304637604FF00837061F304637604FF0F5
:102FE0000737061F304637604FF00637061F30465A
:102FF00037604FF00537061F304637604FF0043713
:10300000061F30463760F0BD70B505460DB900208B
:1030100070BD681E284018B12846FFF74FFB0546D3
:1030200005F1180000F00AFF0446ACB104F11800E5
:10303000606100F067FF2061206938B9204600F028
:1030400003FFE06800F068FF0020E1E72560002052
:103050006060A0602046DBE70020D9E72DE9F04161
:1030600004460E46154698460CB106B115B9002027
:10307000BDE8F081D4E90101401AA84201D92846EF
:1030800002E0D4E90101401A05462168491EA06802
:1030900008402168081AA84201D9284605E021689D
:1030A000491EA06808402168081A07462268521E77
:1030B000A0681040626981183A463046FDF72CF945
:1030C000EA1BF0196169FDF727F9A0682844A060A0
:1030D0002846CDE72DE9F04704460E4615469946A9
:1030E0000CB106B115B90020BDE8F087494620694A
:1030F00000F01BFF0746781C08B90020F4E7D4E96C
:103100000001401AA1680844A84201D9284604E0F9
:10311000D4E90001401AA16808440546D4E900102A
:10312000491E08402168081AA84201D9284605E02E
:10313000D4E90010491E08402168081A8046D4E9E5
:103140000021521E11406269881842463146FDF73F
:10315000E3F8A5EB080206EB08016069FDF7DCF86F
:10316000606828446060206900F0EDFE2846BBE7F7
:103170002DE9FF4F8BB083468A4600200A90804697
:10318000BBF1000F00D1824600BF0D9810F8014B33
:103190000D90B8F1000F0CD1252C03D14FF0010890
:1031A00000275DE1234652460AA95846FFF77CFAFC
:1031B00056E1B8F1010F2AD12B2C1AD006DC202CB5
:1031C00014D0232C09D0272C18D115E02D2C0AD08F
:1031D000302C05D0492C11D10FE047F0010715E044
:1031E00047F0020712E047F004070FE047F0080736
:1031F0000CE047F0100709E000BF07E00D98401E03
:103200000D904FF000094FF0020800BF28E1B8F11F
:10321000020F24D12A2C0BD10E9850F8049B0E904B
:10322000B9F1000FBDDAC9F1000947F0040717E151
:10323000302C0BDB392C09DC302C07DD0D98401EBF
:103240000D900DA8FFF7CAFB814609E10D98401EBD
:103250000D904FF0FF3007904FF0030800E1B8F1F8
:10326000030F28D12E2C1ED10D980078302808DBB2
:103270000D980078392804DC0DA8FFF7AFFB079004
:1032800009E00D9800782A2805D10E98006807906B
:103290000E98001D0E900798002801DA002000E02B
:1032A0000798079002E00D98401E0D9000200690B0
:1032B0004FF00408D4E0B8F1040F20D14C2C14D006
:1032C000682C02D06C2C13D107E00698012801D19C
:1032D000022000E00120069010E00698032801D1AA
:1032E000042000E00320069008E00520069005E099
:1032F0000D98401E0D904FF0050800BFB0E0B8F1EA
:10330000050F94D1642C0BD0692C09D06F2C07D0F9
:10331000622C05D0752C03D0782C01D0582C4DD1BF
:103320000698032804D10E9820C8EE170E901AE0D4
:10333000069800F0050048B10E98C01D20F0070067
:103340000E90D0E9005608300E900CE0642C01D0AD
:10335000692C04D10E9820C8EE170E9003E00E9849
:1033600020C800260E900A200890642C01D0692CF9
:1033700002D147F0200715E0782C01D0582C08D155
:10338000782C01D1402000E0002007431020089055
:1033900008E06F2C02D10820089003E0622C01D1D4
:1033A00002200890089852460AA9CDE90397CDE972
:1033B000005602905846FFF7E1F94FE0702C13D108
:1033C0000E9820C8EE170E901020089047F0410785
:1033D000089852460AA9CDE90397CDE90056029014
:1033E0005846FFF7CBF939E0732C12D10E980068DC
:1033F00009900E98001D0E90099808B926A0099012
:10340000CDE9009752460AA95846099BFFF7A9FA49
:1034100024E0632C0DD10E9810F8041BCCB20E9052
:10342000234652460AA95846CDE90097FFF770F99E
:1034300014E0252C06D1234652460AA95846FFF728
:1034400033F90BE0252352460AA95846FFF72CF919
:10345000234652460AA95846FFF726F94FF00008BE
:10346000002C7FF492AE00BF00BF0A98401E0A9065
:103470000A98504504D200200A990BF8010007E091
:10348000BAF1000F04D00021AAF101000BF80010DE
:103490000A980FB000F004B8286E756C6C29000013
:1034A00030BCBDE8C08F000013B50C4600980A2858
:1034B00006D147F23053012206A10748FEF7D8FA99
:1034C0004FF6FF73012269460348FEF7D1FA0098D0
:1034D0001CBD00000D000000FC70002010B504466B
:1034E000204601F06DF8C0F1200010BD30B5114C40
:1034F00004EBC11454F8223083600E4C743CC46059
:10350000D860743404EBC11444F82200094C743CB4
:10351000256901248C402543064C743C25611434F4
:1035200054F82150012494402C43024D603D45F84D
:10353000214030BDDC63002000BF00BFFEE700007B
:103540001FB5002008490968084A12680923CDE917
:103550000032CDE902100346054A06A1074801F0F2
:1035600083FB04B010BD0000BC500008B850000838
:103570003935000869646C65000000000001002016
:1035800001460348814201D1012070470020FCE739
:10359000000100200348007808B101207047002096
:1035A000FCE70000080000200348007808B1012073
:1035B00070470020FCE700000900002001460020C1
:1035C00008807047024608461180704702461088FE
:1035D000884201D1012070470020FCE710B500248B
:1035E000FFF7D8FF00B110BDFFF7DEFF00B1FAE72B
:1035F00000BF00F0F1FF044600BF00F0BBFA0B492A
:103600000860084600680A490968884205D100BF79
:10361000204600F0DBFF00BFE5E7FFF776FC00BFC8
:10362000204600F0D3FF00BF00BFDCE71C000020F5
:10363000180000207FB5FCF7DBFE00F0D1FF00F0A2
:1036400033FC00BF21A000F0D9FB00F003FC0546CD
:1036500000F006FC06462A46314620A000F0CEFBCC
:1036600024A000F0CBFB2AA000F0C8FB00BF4FF461
:10367000FA71002001F0C8FA14204FF48061264A44
:103680000323CDE90032CDE902100023234A24A10F
:10369000254801F0E9FA044614204FF48061234ADA
:1036A0000423CDE90032CDE902100023204A21A1F4
:1036B000224801F0D9FA04461CB1214620A0FEF7A9
:1036C000C3FF01F073F8002004B070BD1B0A5B3328
:1036D000326D5B495D203E3E200000005B54533A52
:1036E00020256C645D205B5441523A2025735D2097
:1036F0000000000057656C636F6D6520746F205487
:10370000656E63656E744F532074696E790D0A009F
:103710001B5B306D00000000C0720020814000087B
:103720007461736B31000000F0710020C0760020DE
:10373000394100087461736B320000005872002038
:1037400054656E63656E744F532043726561746592
:10375000207461736B206661696C2120636F6465FE
:10376000203A202564200D0A000000002DE9F041D8
:1037700004460F469046802C06D200252046E117CD
:1037800004EB91718E1009E02046FEF777FF0546A5
:10379000681F44FA00F080F02006AD1F3D60C8F8B5
:1037A0000060BDE8F0812DE9F04104460E46174661
:1037B000802C08D32046FEF761FF401F012101FA4B
:1037C00000F0451E2C443A4631462046FFF7CEFF16
:1037D000BDE8F0810E4A13469A60DA6000221A6151
:1037E000002011E000230A4A143242F82030002160
:1037F00007E0074B03F1740202EBC01242F82130DC
:10380000491C2029F5DB401C1828EBDB7047000021
:103810006863002070B504460D46FFF7DBFF2946BC
:10382000204601F04BF870BD10B500240BE00749AD
:1038300001EB041001F00EF8044901EB04100449F7
:1038400000F0D0FF641C032CF1D310BDDC6F00200E
:103850005000002010B502460B4601201073136182
:10386000587D107502F1180003F138010C68606092
:1038700004604160086000BF00BF10BD70B5044621
:10388000256995F840000A2808D095F84010284688
:1038900001F03CFB0A2085F8400007E0687D217DAF
:1038A000884203D0217D284601F030FB00202061B2
:1038B00000BFD4E906104860016000BF00BF70BDC2
:1038C00010B504462046FFF7D9FF0421204600F03A
:1038D000C0F810BD02465018704770B50446201D50
:1038E00000F098FF08B1002001E06068303805461C
:1038F0000DB1687D70BD0A20FCE710B50446201D9F
:1039000000F088FF10BD70B502460B461D1D2868EB
:1039100007E0A0F13006517D747DA14200DA02E09B
:103920000068A842F5D100BF02F13001446841604F
:1039300008604C60216000BF00BF536400BF117D70
:1039400041F00201117500BF70BD10B5044604F1CD
:10395000300000F059FF2046616CFFF7D4FF10BD26
:1039600010B5044604F1300000F04EFF0020606402
:1039700000BF207D20F00200207500BF10BD10B5F3
:10398000044600202080201D00F067FF10BD70B5A8
:1039900004460D462580201D00F05FFF70BD0246E5
:1039A0001088884201D1012070470020FCE70146C1
:1039B000012901D100207047022902D140F2436061
:1039C000F9E7032902D140F24460F4E7042902D167
:1039D00040F24560EFE740F24260ECE72DE9F0414C
:1039E00006460F4614461D46304600F04BF9394650
:1039F0003046FFF788FF4FF0FF3184EA010069404D
:103A0000084304D022462B46304600F0F1FBBDE8C7
:103A1000F08170B504460D4600BF207D00F0020025
:103A200020B184F848502046FFF79AFF00BF207D60
:103A300000F0010010B1204600F0FEFB00BF207D29
:103A400000F0040000B170BD204600F041F800BF56
:103A5000F9E72DE9F04105460F466C68266806E057
:103A6000A4F130003946FFF7D4FF34462668281DFC
:103A70008442F5D1BDE8F08170B504460D46616819
:103A8000A1F130002946FFF7C4FF70BD70B50446B0
:103A90002546681EB0F1807F00D30FE0681E4FF00E
:103AA000E02148610F214FF0FF30FEF7A7F800201A
:103AB0004FF0E02188610720086100BF70BD10B59C
:103AC000044621464FF0FF30FEF798F810BD000085
:103AD00010B50446607D06490968497D884203D1D6
:103AE000204600F021F802E0204600F003F810BD67
:103AF000180000202DE9F04105466E7D094800EBD5
:103B0000C604204600F08EFE10B1304600F09CF84E
:103B100005F13007214638462268FEF77BFF00BFDB
:103B2000BDE8F081A800002070B50446657D084816
:103B300000EBC506304600F075FE10B1284600F0D7
:103B400083F8314604F1300000F055FE70BD0000EE
:103B5000A800002070B50446054800EBC4052846BF
:103B600000F060FE08B1002070BD28683038FBE727
:103B7000A8000020044890F85400034A02EBC0015A
:103B80000868303870470000A80000200A210E4A5B
:103B900082F854100021084608E00B4A02EBC001ED
:103BA0000960496000BF411CC9B208460A28F4D325
:103BB000002006E000220449503141F82020411C39
:103BC000C8B20028F6D07047A80000200146064879
:103BD00000EBC1021068A0F13003186B904201D1D4
:103BE000012070470020FCE7A800002070B50646C1
:103BF0000A4800EBC605284600F014FE60B92C68A0
:103C000000BFD4E90010FEF70AFF00BF2946204696
:103C100000F0F1FD00BF00BF70BD0000A800002053
:103C200070B50025074C03E005F12000C5B2241D46
:103C300020680028F8D0206800F0C2FC2844C5B2F3
:103C4000284670BDF800002000BF42110C4951F811
:103C5000221000F01F02C2F11F0301229A401143FB
:103C60004311074A42F8231000BFA2F1500191F816
:103C70005410814203DDA2F1500181F854007047D5
:103C8000F800002070B505466C7D164800EBC406B0
:103C900000BFD5E90C10FEF7C2FE00BF304600F0B1
:103CA000C1FD98B100BF61110E48503050F821009D
:103CB00004F01F01C1F11F020121914088436211EC
:103CC0000849503141F8220000BF00BF054890F874
:103CD0005400A04204D1FFF7A3FF024981F8540029
:103CE00070BD0000A800002070B5C4688368DC6067
:103CF000A360134D05EBC11555F8225085421ED126
:103D00000F4D05EBC11545F822300D4D743DAB420A
:103D100015D1143555F8216001259540AE43084D65
:103D2000603D45F8216055F8215045B9044D743D7A
:103D30002D6901268E40B543014E743E356170BD3C
:103D4000DC63002070B5054600262948007800B1E4
:103D500070BD00BF00F040FC064600BF2846FFF7DC
:103D6000F9FE04461CB12046FFF70AFC28B100BF4B
:103D7000304600F02BFC00BFEAE72846FFF726FF9D
:103D800028B100BF304600F021FC00BFE0E7FFF79C
:103D90000BFC28B100BF304600F018FC00BFD7E78D
:103DA000206D10B1206D401E2065206D28B100BF30
:103DB000304600F00BFC00BFCAE70E490968487D99
:103DC000FFF714FF2846FFF7C5FE0446E06C18B95C
:103DD00009480068206501E0E06C206500BF3046BE
:103DE00000F0F4FB00BFFFF7F9FB00BFB0E70000F5
:103DF0003800002018000020340000200FB438B52F
:103E000005A80090FF210B48009B049AFFF7B0F92A
:103E10000446B4F5807F00D9FF2464232246054977
:103E200005480068FFF756F90020009038BC5DF89F
:103E300014FB0000C07B00205800002010B5044691
:103E4000204600F010FD10BD10B50446204600F0DD
:103E50001DFD10BD014800688068704718000020F3
:103E600010B500F0EDFE10BD10B500234FF48072C8
:103E70000A490B480068FFF7F1F80A49086008464C
:103E80000068002809DD08460168044800F066F86B
:103E9000044801680148FCF758FA10BDC07A0020B8
:103EA000580000205C0000201CB54FF48050FFF744
:103EB000ABF80E4908600846006810B94FF0FF30B3
:103EC0001CBD14200821CB010022CDE900100849B7
:103ED00008A000F04FF80A4908600846006810B9C9
:103EE0004FF0FF30ECE70020EAE700005800002028
:103EF0006D3F000873616C6F665F7461736B0000E7
:103F00006000002010B5202000F0ADFC04462046E3
:103F100000F010FD204610BD10B50446204600F00C
:103F200026FD204600F0B2FC10BD70B505460C46DB
:103F300022460023284600F051FD10B14FF0FF301B
:103F400070BD0020FCE710B50446204600F0FEFDE1
:103F500010B14FF0FF3010BD0020FCE770B50446F3
:103F60000D462946204600F033F870BD01E0FFF70A
:103F70007BFFFCE72DE9F04F85B005460E4617465E
:103F80001C46DDE90E9A682000F06DFC0490204686
:103F900000F069FC804609F0FF003B4632462946A6
:103FA000CDE9024ACDE90008049800F05DFE8346A1
:103FB000BBF1000F05D0049800F068FC404600F00B
:103FC00065FC049805B000F000B830BCBDE8C08FB7
:103FD00070B505460C462846FEF724FB204670BD0A
:103FE00010B5002000F02CFF10BD2DE9F041054672
:103FF0004FF00A08AE6B09E0A6F118073846FFF744
:104000006CFC0446444500DAA046366805F13800E9
:104010008642F1D14046BDE8F08170B50546AC6BF3
:10402000266805E0A4F11800FFF74AFC344626682C
:1040300005F138008442F5D170BD10B50446201D4D
:10404000FFF7BCFA04F1280000F00AFC04F130008C
:1040500000F006FC04F1380000F002FC0A2084F8AD
:104060004000002084F8480060646065A06510BDD1
:104070000146087D08B9012070470020FCE70000D8
:1040800030E000BF18A0FFF7B9FEFFF7E3FE0446DB
:10409000FFF7E6FE05462246294617A0FFF7AEFECB
:1040A0001BA0FFF7ABFE1EA0FFF7A8FE00BF00BFDE
:1040B0001DA0FFF7A3FEFFF7CDFE0446FFF7D0FEDD
:1040C0000546224629460CA0FFF798FE10A0FFF7F0
:1040D00095FE13A0FFF792FE00BF4FF47A70002107
:1040E00000F068FECDE700001B0A5B33326D5B49D0
:1040F0005D203E3E200000005B54533A20256C6456
:104100005D205B5441523A2025735D200000000081
:104110007461736B312072756E6E696E670D0A0083
:104120001B5B306D000000001B0A5B33316D5B458B
:104130005D203E3E2000000030E000BF18A0FFF7E9
:104140005DFEFFF787FE0446FFF78AFE054622461E
:10415000294617A0FFF752FE1BA0FFF74FFE1EA037
:10416000FFF74CFE00BF00BF1DA0FFF747FEFFF7A3
:1041700071FE0446FFF774FE0546224629460CA050
:10418000FFF73CFE10A0FFF739FE13A0FFF736FE45
:1041900000BF4FF47A70002100F00CFECDE7000064
:1041A0001B0A5B33336D5B575D203E3E20000000F1
:1041B0005B54533A20256C645D205B5441523A2095
:1041C00025735D20000000007461736B32207275EE
:1041D0006E6E696E670D0A001B5B306D000000009B
:1041E0001B0A5B306D5B445D203E3E2000000000FA
:1041F00070B5064614461D46002184EA0100694058
:10420000084301D1642070BD4FF0FF3184EA010002
:104210006940084301D16520F5E7C6E90845224613
:104220002B46304600F014F800BF307D40F001000E
:10423000307500BF0020E6E710B50446204600F0C8
:104240005DF800BF207D20F00100207500BF10BD8B
:104250002DE9FF5F81464FF0000BDA4600210F4643
:10426000884600BF00F0B8F9834600BFDDE90201CF
:10427000C9E908011E4804680FE0A4F1280ADAE938
:104280000810CD1940EB0806D9E90810491BB041C8
:1042900000D205E02F46B046246815488442ECD190
:1042A00000BFD9E90810C91B60EB0800C9E9081074
:1042B0000F4884420BD0BAF1000F08D0DAE9083079
:1042C000D9E90812591A60EB0200CAE9081009F18D
:1042D00028006168606004604160086000BF00BF42
:1042E00000BF584600F072F900BF00F003B80000AC
:1042F0002C0000203FBCBDE8C09F000070B5044604
:10430000002600BF00F068F9064600BF04F128004F
:1043100000F098FA08B1002001E0A06A28380546AC
:10432000F5B11649A06A88421AD06FF00101481011
:10433000D4E908238A1A60EB0300D5E90813511A5F
:10434000984108D3D5E90820D4E90831D21848416A
:10435000C5E9082004E06FF001014810C5E9081024
:1043600000BFD4E90A104860016000BF00BF00BF71
:10437000304600F02BF900BF70BD00002C0000207B
:104380002DE9F04704460D464FF0000A00BF00F04B
:1043900023F9824600BF2748D0E900100919684177
:1043A000244AC2E90010244800F04CFA30B100BFA2
:1043B000504600F00BF900BFBDE8F0871E480068CA
:1043C000A0F12806D6E90801201A75EB010003D3F5
:1043D0000021316271620CE0D6E90810091B60EB24
:1043E0000500C6E9081000BF504600F0EFF800BF16
:1043F000E2E711480768D7F8009010E0A7F1280815
:104400000023D8E9081059405840014300D009E082
:1044100002214046FFF7FDFA4F46D7F800900648C4
:104420008742EBD100BF00BF504600F0CFF800BF7D
:1044300000BFC1E7100000202C00002000207047C2
:104440002DE9F04105460026002700BF00F0C4F822
:10445000064600BF1B49D5E90620D1E90031D21834
:104460004841C5E90620184884680AE0A4F10C0711
:10447000D5E90630D7E90612591A904100D204E076
:104480002468114808308442F0D100BF05F10C00C7
:104490006168606004604160086000BF00BF0A4856
:1044A000816805F10C00814204D1074AD5E9061064
:1044B000C2E9001000BF304600F088F800BFBDE838
:1044C000F081000010000020400000202DE9F041A4
:1044D0000446002700BF00F07FF8074600BF1748DA
:1044E0008068A0F10C0500BFD4E9031048600160AA
:1044F00000BF00BFA54219D104F10C000168814240
:1045000001D1012100E0002109B1002001E0E068B3
:104510000C3806462EB94FF0FF31084A1160516041
:1045200004E0064AD6E90610C2E9001000BF38468A
:1045300000F04CF800BFBDE8F08100004000002012
:1045400070B51D48D0E900201C49D1E90031D21ACC
:10455000884100D270BD00F0CBF8174885682E68FE
:1045600020E0A5F10C041548D4E90612D0E900308A
:10457000591A904100D219E02046FFF7A7FF208E7C
:10458000022807D1D4E90A01C4E906012046FFF751
:1045900057FF02E0032084F83200D4E90110884775
:1045A00035462E68044808308542DAD100BF00F055
:1045B000CDF800BFCEE70000400000201000002032
:1045C00010B504462046FBF708FE10BD10B50446A2
:1045D0002046FBF7FFFD10BD10B5FBF7F7FD10BD42
:1045E00010B5FEF797FCFFF7D1FA4FF4C041094828
:1045F000FFF710F9FFF718F9FEF7A2FF04460CB118
:10460000204610BDFFF71AFF04460CB12046F8E71C
:104610000020F6E76803002000B500F05FF800B95D
:1046200000BD08480078FA2801DB012000E00020E6
:1046300000B1F5E703480078401C0249087000BF4C
:10464000EEE700000800002010B5002400F046F856
:1046500000B910BD00BFFFF7BFFF044600BFFEF763
:1046600099FF28B900BF2046FFF7B0FF00BFF0E771
:1046700017480078401E16490870FEF78BFF28B1D6
:1046800000BF2046FFF7A2FF00BFE2E7FEF78CFF66
:1046900028B100BF2046FFF799FF00BFD9E7FFF719
:1046A00069FA0C490860084600680B4909688842A5
:1046B00005D100BF2046FFF789FF00BFC9E7FEF71D
:1046C0003FFC00BF2046FFF781FF00BF00BFC0E7EF
:1046D000080000201C00002018000020034800787B
:1046E000012800D170470020FCE700000A000020EC
:1046F00010B5002400BFFEF74DFF08B1012000E017
:10470000002010B14FF4C87010BD00BFFFF7E6FFE6
:1047100010B94FF4FA70F7E70B480078FA2802DB7B
:104720004FF41670F0E700BFFFF756FF044600BFD6
:1047300005480078401C0449087000BF2046FFF778
:1047400045FF00BF0020DFE70900002010B500246E
:1047500000BFFEF71FFF08B1012000E0002010B1EC
:104760004FF4C87010BD00BFFFF7B8FF10B94FF489
:10477000FA70F7E7FEF718FF10B940F2A560F1E70D
:1047800000BFFFF729FF044600BF07480078401E1E
:104790000549087000BF2046FFF718FF00BFFEF76D
:1047A0001DFF0020DEE700000900002010B5FFF724
:1047B00095FF10B140F2F51010BDFFF7DBF9064987
:1047C000086008460068054908600120044908702F
:1047D000FEF7BAFB0020EFE71C00002018000020C5
:1047E0000A00002070B505460C462146284622687E
:1047F000FEF70BF970BD70B505460C4622462846FB
:104800006168FEF707F970BDD0E900124A601160D7
:1048100000BF704701460868884201D101207047F7
:104820000020FCE701460868884201D1012070475A
:104830000020FCE701460868884201D1012070474A
:104840000020FCE701460868884201D1012070473A
:104850000020FCE7006040607047006040607047E7
:1048600000604060704770B5054604212846FEF799
:10487000C1F906463046FEF723FA04460CB900207B
:1048800070BD31462046FEF78CFAF9E770B5044654
:1048900004B970BD2046FEF7ECF905462846FEF740
:1048A0002CFA2846FEF757FA05462846FEF73FFA47
:1048B00005462846FEF7E1F900BFEAE72DE9F04199
:1048C00005460E46A6F108000421FEF7AAF90446A3
:1048D00005F0030018B14FF44870BDE8F0810C2CCE
:1048E00002D3B4F1804F02D940F22130F5E76FF0E6
:1048F00003012846FEF7EEFF074621463846FEF73D
:10490000BAFA3846FEF7A8FA3846FEF7AFFA384644
:10491000FEF7B3F93846FEF7CAF980460021404653
:10492000FEF7A9FA4046FEF7ACFA4046FEF799FAC0
:104930000020D2E710B5044600BF0CB9012000E00A
:10494000002010B140F24C4010BD00BF42F6EE31E5
:104950002046FFF71CF80020207320610A202075F4
:1049600004F118000060406000BF0020ECE770B563
:104970000446002500BF0CB9012000E0002010B162
:1049800040F24C4070BD00BF42F6EE312046FFF7CA
:1049900006F810B940F24D40F4E700BFFFF71CFEE7
:1049A000054600BF2046FEF7A8FF18B903212046A0
:1049B000FFF74FF82046FEF7E2FF00202073206942
:1049C00010B12046FEF75AFF00BF2846FFF7FEFD54
:1049D00000BFFEF703FE0020D4E700002DE9F05FE2
:1049E000044616461F464FF0000B00BF0CB90120CD
:1049F00000E0002018B140F24C4000F0A3B800BF26
:104A000000BFFEF7C7FD08B1012000E0002010B193
:104A10004FF4C870F1E700BF42F6EE312046FEF7D2
:104A2000BEFF10B940F24D40E7E700BFFFF7D4FDED
:104A3000834600BF207B58B9414801682046FEF7F5
:104A400009FF00BF5846FFF7C1FD00BF0020D4E7B3
:104A50003B4920690968884215D1207BFF2807D18E
:104A600000BF5846FFF7B2FD00BF40F2EA30C4E78E
:104A7000207B401C207300BF5846FFF7A7FD00BFF6
:104A800040F2E930B9E7002186EA010079400843A5
:104A900007D100BF5846FFF799FD00BF4FF4C8602B
:104AA000ABE7FEF781FD38B100BF5846FFF78EFD3A
:104AB00000BF40F24160A0E72069407D20490968BD
:104AC000497D884205DD1E4A1268517D206900F04B
:104AD0001DFA32463B46214619480068FEF77EFF24
:104AE00000BF5846FFF772FD00BFFEF777FD14497F
:104AF000096891F84800FEF75AFF8046B8F1000FA8
:104B00001CD100BFFFF768FD834600BFA1460C48DB
:104B1000056829464846FEF79DFE4846FEF7DDFE3D
:104B20008246687D504503DD5146284600F0EEF987
:104B300000BF00BF5846FFF749FD00BF40465CE795
:104B40001800002030BCBDE8C09F000070B50446CE
:104B5000002500BF0CB9012000E0002010B140F298
:104B60004C4070BD00BF42F6EE312046FEF717FF05
:104B700010B940F24D40F4E700BFFFF72DFD0546A8
:104B800000BF204920690968884207D000BF284635
:104B9000FFF71CFD00BF4FF47A70E2E7207B38B9C5
:104BA00000BF2846FFF712FD00BF40F2EA30D8E709
:104BB000207B401E2073207B002807DD00BF284695
:104BC000FFF704FD00BF40F2E930CAE72046FEF7D8
:104BD00055FE2046FEF791FE30B100BF2846FFF794
:104BE000F5FC00BF0020BCE701212046FEF744FF92
:104BF00000BF2846FFF7EAFC00BFFEF7EFFC0020ED
:104C0000AFE700001800002070B505460C460026EE
:104C100000BFFFF7E1FC064600BF0748057014B16E
:104C20000648046002E064200449086000BF304682
:104C3000FFF7CCFC00BF70BD38000020340000201E
:104C400070B5002600BFFFF7C7FC064600BF054849
:104C500030C800BF3046FFF7B9FC00BF20462946E8
:104C600070BD0000100000202DE9FC5F04468B465B
:104C700015461F460CAE96E840070020019000BF85
:104C8000FEF788FC08B1012000E0002018B14FF4C5
:104C9000C87000F08BB800BF00BF0CB9012000E065
:104CA000002010B140F24C40F3E700BF00BF0DB947
:104CB000012000E0002010B140F24C40E9E700BFC5
:104CC00000BFB8F1000F01D1012000E0002010B1B9
:104CD00040F24C40DDE700BFB9F1440F01D20120A2
:104CE00000E0002010B140F27270D2E7092E05D129
:104CF0002046FEF745FC08B9012000E0002010B175
:104D000040F26E70C5E7092E01DD012000E00020B1
:104D100010B140F26E70BCE70EB9012000E0002037
:104D200010B140F26E70B4E72046FFF786F94DF6F9
:104D3000D121201DFEF746FC43461A4A3946284633
:104D4000CDF80090FEF70BF92060E5602761C4F80C
:104D500008B06675C4F81880C4F81C90C4F84CA05C
:104D6000BAF1000F03D110480068206501E0C4F8D3
:104D700050A000BFFFF730FC019000BF00BF002033
:104D8000207500BF2046FEF7CFFE00BF0198FFF759
:104D90001DFC00BFFFF7A2FC08B1FEF71FFC0020BE
:104DA00077E70000E13F0008340000203CBCBDE88C
:104DB000C09F000070B504460D46002600BFFEF7F8
:104DC000E9FB08B1012000E0002010B14FF4C870E9
:104DD00070BD00BFFEF7E8FB10B140F2A460F7E73A
:104DE000002184EA01006940084301D1012000E06C
:104DF000002018B100F006F90020E9E700BFFFF736
:104E0000EBFB064600BF22462B460C480068FFF726
:104E1000EFF930B100BF3046FFF7D8FB00BF652087
:104E2000D6E706480068FEF72DFF00BF3046FFF7C3
:104E3000CDFB00BFFEF7D2FB0020C9E71800002021
:104E400070B50446002500BFFEF7A4FB08B10120A1
:104E500000E0002010B14FF4C87070BD00BF0CB965
:104E6000012000E0002008B1274804684DF6D12158
:104E7000201DFEF7ABFB10B940F24D40EDE7204698
:104E8000FEF77EFB10B140F26C70E6E71E4800684A
:104E9000844205D1FEF788FB10B140F2A460DCE744
:104EA00000BFFFF799FB054600BF04F13800FFF78C
:104EB000C1FC10B92046FFF7B0F82046FFF7D8F83C
:104EC00010B12046FEF7DEFE00BF207D00F001009D
:104ED00010B12046FFF7B0F900BF207D00F00200BE
:104EE00010B12046FEF73CFD2046FFF7A6F800BFB4
:104EF0000820207500BF00BF2846FFF767FB00BFF2
:104F0000FEF76CFB0020A8E7180000202DE9F04117
:104F100004460D46002700BF0CB9012000E0002028
:104F200018B140F24C40BDE8F08100BF00BFFEF771
:104F300031FB08B1012000E0002010B14FF4C8702F
:104F4000F1E700BF4DF6D121201DFEF73FFB10B960
:104F500040F24D40E7E7092D01DB012000E0002091
:104F600010B140F26E70DEE700BFFFF735FB074679
:104F700000BF607DA84208D100BF3846FFF726FB7E
:104F800000BFFEF72BFB0020CDE704F13800FFF750
:104F900051FC40B92046FFF728F80646B54202DD2D
:104FA00084F84050354600BF207D00F0020020B15B
:104FB00065752046FEF7C9FC19E000BF207D00F0B2
:104FC000010008B1657512E02046FFF751F870B195
:104FD0002046FEF757FE657509480068844203D1F4
:104FE0002046FEF787FD02E02046FEF79DFD00BF4C
:104FF0003846FFF7EBFA00BFFEF7F0FA002092E721
:105000001800002010B50024FEF7C4FA00B110BD4E
:1050100000BFFFF7E1FA044600BF08480068FEF74A
:1050200031FE06480068FEF77FFD00BF2046FFF70F
:10503000CDFA00BFFEF7D2FA00BFE8E71800002063
:1050400010B5FFF74BFB08B9012000E0002000B1CC
:1050500010BD01200021FFF793F9FFF771FA034912
:105060000968487DFEF76EFE00BFF1E718000020DA
:105070000000000000000000010203040607080908
:105080000000000001020304A0860100400D03009F
:10509000801A060000350C0040420F0080841E007C
:1050A00000093D0000127A000024F40000366E0171
:1050B0000048E801006CDC026801002000020000EA
:1050C000E050000800000020680000008A26000868
:1050D0004851000868000020588000009A26000807
:1050E00000093D000000000000000000000000007A
:1050F00000000000000000000000000000000000B0
:10510000E803000000000000000000002C00002068
:105110002C000020640000000100000000000000DE
:10512000FFFFFFFFFFFFFFFF4800002048000020B7
:10513000500000205000002000000000000000008F
:08514000000000000000000067
:040000050800018D61
:00000001FF
