:020000040800F2
:1000000010990020DD0100084D0F00084F0F000877
:10001000510F0008530F0008550F000800000000A2
:100020000000000000000000000000004501000882
:10003000570F00080000000089010008590F000850
:10004000F7010008F7010008F7010008F7010008B0
:10005000F7010008F7010008F7010008F7010008A0
:10006000F7010008F7010008F7010008F701000890
:10007000F7010008F7010008F7010008F701000880
:10008000F7010008F7010008F7010008F701000870
:10009000F7010008F7010008F7010008F701000860
:1000A000F7010008F7010008F7010008F701000850
:1000B000F7010008F7010008F7010008F701000840
:1000C000F7010008F7010008F7010008F701000830
:1000D000F7010008F7010008F7010008F701000820
:1000E000F7010008F7010008F7010008F701000810
:1000F000F7010008F7010008F7010008F701000800
:10010000F7010008F7010008F7010008F7010008EF
:10011000F7010008F7010008F7010008F7010008DF
:10012000F7010008F7010008F7010008F7010008CF
:10013000DFF80CD003F0D6FF004800470D0E000892
:1001400010990020224B19680868B0E8F00F80F37E
:100150000988BFF36F8F4FF0000080F311884EF0D5
:100160000D0E70470000000006480068006880F32C
:10017000088862B661B6BFF34F8FBFF36F8F00DFA1
:1001800000BF00BF08ED00E0EFF30980BFF36F8F01
:100190000F4B1A6820E9F00F106008B54FF05000BF
:1001A00080F31188BFF34F8FBFF36F8F02F01AF9FE
:1001B0004FF0000080F31188BDE808401968086816
:1001C000B0E8F00F80F30988BFF36F8F704700BF6E
:1001D00034000020EFF30580704700000648804798
:1001E00006480047FEE7FEE7FEE7FEE7FEE7FEE71C
:1001F000FEE7FEE7FEE7FEE7A9020008310100087E
:100200000CB50022019200925248016841F48031FD
:1002100001604FF4A063016801F40031009101997D
:10022000491C0191009911B901999942F3D10168D2
:10023000890302D50121009100E000920099012973
:1002400030D145490A6842F010020A600A6822F07B
:1002500003020A600A6842F002020A6041684160D3
:1002600041684160416841F480614160416821F426
:100270007C114160416841F4E8114160016841F03E
:100280008071016001688901FCD5416821F003019A
:100290004160416841F0020141604168C1F3810160
:1002A0000229FAD10CBDABE710B52A48016841F02C
:1002B000010101604168294A114041600168284AF2
:1002C00011400160016821F480210160416821F43E
:1002D000FE0141604FF41F018160FFF7E4FF2149F7
:1002E0004FF00060086010BD10B51A4A506800F069
:1002F0000C011D4B1D4800290ED004290ED00829E1
:100300000ED003605168194AC1F30311121D515CEC
:100310000268CA40026010BD0360F3E70360F1E7C2
:10032000516801F47011536803F48033022404EB24
:10033000914133B153689B0307D50D4B594301607D
:10034000E0E70B4B59430160DCE7074B5943016081
:10035000D8E7000000100240002002400000FFF833
:10036000FFFFF6FE08ED00E000127A00000000201A
:1003700000093D002A4908432A490860704770B5C2
:100380000F23C27801260178002A1ED0254A126860
:1003900002F4E062C2F5E062120AC2F10404D34042
:1003A0004578A54082781A402A43120101F1E021E4
:1003B00081F80024007800F01F018E404009800081
:1003C00000F1E020C0F8006170BD01F01F00864020
:1003D0004809800000F1E020C0F8806170BD124A39
:1003E000114001430F48001F016070470D4A121D64
:1003F000002903D0116801431160704711688143DF
:10040000116070474FF0E021042804D0086920F003
:10041000040008617047086940F0040008617047F3
:100420000000FA050CED00E080FFFF1F10B59C49AD
:10043000884209D10121042000F07DFA0021BDE8A5
:100440001040042000F077BA9649884209D1012172
:10045000082000F070FA0021BDE81040082000F0EC
:100460006ABA9149884209D10121102000F063FA4B
:100470000021BDE81040102000F05DBA8B49884291
:1004800009D10121202000F056FA0021BDE81040DA
:10049000202000F050BA8649884209D1012140202D
:1004A00000F049FA0021BDE81040402000F043BAB6
:1004B0008049884209D10121802000F03CFA0021C6
:1004C000BDE81040802000F036BA7B4988420AD14E
:1004D00084150121204600F02EFA2046BDE8104088
:1004E000002100F028BA10BD10B50121084600F027
:1004F00022FA0021BDE81040012000F01CBA2DE9CD
:10050000F0410022CC7804F00F03E40601D58C788A
:1005100023430C784FF00F0714F0FF0F4FF0010C3E
:100520001CD005680CFA02F40E882640A64211D1B0
:10053000960007FA06F825EA080503FA06F848EADD
:100540000505CE78282E02D0482E02D002E0446164
:1005500000E00461521C082AE4D305600A88FF2ADF
:100560001ED94568002202F108060CFA06F40E882E
:100570002640A64210D1960007FA06F825EA08059B
:1005800003FA06F848EA0505CE78282E00D1446122
:10059000CE78482E00D10461521C082AE3D345606E
:1005A000BDE8F0814FF6FF710180022181700421C6
:1005B000C17070470246002092680A4200D00120B4
:1005C0007047806880B2704702460020D2680A42B5
:1005D00000D001207047C06880B270470161704749
:1005E00041617047002A01D0016170474161704745
:1005F000C160704741F480328261816182618169AA
:100600008069704710B52D4B1A684FF680742240F0
:1006100042EA00100843186010BD2949C8617047BC
:10062000F0B5264C002801DAE36900E06368C0F306
:100630000346420D120185B2C0F301579540032FC6
:1006400007D0C2020CD50322B240934343F070623C
:1006500009E023F07062636823F07063636002E076
:10066000AB4343F0706201B12A43002801DAE26132
:10067000F0BD6260F0BD10B58A07120F0F239340E2
:1006800021F003040D4921448C689C438C608B68E5
:10069000904003438B6010BD0949DC31086070470E
:1006A00000080140000C014000100140001401400E
:1006B00000180140001C01400020014000000140E2
:1006C00000002042B448016841F001010160416826
:1006D000B24A114041600168B14A114001600168AD
:1006E00021F480210160416821F4FE0141604FF452
:1006F0001F0181607047A8490A6822F480320A60AD
:100700000A6822F480220A60B0F5803F07D0B0F575
:10071000802F03D1086840F4A02008607047086863
:1007200040F48030086070470346002059099A4A17
:1007300001290AD002290AD0516A03F01F020123BD
:1007400093400B4200D0012070471168F5E7116A11
:10075000F3E718B5002000904FF4A0643120FFF7B4
:10076000E3FF0099491C00910099A14201D00028A3
:10077000F4D03120FFF7D8FF08B1012018BD0020C8
:1007800018BD854A116821F0F80141EAC0001060E7
:1007900070478449086070477F4B5A6822F47C1286
:1007A00008431043586070477E49086670477A4A8C
:1007B000516821F003010143516070477648406859
:1007C00000F00C007047744A516821F0F0010143B9
:1007D00051607047704A516821F4E06101435160F3
:1007E00070476D4A516821F4605141EAC000506081
:1007F0007047694A002903D0517A0143517270470A
:10080000517A8143517270476649D8310860704708
:10081000614A516821F440410143516070475E498B
:10082000002220310A7001F82029012805D004286F
:1008300002D1052081F820007047012081F82000B6
:10084000704759490860704753490A6A02430A626F
:100850007047554944390860704710B54E4A516891
:1008600001F00C01514B002927D0042927D0082979
:1008700027D00360516801F0F00109094C4B5C5C22
:100880000168E1404160546804F4E064240A1C5D9E
:1008900021FA04F48460546804F46054E40A1B5D93
:1008A000D940C160526802F44042920B404B1B1F7A
:1008B0009A5CB1FBF2F1016110BD0360DAE70360FD
:1008C000D8E7516801F47011536803F480330224AF
:1008D00004EB914133B153689B0307D5354B594322
:1008E0000160C7E7334B59430160C3E72F4B5943BE
:1008F0000160BFE7284A002903D0516901435161D3
:1009000070475169814351617047234A002903D0E0
:100910009169014391617047916981439161704789
:100920001D4A002903D0D1690143D1617047D169C3
:100930008143D1617047184A002903D0D16801432F
:10094000D1607047D1688143D1607047124A002955
:1009500003D011690143116170471169814311612D
:10096000704711494039086070470E49C8647047A4
:100970000949C87170470848416A41F08071416275
:10098000704701460020044A92680A4200D00120C4
:100990007047014988727047001002400000FFF85C
:1009A000FFFFF6FE000042428004424200127A003D
:1009B0001800002000093D0010B5E14988420AD125
:1009C00001218C032046FFF7B6FF2046BDE810400A
:1009D0000021FFF7B0BFDB4988420AD101214C0456
:1009E0002046FFF7B3FF2046BDE810400021FFF787
:1009F000ADBFD54988420AD101218C042046FFF7BA
:100A0000A5FF2046BDE810400021FFF79FBFCF495A
:100A100088420AD10121CC042046FFF797FF2046E7
:100A2000BDE810400021FFF791BFC94988420AD1B3
:100A300001210C052046FFF789FF2046BDE8104044
:100A40000021FFF783BF10BD30B585B004460D46C9
:100A5000208A4CF6FF710840E98801432182A08971
:100A60004EF6F3110840A9882A8911436A89024386
:100A70001143A181A08A4FF6FF410840A989014393
:100A8000A1826846FFF7E9FEAD48844201D1039890
:100A900000E00298A189090408D500EBC00101EB30
:100AA000001029684900B0FBF1F007E000EBC0013D
:100AB00001EB001029688900B0FBF1F06422B0FB63
:100AC000F2F109010B096FF018056B4300EB83008D
:100AD000A3891D044FF0320307D503EBC000B0FB20
:100AE000F2F000F00700084306E003EB0010B0FB53
:100AF000F2F000F00F000843208105B030BD4FF444
:100B00001651016000218180C18001810C22428147
:100B10008181704710B5038A4FF2FF0213400A88A3
:100B20004C8822438C88C9880C4322431A43028292
:100B300010BD0021018041808180C1807047002963
:100B400004D0818941F4005181817047818921F469
:100B500000518181704710B540F66A13C1F342130A
:100B600001F01F040121A140012B07D0022B07D067
:100B700014303AB102680A43026010BD0C30F8E745
:100B80001030F6E702688A43026010BD002A03D0E5
:100B9000828A0A4382827047828A8A4382827047AD
:100BA000028A22F00F020282028A0A4302827047FE
:100BB000828922F40062828182890A43828170479D
:100BC000002904D0818941F0020181817047818927
:100BD00021F0020181817047028A22F02002028204
:100BE000028A0A4302827047002904D0018A41F434
:100BF000804101827047018A21F48041018270475F
:100C0000C1F30801818070478088C0F308007047F5
:100C1000818941F0010181817047028BD2B2028348
:100C2000028B42EA012101837047028B02F47F426A
:100C30000283028B0A4302837047002904D0818A11
:100C400041F0200181827047818A21F02001818258
:100C50007047002904D0818A41F0100181827047D9
:100C6000818A21F0100181827047002904D0818A95
:100C700041F0080181827047818A21F00801818258
:100C80007047002904D0818941F400418181704777
:100C90008189C1F30E0181817047002904D0818AC6
:100CA00041F4006181827047818A21F40061818270
:100CB0007047828A22F004028282828A0A438282F8
:100CC0007047002904D0818A41F002018182704777
:100CD000818A21F002018182704702460020128839
:100CE0000A4200D0012070478A05C943018070473D
:100CF00070B5002440F66A12C1F3421301F01F05DB
:100D0000012606FA05F2012B0CD0022B0DD0838AA6
:100D10001340090A8E40008830400BB100B1012415
:100D2000204670BD83891340F3E7038A1340F0E740
:100D300040F66A120A0A01219140C94301807047B6
:100D4000003801400044004000480040004C004092
:100D500000500040142001F071FAFBE73A4D2024C6
:100D60004FF4FA762F1F2C6038A003F018F903F027
:100D700078F9804603F073F90146424637A003F044
:100D80000EF93CA003F00BF93CA003F008F9304643
:100D900001F054FA3C60304601F050FAE3E71CB52C
:100DA00002F094FC022137480C02CDE90010002328
:100DB000224635A1374801F04FF8012802D136A06C
:100DC00003F0A2F92F480321001DCDE900100023F4
:100DD000224637A1394801F03FF8012802D138A056
:100DE00003F092F92748001F006801F07EF8BDE883
:100DF0001C4002F085BC10B54FF44070FFF7BAFA02
:100E000000F0B4F8BDE8104000F0E0B81CB5FFF702
:100E1000F2FF03F0AAF830A003F076F93DA003F04A
:100E200073F918480121001FCDE900104A02002380
:100E300041A1454801F010F8012802D04FF0FF30E1
:100E40001CBD01F01DFCFEE7140C01401B0A5B33C6
:100E5000316D5B455D203E3E200000005B54533AFF
:100E600020256C645D205B5441523A2025735D203F
:100E7000000000006162630A000000001B5B306D2F
:100E8000000000002C0000204C45445F5461736B4F
:100E9000000000005D0D0008B4B4BDA84C45445FDF
:100EA0005461736BC8CECEF1B3C9B9A6210D0A0047
:100EB0004B45595F5461736B00000000550D0008ED
:100EC000B4B4BDA84B45595F5461736BC8CECEF125
:100ED000B3C9B9A6210D0A00D5E2CAC7D2BBB8F67C
:100EE0005BD2B0BBF05D2D53544D3332C8ABCFB5A0
:100EF000C1D0BFAAB7A2B0E52D4672656552544F66
:100F000053C8CECEF1B9DCC0EDCAB5D1E9A3A10A70
:100F10000A000000B0B4CFC24B455931B9D2C6F077
:100F2000C8CECEF1A3ACB0B4CFC24B455932BBD67C
:100F3000B8B4C8CECEF10A004170705461736B43EF
:100F400072656174650000009F0D00087047FEE740
:100F5000FEE7FEE7FEE7704710B501F01CFD012833
:100F600003D0BDE8104002F0DEBB10BD38B5012152
:100F70000820FFF7CAFC2020ADF8000010208DF8F3
:100F8000030003208DF802000F4C69462046FFF74E
:100F9000B6FA0121ADF8001069462046FFF7AFFA16
:100FA0000221ADF8001069462046FFF7A8FA20217B
:100FB0002046FFF713FB01212046FFF70FFB02211C
:100FC0002046FFF70BFB38BD000C014010B586B082
:100FD00001210420FFF799FC01218803FFF795FC0C
:100FE0004FF40070ADF8140018208DF8170003209E
:100FF0008DF816004D4C05A92046FFF780FA211503
:10100000ADF8141004218DF8171005A92046FFF73C
:1010100076FA4FF4E13001900020ADF80800ADF809
:101020000A00ADF80C00ADF810000C20ADF80E0071
:101030003F4C01A92046FFF707FD01212046FFF79D
:101040007EFD06B010BD10B504462046FFF7D8FD62
:1010500080212046FFF741FE0028F9D010BD2DE980
:10106000F04107460D461646002405E0295D384646
:10107000FFF7E9FF641CE4B2B442F7D340213846DD
:10108000FFF72BFE0028F9D0BDE8F08170B50646C9
:101090000D4600243046295DFFF7D5FF641C285D0E
:1010A0000028F7D140213046FFF717FE0028F9D07D
:1010B00070BD70B50546080ACCB201462846FFF758
:1010C0009FFD80212846FFF708FE0028F9D0214621
:1010D0002846FFF795FD80212846FFF7FEFD0028F2
:1010E000F9D070BD70B50446114DE1B22846FFF746
:1010F00087FD80212846FFF7F0FD0028F9D0204623
:1011000070BD10B50A4C20212046FFF7E6FD0028EF
:10111000F9D02046BDE81040FFF776BD10B50C466B
:1011200001460348FFF7B2FF204610BD000801400A
:101130000038014000F1080141604FF0FF32826049
:10114000C1600161002101607047002101617047A9
:1011500042684A6093688B60936859609160086147
:101160000168491C0160704730B50C68621C02D0F0
:1011700000F1080202E0026904E01A4653681D68A3
:10118000A542FAD953684B6099608A605160086142
:101190000168491C016030BD0169D0E901329A60E3
:1011A000D0E901235A604A68824201D182684A60CC
:1011B000002202610868401E0860704770B504464E
:1011C0000D46002C05D140F21B12F1A1F7A002F050
:1011D0009BFF02F07BFAD4E90F20216802FB00118B
:1011E00061600021A1632168A160E06B2268216C2D
:1011F000401E00FB0121E1604FF0FF3084F8440005
:1012000084F8450004F110004DB1FFF793FF04F19D
:101210002400FFF78FFF02F073FA012070BD2169EF
:101220000029F8D001F0E6FA0028F4D0E3494FF0A5
:1012300080500860BFF34F8FBFF36F8FEBE710B59F
:10124000029C002909D02260E0632164012120462C
:10125000FFF7B4FF0020A06410BD2460F4E7F8B5E8
:1012600005460E461746002D05D14FF4C472C8A19D
:10127000CEA002F049FF86B105FB06F04C3002F02B
:10128000FAF804463CB104F14C023B46314628468C
:101290000094FFF7D4FF2046F8BD0020EEE72DE9CB
:1012A000F041044617460026A56B226C002A10D098
:1012B000C7B1E06802F0DCFEE168206C091AE16069
:1012C0002268914202D26168081AE060022F16D0AB
:1012D00017E02068A8B9606801F0A8FB0646002066
:1012E00060600EE0A06802F0C3FE216CA0680844B4
:1012F000A0606168884204D32068A06001E005B165
:101300006D1E6D1CA5633046BDE8F0812DE9F341EB
:101310000F460098846C0026002C05D140F6CE12B2
:101320009BA1A2A002F0F0FEA06BE16B884205D366
:1013300040F6CF1296A19DA002F0E6FEA06BE16BF5
:1013400088420CD294F945503A4669462046FFF748
:10135000A6FF0646681C05D06D1C84F84550304633
:10136000BDE8FC81606A0028F9D004F1240001F096
:1013700041FA0028F3D00126F1E72DE9F0410446B7
:1013800002F0A4F994F9455004F1240613E0A06C8E
:1013900038B100212046FFF7B9FF50B101F0F4FA4F
:1013A00007E0606A48B1304601F024FA08B101F064
:1013B000EBFA6D1E6DB2002DE9DC4FF0FF3684F8BC
:1013C000456002F09DF902F081F994F9445004F16E
:1013D000100709E0206948B1384601F00BFA08B15E
:1013E00001F0D2FA6D1E6DB2002DF3DC84F844607A
:1013F000BDE8F04102F084B910B5044602F066F988
:10140000A06BE16B884201D1012400E0002402F0CE
:1014100077F9204610BD2DE9FF4782B004468A4681
:1014200098460025002C05D140F2D92258A15FA092
:1014300002F06AFEBAF1000F07D1206C28B140F229
:10144000DA2253A159A002F05FFEB8F1020F08D1D1
:10145000E06B012805D040F2DB224DA153A002F041
:1014600053FE01F098FA38B9049828B140F2DE2210
:1014700047A14EA002F048FE4FF000094FF0805601
:101480004E4F02F023F9A06BE16B884206D3B8F10E
:10149000020F03D0049860B37DB333E04246514657
:1014A0002046FFF7FCFEA16C51B141462046FFF7F4
:1014B0002DFFC0B13E60BFF34F8FBFF36F8F12E0BF
:1014C000616A51B104F1240001F094F958B13E6011
:1014D000BFF34F8FBFF36F8F05E020B13E60BFF3C6
:1014E0004F8FBFF36F8F02F00BF9012006B0BDE8FC
:1014F000F08702F005F90020F8E7FFE7684601F001
:10150000EBF9012502F0FCF800F04BFE02F0DEF8EA
:1015100094F94400401C01D184F8449094F94500AA
:10152000401C01D184F8459002F0EAF804A968460D
:1015300001F0E4F930B12046FFF71FFF00F082FD13
:101540000020D3E72046FFF757FF88B104F11000D1
:10155000049901F0F3F82046FFF70FFF00F072FD49
:1015600000288ED13E60BFF34F8FBFF36F8F88E7A7
:101570002046FFF702FF00F065FD82E700281FD03C
:10158000002141600160C16000231A46194642E70C
:101590002E2E5C2E2E5C4672656552544F535C7342
:1015A00072635C71756575652E6300004572726FBC
:1015B000723A25732C25640D0A00000004ED00E04A
:1015C000704710B5024600210120FFF748FE04468F
:1015D0002046FFF7D3FF204610BD10B50446002C6F
:1015E00007D140F24122AFF25801AFF2400002F0C1
:1015F0008BFD01F0CDF9616888420BD1E068401E97
:10160000E06028B900231A4619462046FFF703FF79
:10161000012010BD002010BD10B5044602F056F8A0
:10162000A06B20B1002402F06BF8204610BD01240D
:10163000F9E730B40B46026C002A0CD0C1681144A3
:10164000C1604468A14201D30168C160C16830BC77
:10165000184602F00DBD30BC70472DE9FF4F83B036
:1016600004468A469B460026002C07D140F2DC4205
:10167000AFF2E401AFF2CC0002F046FDBAF1000F88
:1016800009D1206C38B140F2DD42AFF2FC01AFF27B
:10169000E40002F039FD01F07EF948B9059838B14F
:1016A0004FF49C62AFF21811AFF2001002F02CFD63
:1016B0004FF000094FF08057DFF8448602F006F83B
:1016C000A56B95B3E66851462046FFF7B2FFBBF124
:1016D000000F13D0E660606A50B104F1240001F0FD
:1016E00089F828B1C8F80070BFF34F8FBFF36F8F30
:1016F00002F006F8012007B0BDE8F08F6D1EA5636B
:10170000206810B901F0E4F9606020690028EFD08A
:1017100004F1100001F06EF80028E9D0C8F800705C
:10172000BFF34F8FBFF36F8FE2E7FFE7059808B174
:1017300026B107E001F0E4FF0020DCE701A801F09A
:10174000CBF8012601F0DCFF00F02BFD01F0BEFF1D
:1017500094F94400401C01D184F8449094F9450068
:10176000401C01D184F8459001F0CAFF05A901A8E9
:1017700001F0C4F858B12046FFF7FFFD00F062FC0D
:101780002046FFF749FF002898D00020B3E7204605
:10179000FFF742FFE0B1206830B901F097FF6068C1
:1017A00001F005F901F0ACFF04F12400059900F007
:1017B000C5FF2046FFF7E1FD00F044FC00287FF460
:1017C0007DAFC8F80070BFF34F8FBFF36F8F75E721
:1017D0002046FFF7D2FD00F035FC6FE770B50446F8
:1017E0000D46002C07D14FF41E72AFF25C21AFF210
:1017F000442002F089FC01F0CBF86368984204D1E0
:10180000E068401CE060012070BD00232A461946B4
:101810002046FFF722FF0028F6D0E168491CE1606E
:1018200070BD70B505460C46002D07D140F2BD22B3
:10183000AFF2A421AFF28C2002F066FCAC4207D9D3
:1018400040F2BE22AFF2B821AFF2A02002F05CFC61
:10185000022200212846FFF702FD002800D0846301
:1018600070BD2DE9F0470446894615469846002C80
:1018700007D140F29F32AFF2E821AFF2D02002F060
:1018800043FCB9F1000F09D1206C38B14FF46872F4
:10189000AFF20431AFF2EC2002F036FCB8F1020FE7
:1018A0000AD1E06B012807D040F2A132AFF220311B
:1018B000AFF2083002F028FC01F049FF5020EFF3AE
:1018C000118780F31188BFF34F8FBFF36F8FA06B29
:1018D000E16B884206D3B8F1020F03D0002087F3F2
:1018E000118804E694F94560424649462046FFF7D0
:1018F000D6FC701C04D0761C84F845600120EEE70D
:10190000A06C012648B141462046FFF7FFFC0028A5
:10191000F4D0002DF2D02E60F0E7606A0028EDD000
:1019200004F1240000F066FF0028E7D0002DE5D088
:101930002E60E3E72DE9F04104460D46002C07D167
:1019400040F23C42AFF2B831AFF2A03002F0DCFB23
:10195000206C38B14FF48862AFF2CC31AFF2B430C2
:1019600002F0D2FB206848B9606838B140F24542C5
:10197000AFF2E431AFF2CC3002F0C6FB01F0E7FE8B
:101980005020EFF3118680F31188BFF34F8FBFF320
:101990006F8FA16BE06B884224D994F94500491CF4
:1019A000A163411C04D0401C84F8450001201AE0CA
:1019B000A06C012748B100212046FFF7A7FC0028B2
:1019C000F4D0002DF2D02F60F0E7606A0028EDD04F
:1019D00004F1240000F00EFF0028E7D0002DE5D030
:1019E0002F60E3E7002086F311888DE42DE9F047AE
:1019F000044689469046002C07D14FF4B462AFF2FA
:101A00007041AFF2584002F07FFBB9F1000F09D1ED
:101A1000206C38B140F2A152AFF28C41AFF2744069
:101A200002F072FB01F093FE5020EFF3118780F378
:101A30001188BFF34F8FBFF36F8FA66BF6B194F988
:101A4000445049462046FFF7F4FD761EA663681C05
:101A500004D06D1C84F84450012010E02069002857
:101A6000FAD004F1100000F0C5FE0028F4D0B8F15F
:101A7000000FF1D00120C8F80000EDE7002087F347
:101A8000118834E52DE9F04104460F46002C07D1BA
:101A900040F2FC52AFF20851AFF2F04002F034FBDA
:101AA0004FB9206C38B140F2FD52AFF21C51AFF289
:101AB000045002F029FB206C38B940F2FE52AFF21C
:101AC0003051AFF2185002F01FFB01F040FE5020E1
:101AD000EFF3118580F31188BFF34F8FBFF36F8F42
:101AE000A06B38B1E66839462046FFF7A2FDE660F4
:101AF000012000E0002085F3118805E410B50446BC
:101B0000002C07D140F22F62AFF27C51AFF264504B
:101B100002F0FAFA01F0DAFDA46B01F0F1FD2046C3
:101B200010BD10B50446002C07D140F24162AFF25F
:101B3000A051AFF2885002F0E7FA01F0C7FDD4E9F6
:101B40000E10441A01F0DCFD204610BD10B504460D
:101B5000002C07D140F25162AFF2CC51AFF2B45039
:101B600002F0D2FAA06B10BD0021664A02EBC1035D
:101B70005B68834206D1002042F8310002EBC101CC
:101B800048607047491C0A29F0D3704710B50446D5
:101B9000002C07D140F25D62AFF20C61AFF2F4505D
:101BA00002F0B2FA2046FFF7DFFF2046BDE8104002
:101BB00001F0C8BC10B50446002C07D140F2937266
:101BC000AFF23461AFF21C6002F09EFAA06B08B174
:101BD000002010BD012010BD10B50446002C07D117
:101BE00040F2BA72AFF25861AFF2406002F08CFA84
:101BF000A06BE16B884201D1012010BD002010BD17
:101C000010B500223F4B53F832401CB1521C0A2A37
:101C1000F9D310BD43F8321003EBC201486010BD88
:101C200010B500240021374A02EBC1035B688342F0
:101C300002D152F8314002E0491C0A29F4D320466F
:101C400010BD70B504460D46164601F03FFD94F9EF
:101C500044304FF000005B1C01D184F8440094F93B
:101C60004510491C01D184F8450001F049FDA06BE5
:101C700028B93246294604F1240000F09FFD204691
:101C8000BDE87040FFF779BB00220421FFF7E7BAF7
:101C900070B504460D4601F019FDA06C08B1002492
:101CA00005E0A06B08B1002401E0A564012401F067
:101CB00027FD204670BD10B50446A06C884201D0B7
:101CC000002010BDA06B08B1002010BD01F0FEFC8B
:101CD0000020A06401F014FD012010BD08B5002310
:101CE00000930A466946FFF7B8FC009808BD08B59E
:101CF0000021009100226946FFF778FE009808BD98
:101D000004ED00E0B000002070B50024FC4D04EBB1
:101D1000840005EB8000FFF70DFA641C202CF6D33D
:101D2000F848FFF707FAF7481430FFF703FAF548C9
:101D30002830FFF7FFF9F3483C30FFF7FBF9F14893
:101D40005030FFF7F7F9F048EE49416314318163F1
:101D500070BD70B5044601F0B9FCEB4DA868401C9D
:101D6000A860286810B1686938B10CE02C60A868D8
:101D7000012808D1FFF7C8FF05E02868E16AC06ABA
:101D8000884200D82C60686A401C6862E06A0121C1
:101D90002A69814011432961D94900EB800001EB98
:101DA0008000211DFFF7D4F901F0AAFC6869002822
:101DB0000CD02868E16AC06A884207D2D3494FF044
:101DC00080500860BFF34F8FBFF36F8F70BD2DE958
:101DD000F0478146DDE908580A9C0E469A46206B7A
:101DE000521E00EB820020F00707780705D040F272
:101DF0002B32C7A1CDA002F087F900202218315C58
:101E000082F83410315C11B1401C1028F6D3002642
:101E100084F84360202D00D31F25E5626564A66425
:101E2000201DFFF792F904F11800FFF78EF92461E5
:101E3000C5F12000A0616462E66484F850605246F7
:101E40004946384601F0E9FB2060B8F1000F01D0A7
:101E5000C8F80040BDE8F0872DE9FF5F8146DDE965
:101E60000E788A4616469B46B00001F004FB0546F4
:101E700028000AD0542001F0FEFA04460CB1256374
:101E800004E0284601F05EFB00E000248CB1002055
:101E9000CDE90240CDE900785B46324651464846DE
:101EA000FFF795FF2046FFF754FF012004B0BDE87F
:101EB000F09F4FF0FF30F9E79348416B0968002924
:101EC00005D0416BC968C9684968816270474FF0A5
:101ED000FF318162704710B50446206B01F032FB80
:101EE0002046BDE8104001F02DBB70B5044601F05E
:101EF000EDFB854D04B92C68201DFFF74DF958B94D
:101F0000E06A7F4A00EB800152F8211021B90121DB
:101F10008140286988432861A06A18B104F118003B
:101F2000FFF73AF9686A401C68622868844208D161
:101F30007448211D3C30FFF70BF96868401C68604D
:101F400007E0A868401EA8602046FFF7C4FFFFF71F
:101F5000B3FF01F0D5FB6869002812D028688442DD
:101F60000FD1286B28B140F2654269A16FA002F041
:101F7000CBF866494FF080500860BFF34F8FBFF336
:101F80006F8F70BD2DE9F04100265F4F386B002840
:101F900008D0B869401CB861F86900B10126304624
:101FA000BDE8F081FD686D1CFD608DB9786B00683F
:101FB00028B140F6D91256A15CA002F0A5F8786BC2
:101FC000B96B7963B863386A401C3862FFF774FFF5
:101FD000B86ADFF82C8185420DD3786B006838B180
:101FE000786BC068C468606885420ED2B86202E04F
:101FF0004FF0FF30B8623868C06A00EB800058F8D4
:1020000020000128C8D90126C6E7201DFFF7C4F823
:10201000A06A18B104F11800FFF7BEF8E06A0121C8
:102020003A6981401143396100EB800008EB800080
:10203000211DFFF78DF8E06A3968C96A8842CCD360
:102040000126CAE72DE9F041002400272E4D286B18
:10205000002805D14FF4FD622DA134A002F054F800
:1020600001F034FB286B401E2863286BF0BBA86886
:10207000E0B3DFF89080012608F128081DE0D8F8C9
:102080000C00C46804F11800FFF786F8201DFFF764
:1020900083F8E06A2A6906FA00F1114329611849B8
:1020A00000EB800001EB8000211DFFF751F8E06A92
:1020B0002968C96A884200D3EE61D8F80000002878
:1020C000DDD10CB1FFF7F8FEAC6944B1FFF75AFF60
:1020D00000B1EE61641E002CF8D10020A861E8690F
:1020E00020B1012709493807086000E003E0BFF389
:1020F0004F8FBFF36F8F01F003FB384650E70000AE
:1021000000010020800300203400002004ED00E0E6
:102110002E2E5C2E2E5C4672656552544F535C73B6
:1021200072635C7461736B732E6300004572726F2F
:10213000723A25732C25640D0A0000002DE9F04148
:1021400004460F46FE4EF5683068001DFFF724F880
:1021500038B9306890F82C100120884031698143EB
:102160003161601C07D137B13168BDE8F041091D0C
:10217000F448FEF7EDBF2C4430684460AC4206D210
:102180003168B06B091DBDE8F041FEF7EDBF316865
:10219000706B091DFEF7E8FFB06A844200D2B4629A
:1021A000FEE6E748016B491C016370472DE9F041E9
:1021B00005460E460024002D07D140F27942AFF2C9
:1021C000B001AFF2980001F09FFF3EB940F27A42B1
:1021D000AFF2C401AFF2AC0001F096FFD84F386BFC
:1021E00038B140F27B42AFF2D801AFF2C00001F04B
:1021F0008BFFFFF7D6FFFA682B689919934205D930
:102200008B4208D9914206D9012404E08B4201D8BF
:10221000914200D9012429601CB1881A0021FFF7DE
:102220008DFFFFF70FFF002807D1C7494FF08050FF
:102230000860BFF34F8FBFF36F8FB1E610B5044650
:102240000020002C12D0BE48006B38B140F2CF42C3
:10225000AFF24411AFF22C1001F056FFFFF7A1FFCF
:1022600000212046FFF76AFFFFF7ECFE002807D1A8
:10227000B5494FF080500860BFF34F8FBFF36F8FA9
:1022800010BD70B50546002D07D140F2FB42AFF2FC
:102290008011AFF2681001F037FFA94E3068854217
:1022A00001D1002070BD01F011FA6C6901F028FA2B
:1022B000706B844202D0B06B844201D1022070BDA9
:1022C000A048844205D1A86A08B1022070BD03204D
:1022D00070BD9C481438844202D00CB1012070BDFE
:1022E000042070BD10B5044601F0F0F90CB9944813
:1022F0000468E46A01F004FA204610BD10B50446F3
:1023000001F025FA5020EFF3118180F31188BFF31B
:102310004F8FBFF36F8F0CB989480468E06A81F36F
:10232000118810BD2DE9F04104460D460026202DF0
:1023300007D34FF4B062AFF22821AFF2102001F0C2
:10234000E3FE202D00D31F2501F0C0F97C4F04B916
:102350003C68606CA84241D0854208D939688C42FB
:1023600009D03968C96AA94205D8012603E039684D
:102370008C4200D10126D4F82C80404500D1E56282
:102380006564A069002802DBC5F12000A0616F4DE3
:1023900008EB8801606905EB8101884215D1201D99
:1023A000FEF7FAFE012120B93A6901FA08F08243EA
:1023B0003A61E06A3A6981401143396100EB80007B
:1023C00005EB8000211DFEF7C3FE3EB15E494FF0D4
:1023D00080500860BFF34F8FBFF36F8FBDE8F041AF
:1023E00001F08EB970B5564D286B002802D001203F
:1023F000E86170BD0020E8612869B0FA80F0C0F1A2
:102400001F00524E00EB800456F8240038B940F605
:10241000F622AFF20431AFF2EC2001F075FE06EBCC
:10242000840041684968416000F10802914201D18D
:10243000496841604068C068286070BD70B5044656
:1024400001F044F93E4D04B92C68201DFEF7A4FEAE
:1024500058B9E06A3D4A00EB800152F8211021B9D9
:1024600001218140286988432861A06A18B104F1DC
:102470001800FEF791FE211D3248FEF769FE01F0BB
:102480003FF9686928B101F021F9FFF715FD01F066
:1024900037F92868844213D1686990B1286B38B144
:1024A00040F25762AFF29831AFF2803001F02CFE6B
:1024B00025494FF080500860BFF34F8FBFF36F8FF7
:1024C00070BD2048A9680068884202D100202860B9
:1024D00070BDBDE8704085E770B500250446002852
:1024E00007D140F28162AFF2D831AFF2C03001F0D3
:1024F0000BFE14496069884205D1A06A28398842D8
:1025000001D000B90125284670BD70B504460028E9
:1025100007D140F2AB62AFF20841AFF2F03001F008
:10252000F3FD002C35D0064D2868844231D001F0EF
:10253000CDF82046FFF7D0FF38B3201D08E000009B
:1025400034000020D003002004ED00E00001002052
:10255000FEF722FEE06A01212A69814011432961C8
:10256000F94900EB800001EB8000211DFEF7F0FD32
:10257000E06A2968C96A884207D3F4494FF080505D
:102580000860BFF34F8FBFF36F8FBDE8704001F05D
:10259000B7B870BD2DE9F04100260446002807D1E8
:1025A00040F2E262AFF29841AFF2804001F0ACFD40
:1025B00001F0CDF85020EFF3118580F31188BFF3BF
:1025C0004F8FBFF36F8F2046FFF786FF38B1E04F84
:1025D000386B40B104F11801DE48FEF7B9FD85F310
:1025E00011883046DCE4E06A3968C96A884200D361
:1025F0000126201DFEF7D0FDE06A01213A698140E5
:1026000011433961D04900EB800001EB8000211DAE
:10261000FEF79EFDE3E770B5CE4ECD4D14361CE0BF
:10262000FFF7BFFD306820B10024FFF70BFDA4B910
:1026300001E00124F9E701F049F8F068C468201DC1
:10264000FEF7AAFDA868401EA8606868401E686082
:1026500001F056F82046FFF73EFC68680028DFD1FD
:1026600070BDB94E4FF08054B84DFFF7D4FF3068BD
:102670000128FAD92C60BFF34F8FBFF36F8FF4E7B7
:102680001CB5B34800242C30CDE9004023468022FD
:10269000B1A1B348FFF7E0FB012801D100F07DFDB7
:1026A00001280CD0401C1CD140F28472AFF2A05122
:1026B000AFF2885002B0BDE8104001F025BD5020B7
:1026C00080F31188BFF34F8FBFF36F8FA0484FF097
:1026D000FF31816201214161C460BDE81C4000F00E
:1026E000B5BF1CBD502080F31188BFF34F8FBFF3DF
:1026F0006F8F97490020486100F0DCBF9448C068A4
:10270000704710B501F023F89148C06810BD90489B
:102710008068704710B5002802D004461CB10AE05A
:102720008B480468FAE740F68C02AFF21C61AFF206
:10273000046001F0E9FC04F1340010BD70B50446FA
:102740000D46002C07D140F60632AFF23C61AFF2E5
:10275000246001F0D9FC7E48016820461831FEF75C
:1027600003FD2846BDE870400121E7E42DE9F04172
:1027700005460E461746002D07D140F61732AFF238
:102780007061AFF2586001F0BFFC714C206B38B93A
:1027900040F61B32AFF28861AFF2706001F0B4FC1A
:1027A000216846F000408861216828461831FEF70C
:1027B000CFFC3846BDE8F0410121BFE470B50646C4
:1027C0000D461446002E07D140F63132AFF2C061FB
:1027D000AFF2A86001F098FC5D48016830461831FE
:1027E000FEF7B6FC0CB14FF0FF3521462846BDE898
:1027F0007040A3E42DE9F041C068C468002C07D103
:1028000040F66132AFF2F861AFF2E06001F07CFCBB
:1028100004F118000746FEF7BFFC4D4D2A6B012658
:102820005AB139464B48FEF793FCE06A2968C96AF9
:10283000884214D90120EE6160E4201DFEF7ACFC53
:10284000E06A2A6906FA00F1114329613E4900EB6A
:10285000800001EB8000211DFEF77AFCE5E70020F7
:102860004CE470B506460C46394D286B002807D15C
:1028700040F69932AFF26871AFF2507001F044FC4B
:1028800044F000403060F4683CB940F6A132AFF249
:102890008071AFF2687001F037FC3046FEF77CFCC7
:1028A000201DFEF779FCE06A01262A6906FA00F18C
:1028B00011432961244900EB800001EB8000211DB8
:1028C000FEF746FCE06A2968C96A884202D90120FD
:1028D000EE6170BD002070BD10B50446002C07D11C
:1028E00040F6C132AFF2D871AFF2C07001F00CFC0B
:1028F0001748016A2160C068606010BD70B5044669
:102900000D46002C07D140F6CB32AFF2FC71AFF28E
:10291000E47001F0F9FB3DB940F6CC32AFF610019E
:10292000AFF2F87001F0F0FB00F0D0FE084AD0687A
:1029300029684B1C16D02368126A934214D062682F
:10294000824211D801241BE00001002004ED00E0C8
:1029500034000020A803002049444C45000000003A
:102960006326000800240BE06268801A884206D2C1
:10297000081A28602046FFF7AFFF002400E001247A
:1029800000F0BEFE204670BDFA490120C8617047C4
:10299000F84800687047F7484169002903D0006B88
:1029A00018B100207047012070470220704770B5B1
:1029B0000446002839D0EF4DE06A2968C96A884288
:1029C00033D2A069002804DB2868C06AC0F1200067
:1029D000A061E06AE84E00EB8000616906EB8000D0
:1029E00081421FD1201DFEF7D7FB012150B9E06ABB
:1029F00000EB800256F8222022B92A6901FA00F081
:102A000082432A612868C06AE0622A6981401143D2
:102A1000296100EB800006EB8000211DBDE87040BD
:102A2000FEF796BB2868C06AE06270BD70B50446C8
:102A30000026002840D0CF4D2868844207D040F6B9
:102A4000C762AFF63411AFF61C1001F05DFBA06C4D
:102A500038B940F6C962AFF64811AFF6301001F050
:102A600053FBA06C401EA064626CE16A914223D0CB
:102A700010BB201DFEF790FBBF4A012150B9E06A50
:102A800000EB800352F8233023B92B6901FA00F0E0
:102A900083432B61606CE062C0F12000A061E06ABA
:102AA0002B6981401943296100EB800002EB800013
:102AB000211DFEF74DFB0126304670BDAD4908686B
:102AC00080690A680968D26AC2F120028A61704787
:102AD000A8490868002803D00868826C521C8264E8
:102AE0000868704770B506460C4600F0EFFDA14D32
:102AF0002868C06C80B92A68012082F850005CB157
:102B000001212046FFF71AFB9C494FF080500860D6
:102B1000BFF34F8FBFF36F8F00F0F2FD00F0D6FDD3
:102B20002868C46C002034B116B12968C86402E07A
:102B30002A68611ED164296881F8500000F0E0FD28
:102B4000204670BD2DE9F04781460F46164698464F
:102B500000F0BCFD874D286890F85000022817D07F
:102B60002C68E06C20EA0900E0642968012081F803
:102B70005000B8F1000F0BD001214046FFF7DEFAFC
:102B80007E494FF080500860BFF34F8FBFF36F8FC7
:102B900000F0B6FD00F09AFD16B12868C06C3060F8
:102BA000286890F8500001280DD02868C16CB943FE
:102BB000C16401242968002081F8500000F0A0FDC4
:102BC0002046BDE8F0870024F4E72DE9F0410446F3
:102BD0000D4690461F460126002C07D141F2FD020A
:102BE000AFF6D421AFF6BC2001F08EFA00F06EFDF6
:102BF0000FB1E06C386094F85000022184F8501056
:102C0000B8F1050F13D2DFE808F01203070B0D002F
:102C1000E16C2943E1640AE0E16C491CE16406E0EF
:102C2000E56404E0022801D0E56400E00026012804
:102C300028D1201DFEF7B0FA4E4DE06A01212A6925
:102C40008140114329614C4900EB800001EB800079
:102C5000211DFEF77DFAA06A38B141F23512AFF6B8
:102C60005031AFF6383001F04FFAE06A2968C96A8E
:102C7000884207D941494FF080500860BFF34F8F19
:102C8000BFF36F8F00F03CFD3046ABE42DE9F04719
:102C90000446DDF820800D4691469A460127002C17
:102CA00007D141F26812AFF69831AFF6803001F0EB
:102CB0002BFA00F04CFD5020EFF3118680F31188C1
:102CC000BFF34F8FBFF36F8FBAF1000F02D0E06CEC
:102CD000CAF8000094F85000022184F85010B9F1AD
:102CE000050F13D2DFE809F01203070B0D00E16CAA
:102CF0002943E1640AE0E16C491CE16406E0E56413
:102D000004E0022801D0E56400E0002701283BD15F
:102D1000A06A38B141F2AF12AFF60C41AFF6F43011
:102D200001F0F2F9134D286B4FF0010978B104F16D
:102D300018011348FEF70CFAE06A2968C96A88424C
:102D400022D9B8F1000F1DD0C8F800901CE0201D5A
:102D5000FEF722FAE06A2A6909FA00F111432961B3
:102D600000EB8001044800EB8100211DFEF7F0F923
:102D7000E2E70000340000200001002004ED00E044
:102D8000A8030020C5F81C9086F31188384618E780
:102D90002DE9F04104468846002C07D141F2E312A8
:102DA000AFF69441AFF67C4001F0AEF900F0CFFCF5
:102DB0005020EFF3118780F31188BFF34F8FBFF3DB
:102DC0006F8F94F85000022184F85010E16C491C78
:102DD000E164012830D1A06A38B141F20922AFF68E
:102DE000D041AFF6B84001F08FF9204D286B012695
:102DF00078B104F118011E48FEF7AAF9E06A2968C3
:102E0000C96A884218D9B8F1000F14D0C8F8006018
:102E100012E0201DFEF7C0F9E06A2A6906FA00F107
:102E200011432961134900EB800001EB8000211D53
:102E3000FEF78EF9E2E7EE6187F31188FCE410B546
:102E400000280BD0044600F041FC94F85000022802
:102E500007D0002400F054FC204610BD034804684D
:102E6000F1E7002084F850000124F3E7340000204B
:102E7000A80300200001002070B50024416000611B
:102E8000F74D91420AD8D11A8269914201D30124A7
:102E90000EE0011D2869FEF767F909E09A4203D2A6
:102EA000994201D3012403E0011DE868FEF75CF9B3
:102EB000204670BD2DE9FF470546DDF830A00E46DF
:102EC000904699460027002D05D14FF4D372E5A115
:102ED000EBA001F019F9E24C2068F8B10096CDF8AA
:102EE00004800295062E13DAFFF755FD022807D05D
:102EF00000231A4669462068FEF78DFA07460DE062
:102F00000023524669462068FEF785FA074605E029
:102F100000234A466946FEF7A4FC074604B038463B
:102F2000BDE8F087F8B5CE4E25E0C0680568C468F6
:102F3000201DFEF731F9616A20468847E0690128C3
:102F400019D1A0692844A84206D960602461211DD6
:102F5000F068FEF709F90EE00020034601460090F4
:102F60002A462046FFF7A6FF28B940F29232BDA1BB
:102F7000C3A001F0C9F8F06801680029D5D1F06854
:102F80003169F1603061F8BD70B50546FFF7B6FBF9
:102F90000446B34EB068844204D2FFF7C3FF012059
:102FA000286001E000202860B460204670BD70B544
:102FB00086B0AB4E53E00298002803DADDE9032027
:102FC000059990470298002849DB049C606910B17C
:102FD000201DFEF7E1F801A8FFF7D6FF054602988D
:102FE0000A283CD2DFE800F00505053B2738050537
:102FF0003B270398A169034601442A462046FFF770
:103000003BFF00282BD0616A20468847E0690128F1
:1030100025D1002000900398A16900234218194689
:103020002046FFF747FFD0B940F221328DA194A08E
:1030300001F06AF813E00398A06128B94FF44E72CA
:1030400088A18FA001F060F8A0692B4641192A469B
:103050002046FFF711FF02E0204600F073FA00233C
:103060001A4602A93068FEF7F8FA0028A3D106B084
:1030700070BDF8B505460E467948C068C068C4689A
:10308000201DFEF789F8E069012816D1A0692B46BA
:10309000411932462046FFF7EFFE70B1002003468B
:1030A000014600902A462046FFF704FF28B94FF456
:1030B00002726CA172A001F027F8616A01B020468B
:1030C000BDE8F0400847F8B506460D46FFF769F839
:1030D0006846FFF759FF0446009810B1FEF7B2FFAB
:1030E000F8BD45B9A64206D8FEF7ACFF21463046EA
:1030F000FFF7BFFFF8BD5A481DB10169096891B1DA
:103100000025311B2A460068FEF79BFDFEF79AFF5B
:103110000028EFD15E494FF080500860BFF34F8F19
:10312000BFF36F8FF8BD0125EBE74D49CA68116801
:10313000002904D00021016019B10020704701214D
:10314000F9E7D0680068704708B56846FFF7EDFFFB
:103150000099FFF7B8FFFFF72AFFF6E710B500F078
:10316000B5FA3F4C2068A0B94A48FDF7E3FF49484B
:103170001430FDF7DFFF4748E06014302061002283
:1031800010210A20FEF76BF8206010B142A1FEF773
:1031900037FDBDE8104000F0B3BA1CB50024FFF7BE
:1031A000DDFF2F48006860B12D481F21001DCDE9CB
:1031B000001000234FF4807239A13B48FEF74CFE0B
:1031C00004462CB940F2331226A12DA000F09CFF3A
:1031D00020461CBD2DE9F0470646DDE908940D4662
:1031E00017469846002D05D14FF4C6721DA124A0A4
:1031F00000F08AFF002C0DD0FFF7B0FF2660A5611C
:10320000E761C4F82080C4F82490201DBDE8F04791
:10321000FDF79BBF84E62DE9FC4706460A9D0F4655
:1032200090469946282000F026F904463CB1CDE9A5
:1032300000544B46424639463046FFF7CBFF204606
:10324000BDE8FC8710B5064C6068002805D14FF436
:10325000E87204A10AA000F057FF606810BD0000EA
:10326000700000202E2E5C2E2E5C46726565525436
:103270004F535C7372635C74696D6572732E630087
:103280004572726F723A25732C25640D0A00000096
:1032900004ED00E0E4030020546D725100000000D2
:1032A000546D7220537663004931000810B504460E
:1032B000002807D140F2D912AFF25801AFF2400016
:1032C00000F022FFA069C9E710B50446002807D125
:1032D00040F2E312AFF27401AFF25C0000F014FFB1
:1032E0006068BBE710B50446002807D140F2ED1234
:1032F000AFF29001AFF2780000F006FF2068ADE772
:1033000010B50446002807D140F2DA32AFF2AC0122
:10331000AFF2940000F0F8FE00F0D8F9606908B14F
:10332000012400E0002400F0EBF9204696E710B5F8
:103330000446002807D140F2EF32AFF2D801AFF2D5
:10334000C00000F0E1FE00F0C1F9246A00F0D8F9F5
:10335000204683E770B50D460446002807D140F2A9
:10336000FF32AFF20011AFF2E80000F0CDFE00F046
:10337000ADF92562BDE8704000F0C2B97FB51D46C9
:103380006FF001040094019002910392144800230D
:103390002A4669460068FEF764FA04B070BD2DE95C
:1033A000FF4104460D46164698460D4F3A68002ADE
:1033B00007D140F22B42AFF25411AFF23C1000F0B3
:1033C000A3FE4FF0FF320092019402950396002372
:1033D000424669463868FEF71EF804B0BDE8F08141
:1033E0007000002030B5744900E011460A6882423E
:1033F000FBD34B685C18844203D140681844486092
:1034000008460D6844682318AB420DD16A4B103B47
:103410001B689A4206D05268224442600A681268C9
:10342000026002E0036000E00260814200D00860B8
:1034300030BD4FF410416148420706D0C01D20F056
:1034400007005E49411AC1F510415B4A1060002334
:1034500053600144083921F00701103A11604B60B4
:103460000B600B1A436001604068906050604FF041
:103470000040D06070472DE9F04105460026FEF778
:1034800090FE4D4F103F386808B9FFF7D2FFF8683B
:1034900005424AD175B1083568070BD005F0070021
:1034A000C0F108000544680704D0BF2244A14EA023
:1034B00000F02AFE002D38D07868854235D83E4984
:1034C0000846046801E0214604466068A84202D22A
:1034D00020680028F7D13868844226D00E68083664
:1034E000206808606068401B102811D904EB0508AB
:1034F0005FEA487004D0EC2231A13BA000F004FE4A
:103500006068401BC8F8040065604046FFF76AFF2A
:1035100061687868401A7860BA68904200D2B860F2
:10352000F8680143616000202060FEF78BFD7007A2
:1035300005D04FF4967222A12BA000F0E5FD304695
:10354000BDE8F08170B500282BD0083804461A4D2C
:103550006068103DE968084205D14FF4A07218A1D7
:1035600021A000F0D1FD206828B140F2411214A141
:103570001DA000F0C9FD6068E968084211D022680A
:10358000002A0ED188436060FEF70BFE6068696810
:10359000084468602046FFF725FFBDE87040FEF74D
:1035A00051BD70BD0448103840687047024810385B
:1035B0008068704770470000940000200C040020D1
:1035C0002E2E5C2E2E5C4672656552544F535C70F5
:1035D0006F72745C4D656D4D616E675C686561709E
:1035E0005F342E63000000004572726F723A2573DB
:1035F0002C25640D0A00000067484068401C04D078
:10360000F42266A16FA000F07FFD502080F31188A6
:10361000BFF34F8FBFF36F8FFEE720384FF08073FB
:10362000C36121F0010181616A49416140F82029AB
:10363000704769484FF47A710068B0FBF1F14FF0C0
:10364000E020491E41610721016170471CB56349B3
:1036500008780190FF200870087800909DF800001D
:103660004D4A00F0500010700720906006E090680E
:10367000401E90609DF80000400000909DF8000002
:103680000006F4D4107A000200F4E0609060019823
:1036900008705348016841F470010160016841F00D
:1036A00070410160FFF7C5FF00205060FCF75CFD32
:1036B00000201CBD38484068B0F57A7F05D04FF433
:1036C000B57236A13FA000F01FBD7047502080F3B7
:1036D0001188BFF34F8FBFF36F8F2F494868401C8D
:1036E000486001280BD13E481C38006810F0FF0FDD
:1036F00005D04FF4BD7229A132A000F005BD70477E
:1037000010B5254C6068002805D140F2811223A134
:103710002CA000F0F9FC6068401E6060002801D118
:1037200080F3118810BD10B5502080F31188BFF3CD
:103730004F8FBFF36F8FFEF725FC20B128494FF064
:1037400080501C390860002080F3118810BD10B52E
:10375000FCF740FD104C10280CD300F1E02090F84D
:10376000F0032178884205D24FF42A720BA115A0EC
:1037700000F0CAFC1A4814380068A16800F4E06040
:10378000884207D9BDE810404FF42E7203A10DA066
:1037900000F0BABC10BD00009C0000202E2E5C2E54
:1037A0002E5C4672656552544F535C706F72745C48
:1037B000525644535C41524D5F434D335C706F72BF
:1037C000742E63004572726F723A25732C25640D56
:1037D0000A000000F93500080000002000E400E0C5
:1037E00020ED00E02021002802D0020C02D003E0EE
:1037F0000020704700041021020E01D10002083998
:10380000020F01D10001091F820F01D18000891E22
:10381000002800DB491E0846704710B5401EFFF720
:10382000E1FF411E0120884010BD70B50546002D06
:103830001DD0681E054203D02846FFF7EEFF05465F
:1038400005F1180000F0D8FB0446FCB104F11800A3
:10385000606100F0D5FBE06058B100F0D1FB206161
:1038600060B1256000206060A060204670BD00202F
:1038700070BD204600F0C2FB002070BD204600F065
:10388000BDFBE06800F0CFFB002070BD002070BDE4
:103890002DE9F0410F46044615461946002C28D064
:1038A0003FB335B3206900F0C0FB401C23D0D4E9FE
:1038B0000001A368421A1A44AA4200D81546421EC3
:1038C0001140461AAE4200D92E466069324608447D
:1038D000394600F0CDFBAA1BB919606900F0C8FB9E
:1038E000606828446060206900F0ACFB2846BDE8B1
:1038F000F0810020FBE70020F9E72DE9F0410F46B9
:10390000044615461946002C26D02FB325B3E0688F
:1039100000F08BFB401C21D0D4E90110091AA94208
:1039200000D80D4621684A1E10400E1AAE4200D93A
:103930002E46616932460144384600F099FBAA1BC5
:10394000B819616900F094FBA0682844A060E068A1
:1039500000F078FB2846CAE70020C8E70020C6E749
:10396000002806D0D0E901218A4205D14FF000009D
:1039700070474FF00000704702D9A2EB010070477A
:103980000068A1EB0201A0EB0100704700B50346FF
:103990001846FFF7E5FF1968081A00BD30B5034661
:1039A00000206FF02F0506E000EB800005EB4000E3
:1039B0001044491C196019680A78A2F13004092CD6
:1039C000F2D930BD10B50C68944200D20355086896
:1039D000401C086010BD2DE9FF4F93B0DDE923C600
:1039E000DDE920342299002218464FF02008FAA57C
:1039F000FEA7A1F10209B9F10F0F70D25FEA466983
:103A000000D53D46770701D526F00206B70605D555
:103A1000002C03DA58424FF02D0206E0F30601D5E0
:103A20002B2202E0330700D52022002403AF90FBB5
:103A3000F1F301FB130315F803902346641C07F808
:103A4000039090FBF1F00028F1DC00200DF1040957
:103A500012B101208DF80420F20713D0082901D0FB
:103A600010290FD130230246401C09F802301029DA
:103A700008D1710601D5782100E058210246401C8A
:103A800009F802104FF0000A09F800A0211861455A
:103A900004DAACEB0401A1EB000501E04FF00005F6
:103AA00003DAACEB0401A1EB0005002D21DD70076A
:103AB0001FD4B00719D54FF0000B05E013A807C8B5
:103AC000FFF780FF0BF1010B19F80B30002BF5D13C
:103AD0008DF804A009E0B00702D5302301E023E00F
:103AE000202313A807C8FFF76DFF281EA5F10105C5
:103AF000F1DC4FF0000A05E013A807C8FFF762FFEA
:103B00000AF1010A19F80A30002BF5D104E013A8D4
:103B10003B5D07C8FFF756FF201EA4F10104F6DC49
:103B2000002D01DD700707D417B0BDE8F08F13A892
:103B3000434607C8FFF746FF281EA5F10105F6DC3E
:103B4000F2E72DE9F0470546DDE908080E4617467D
:103B500099460024002800DD441E002C00DA0024D1
:103B60006CB15FEA487006D509E020233A46314639
:103B70002846FFF727FF201EA4F10104F5DC4B4681
:103B80003A4631462846FFF71DFF002C02D05FEA77
:103B9000487007D4BDE8F08720233A4631462846CE
:103BA000FFF710FF201EA4F10104F5DCF2E700216D
:103BB00001E0491C401C0278002AFAD108467047EF
:103BC0002DE9F0470746DDE908A6884691461D46DF
:103BD0000024BAF1000F04DD2846FFF7E8FFAAEB46
:103BE0000004002C00DA00249CB1700706D510E018
:103BF00020234A4641463846FFF7E4FE201EA4F142
:103C00000104F5DC05E06D1C4A4641463846FFF7E5
:103C1000D9FE2B78002BF6D1002CBBD0700706D430
:103C2000B8E720234A4641463846FFF7CBFE201E20
:103C3000A4F10104F5DCADE72DE9FF4F87B08B4619
:103C40000020069000250798002800D18346099897
:103C500010F8014B099055B1012D14D0022D37D029
:103C6000032D56D0042D74D0052D71D0B3E0252C32
:103C700006D023465A4606A90798FFF7A3FEAAE0F6
:103C800001250027A7E02B2C1FD006DC202C19D003
:103C9000232C0ED0272C06D19DE02D2C0FD0302CBC
:103CA0000AD0492C04D0401E09904FF0000802258C
:103CB00091E047F001078EE047F002078BE047F004
:103CC000040788E047F0080785E047F0100782E026
:103CD0002A2C0CD0A4F13001092914D8302C12D987
:103CE000401E099009A8FFF759FE804673E00A9824
:103CF00050F8048B0A90B8F1000F6CDAC8F1000894
:103D000047F0040767E0401E09904FF0FF3A032593
:103D100061E02E2C05D0401E09904FF000090425CB
:103D200059E00078A0F13001092904D809A8FFF76B
:103D300035FE824605E02A2803D10A9850F804ABE4
:103D40000A90BAF1000FE8DA4FF0000AE5E700E068
:103D50001EE04C2C19D0682C05D06C2C0CD0401EC9
:103D60000990052537E0B9F1010F02D04FF00109A4
:103D700031E04FF002092EE0B9F1030F02D04FF00D
:103D8000030928E04FF0040925E04FF0050922E07F
:103D9000642C41D0692C3FD06F2C3DD0622C3BD09D
:103DA000752C39D0782C37D0582C35D0702C7FD04A
:103DB000732C6ED0632C6DD0252C6CD025235A46E5
:103DC00006A90798FFF7FEFD23465A4606A907985D
:103DD000FFF7F8FD002513E0303132333435363744
:103DE0003839414243444546000000003031323307
:103DF0003435363738396162636465660000000027
:103E0000002C7FF424AF0698401E069058456ED2D1
:103E1000079A0021115488E0B9F1030F0BD019F073
:103E2000050F0DD00A98C01D20F00700D0E90056FC
:103E300008300A900CE00A9820C80A90EE1707E0B4
:103E4000642C13D0692C11D00A98002620C80A903F
:103E50000A20642C0FD0692C0DD0782C0ED0582C51
:103E60000CD06F2C12D0622C16D016E00A9820C805
:103E70000A90EE17ECE747F020070EE0782C03D00D
:103E800000200743102008E04020FAE7082004E063
:103E90000EE01FE02CE039E00220CDE90387CDE9F8
:103EA000005602905A4606A90798FFF794FD91E73D
:103EB0000A9820C80A90EE17102047F04107CDE974
:103EC0000387CDE9005602905A4606A90798FFF7E6
:103ED00082FD7FE70A9808C80A9003B914A3CDE9C8
:103EE00000875A4606A90798FFF76AFE72E714E0B2
:103EF0000A9810F8041B0A90CCB2CDE9008723463B
:103F00005A4606A90798FFF71CFE63E723465A4660
:103F100006A90798FFF756FD5CE7BBF1000F04D038
:103F200007990020594401F8010C06980BB0FCE5F4
:103F3000286E756C6C290000FDF7F0B8C0B04FF426
:103F40008076224D07E021466846FFF7F5FF2146BF
:103F5000684600F0A6F80023324669462868FFF755
:103F6000CCFC0446002CF6DDEDE71CB54FF4805088
:103F7000FFF75BFC1549086001211420CDE9001012
:103F80008B020022AFF24B0111A000F03CF8002898
:103F900004D1BDE81C4011A000F0B6B81CBD0FB4A0
:103FA00008B503AB0093FF211248029AFFF744FEC5
:103FB0000246B2F5807F00D9FF22044864230D49F0
:103FC0000068FFF765FC01B05DF814FBA800002055
:103FD00073616C6F665F7461736B000073616C6F0B
:103FE00066207461736B206372656174652066611D
:103FF000696C0A000C940020FFF73DBAFFF7A2BAE3
:104000000120FDF7DEBA3EB505460C46069811467E
:1040100002AACDE900029AB20B4629462046FDF7D6
:104020001BFF02983EBDFDF7B1BD10B500230A4647
:104030001946FDF712FB012802D04FF0FF3010BDEA
:10404000002010BD10B500231A461946FDF7E3F90C
:10405000012802D04FF0FF3010BD002010BDFEF748
:104060004DBB10B5FEF794FCBDE81040FEF752BB07
:1040700040EA01039B0703D009E008C9121F08C0EA
:10408000042AFAD203E011F8013B00F8013B521E6A
:10409000F9D27047D2B201E000F8012B491EFBD2E1
:1040A00070470022F6E710B513460A460446194643
:1040B000FFF7F0FF204610BD30B50B46014600204B
:1040C0002022012409E021FA02F59D4205D303FADA
:1040D00002F5491B04FA02F52844151EA2F101025B
:1040E000F1DC30BD064C074D06E0E06840F001030E
:1040F00094E8070098471034AC42F6D3FCF71CF85C
:1041000000430008204300080FB4054B10B503A975
:10411000044A029800F018F810BC5DF814FB000087
:10412000E5100008AC00002002E008C8121F08C11A
:10413000002AFAD170477047002001E001C1121F28
:10414000002AFBD1704700002DE9FF4F8BB09A4643
:104150000F460546002606E025280BD052460D994D
:1041600090476D1C761C28780028F5D10FB030469A
:10417000BDE8F08F0024A0460122604900E004431E
:1041800015F8013F203B02FA03F00842F7D12878E6
:104190002E2817D115F8010F44F004042A280ED058
:1041A0006FF02F022878A0F1300109290AD808EB16
:1041B000880102EB410100EB01086D1CF2E757F8A2
:1041C000048B6D1C287869283ED006DC0028CDD0F1
:1041D00063280BD0642804D136E0732810D07528EA
:1041E0004BD052460D999047761C85E017F8040B8A
:1041F0008DF8000000208DF80100E946012003E061
:1042000057F8049B4FF0FF3061074FF0000401D4D2
:104210000AE0641C44450DDA8442FADB19F8041004
:104220000029F6D106E0641C8442FCDB19F8041076
:104230000029F8D1264404E019F8010B52460D99E3
:104240009047641EF8D257E001CF4FF00A0B0028C8
:1042500002DA40422D2102E0210504D52B218DF800
:104260002410012103E0E10705D02021F7E70DF13B
:10427000200908910CE00021F9E701CF4FF00A0B6B
:10428000F9E75946FFF718FF01F1300209F8012D4F
:104290000028F6D1ADEB090000F1200B600701D436
:1042A0004FF00108D84502DDA8EB0B0000E000202C
:1042B0008046002406E009A85246005D0D9990470B
:1042C000641C761C08988442F5DB04E030205246DA
:1042D0000D999047761CB8F10001A8F10108F5DCB2
:1042E00005E019F8010B52460D999047761CBBF179
:1042F0000001ABF1010BF4DC6D1C34E7092801006F
:104300002043000800000020B00000002841000801
:10431000D0430008B0000020609800003841000839
:1043200000A24A0400000000000000000102030493
:104330000607080902040608000000000102030441
:104340000102030406070809000000000000000045
:10435000000000000000000000000000000000005D
:10436000000000000000000000000000000000004D
:10437000000000000000000000000000000000003D
:10438000000000000000000000000000000000002D
:10439000000000000000000000000000000000001D
:1043A000000000000000000000000000000000000D
:1043B00000000000000000000000000000000000FD
:1043C000AAAAAAAA00000000000000000000000045
:0400000508000131BD
:00000001FF
