:020000040800F2
:100000001847002045010008510400084904000871
:100010004D0400082D030008EB0900080000000053
:1000200000000000000000000000000019060008A9
:100030003103000800000000B301000805070008B4
:100040005F0100085F0100085F0100085F01000810
:100050005F0100085F0100085F0100085F01000800
:100060005F0100085F0100085F0100085F010008F0
:100070005F0100085F0100085F0100085F010008E0
:100080005F0100085F0100085F0100085F010008D0
:100090005F0100085F0100085F0100085F010008C0
:1000A0005F0100085F0100085F0100085F010008B0
:1000B0005F0100085F0100085F0100085F010008A0
:1000C0005F0100085F0100085F0100085F01000890
:1000D0005F0100087D0700085F0100085F0100085C
:1000E0005F0100085F0100085F0100085F01000870
:1000F0005F0100085F0100085F0100085F01000860
:100100005F0100085F0100085F0100085F0100084F
:100110005F0100085F0100085F0100085F0100083F
:100120005F0100085F0100085F0100085F0100082F
:10013000DFF80CD000F0E8F8004800479D190008EF
:10014000184700200648804706480047FEE7FEE7BC
:10015000FEE7FEE7FEE7FEE7FEE7FEE7FEE7FEE777
:100160001D0700083101000872B6704762B670477B
:10017000EFF3108072B6704780F310887047B0FAC2
:1001800080F0704717484FF0FF010170002080F3A6
:10019000098815484FF08051016062B6FEE71248A9
:1001A0004FF08051016070470F484FF0805101605F
:1001B000704772B6EFF3098028B1203880E8F00F5D
:1001C0000A4909680860094809490A680260106814
:1001D00090E8F00F203080F309884EF0040E62B6EC
:1001E000704700BF22ED00E004ED00E03800002081
:1001F0003C0000202DE9F05F0546002092469B461A
:1002000088460646814640241BE02846414647462C
:10021000224600F069F853465A46C01A914110D35D
:1002200011461846224600F050F82D1A67EB0108D7
:100230004F4622460120002100F047F817EB000945
:100240004E41201EA4F10104DFDC484631462A4617
:100250004346BDE8F09F40EA01039B0703D009E055
:1002600008C9121F08C0042AFAD203E011F8013BA2
:1002700000F8013B521EF9D27047D2B201E000F8FB
:10028000012B491EFBD270470022F6E710B513463A
:100290000A4604461946FFF7F0FF204610BD30B568
:1002A0000B46014600202022012409E021FA02F534
:1002B0009D4205D303FA02F5491B04FA02F52844CE
:1002C000151EA2F10102F1DC30BD202A04DB203A28
:1002D00000FA02F1002070479140C2F1200320FA99
:1002E00003F3194390407047202A04DB203A21FA97
:1002F00002F00021704721FA02F3D040C2F120023F
:100300009140084319467047064C074D06E0E068E7
:1003100040F0010394E8070098471034AC42F6D34C
:10032000FFF70AFFAC350008CC35000800BFFEE738
:1003300070472DE9F04102460025002600200023E9
:100340000024002791F803C00CF00F0591F803C0BA
:100350000CF0100CBCF1000F03D091F802C04CEA75
:10036000050591F800C0BCF1000F31D014680020E1
:100370002BE04FF0010C0CFA00F3B1F800C00CEACE
:1003800003069E4220D183004FF00F0C0CFA03F7B6
:10039000BC4305FA03FC4CEA040491F803C0BCF129
:1003A000280F06D14FF0010C0CFA00FCC2F814C063
:1003B0000AE091F803C0BCF1480F05D14FF0010CE1
:1003C0000CFA00FCC2F810C0401C0828D1D31460FD
:1003D000B1F800C0BCF1FF0F34DD546800202EE0FE
:1003E00000F1080C4FF0010808FA0CF3B1F800C056
:1003F0000CEA03069E4221D183004FF00F0C0CFA49
:1004000003F7BC4305FA03FC4CEA040491F803C06B
:10041000BCF1280F05D100F1080C08FA0CF8C2F85D
:10042000148091F803C0BCF1480F07D100F1080C0B
:100430004FF0010808FA0CF8C2F81080401C082898
:10044000CED35460BDE8F08100BFFEE700BFFEE7F9
:10045000704708B54FF4A06000F046F825208DF8ED
:10046000000001208DF801008DF802008DF80300D6
:10047000684600F001F808BD70B5002100230F2286
:10048000C47804B3154C246804F4E064C4F5E06453
:10049000210AC1F10403CA40447804FA03F18478C4
:1004A0001440214309010E4C0678A155047804F04C
:1004B0001F050124AC4005786D11AD0005F1E02564
:1004C000C5F8004109E0047804F01F050124AC40A0
:1004D000044D0678761145F8264070BD0CED00E01D
:1004E00000E400E080E100E002490143024A1160BB
:1004F000704700000000FA050CED00E010B5002880
:1005000007DA0A07140E054A00F00F031B1FD45424
:1005100003E00A07130E024A135410BD18ED00E061
:1005200000E400E029B1064A92690243044B9A6153
:1005300004E0034A92698243014B9A6170470000CC
:100540000010024030B500210022002400232D4D70
:100550006D6805F00C0121B1042905D0082923D1CB
:1005600005E0294D056022E0274D05601FE0254D7F
:100570006D6805F47012234D6D6805F48034022512
:1005800005EB92421CB9214D554305600BE01D4D12
:100590006D6805F400351DB11C4D5543056002E042
:1005A000194D5543056002E0174D056000BF00BFBF
:1005B000144D6D6805F0F0010909154D6B5C056877
:1005C000DD4045600F4D6D6805F4E061090A104D8E
:1005D0006B5C4568DD4085600A4D6D6805F46051CF
:1005E000C90A0B4D6B5C4568DD40C560054D6D6803
:1005F00005F44041890B074D6B5CC568B5FBF3F50D
:10060000056130BD0010024000127A0000093D0073
:100610001400002024000020704710B500F002F8FC
:1006200010BD00000CB50020019000903348006818
:1006300040F480303149086000BF3048006800F461
:10064000003000900198401C0190009818B9019862
:10065000B0F5A06FF1D12948006800F4003010B166
:100660000120009001E0002000900098012843D173
:100670002348006840F010002149086008460068DF
:1006800020F0030008600846006840F0020008609F
:100690001A4840681949486008464068486008465A
:1006A000406840F4806048600846406820F47C1050
:1006B00048600846406840F4E81048600846006812
:1006C00040F08070086000BF0C48006800F00070C7
:1006D0000028F9D00948406820F003000749486025
:1006E0000846406840F00200486000BF0348406888
:1006F00000F00C000828F9D10CBD000000100240E9
:100700000020024010B502F055FA28B102F0F2F9CB
:1007100002F030FF02F006FA10BD000010B51348D9
:10072000006840F00100114908600846406810491F
:1007300008400E494860084600680E4908400B49C9
:1007400008600846006820F4802008600846406879
:1007500020F4FE0048604FF41F008860FFF75DFF43
:100760004FF000600449086010BD00000010024016
:100770000000FFF8FFFFF6FE08ED00E010B540F2C4
:100780002551064800F06DF838B1044800F024F90E
:10079000C4B22146014800F024F910BD00380140E0
:1007A00021B1828942F40052828104E082894DF6AF
:1007B000FF731A408281704700B585B00121042083
:1007C000FFF7B0FE01218803FFF7ACFE4FF4007085
:1007D000ADF8100018208DF8130003208DF81200DA
:1007E00004A91748FFF7A5FD4FF48060ADF810008D
:1007F00004208DF8130004A91148FFF79AFD4FF467
:10080000E13000900020ADF80400ADF80600ADF82E
:100810000800ADF80C000C20ADF80A006946094844
:1008200000F06EF8FFF715FE012240F22551054851
:1008300000F041F801210348FFF7B2FF05B000BD09
:10084000000801400038014002460020B1F5007F59
:1008500000D100BF13880B400BB1012000E0002045
:10086000704770B50246002400230025002040F6A2
:100870006A16B14200D100BFC1F3421501F01F0357
:10088000012606FA03F3012D02D19689334006E0D2
:10089000022D02D1168A334001E0968A33400C12B1
:1008A000012606FA04F41688344013B10CB1012075
:1008B00000E0002070BDF0B50346002400260025AE
:1008C000002040F66A17B94200D100BF1846C1F3B4
:1008D000421401F01F06012707FA06F5012C01D189
:1008E0000C3004E0022C01D1103000E014301AB1B9
:1008F00007682F43076002E00768AF430760F0BD59
:100900002DE9F04786B005460E460024A24600BFFA
:10091000A1460027B08900B100BF2F462C8A4CF6B3
:10092000FF700440F08804432C82AC894EF6F3102B
:100930000440B08831890843718908430443AC817D
:10094000AC8A4FF6FF400440B0890443AC8201A852
:10095000FFF7F8FD1F48874202D1DDF810A001E043
:10096000DDF80CA0A88900F4004040B10AEBCA00F1
:1009700000EB0A1031684900B0FBF1F807E00AEB20
:10098000CA0000EB0A1031688900B0FBF1F864205E
:10099000B8FBF0F004012009642101FB1089A8894B
:1009A00000F4004040B1322000EBC900B0FBF1F090
:1009B00000F00700044308E0322000EB0910642136
:1009C000B0FBF1F000F00F0004432C8106B0BDE84D
:1009D000F08700000038014001468888C0F3080015
:1009E0007047C1F308028280704700BFFEE770B510
:1009F00004460D4629462046FFF7F3FF00BF80213D
:100A00002046FFF721FF0028F9D070BD70B50646DB
:100A10000C46002500BF615D3046FFF7E8FF6D1C06
:100A2000605D0028F7D100BF40213046FFF70CFF82
:100A30000028F9D070BD00000FB4054B10B503A914
:100A4000044A029800F0DEF910BC5DF814FB0000C7
:100A5000E91700087C00002010B50446E143491C5A
:100A600004EA010000F0D2FE401E10BD10B504469D
:100A7000204600F0CBFE401E10BD02E008C8121F49
:100A800008C1002AFAD170477047002001E001C177
:100A9000121F002AFBD1704710B50C68944201D296
:100AA0000C6803550C68641C0C6010BD10B504463E
:100AB000601E00F005F8401E012101FA00F010BD93
:100AC0000146202209B900207047080C000408B92B
:100AD0000904103A01F07F4008B90902083A01F010
:100AE000704008B90901121F01F0404008B989009F
:100AF000921E01F0004008B94900521E1046E3E77B
:100B00002DE9F0470746884691469A46DDE90856A2
:100B10000024002D00DD6C1E002C00DA00246CB1D6
:100B200006F0040050B905E020234A464146384605
:100B3000FFF7B2FF201EA4F10104F5DC53464A463C
:100B400041463846FFF7A8FF6CB106F0040050B1EB
:100B500005E020234A4641463846FFF79DFF201E08
:100B6000A4F10104F5DCBDE8F08700002DE9FF4F9A
:100B700097B024AF97E88007289D00200690039740
:100B80002020029067A001906BA00090B9F1020FA5
:100B900002DBB9F1100F02DD1BB0BDE8F08F05F0EC
:100BA000400008B10098019005F0040008B125F05C
:100BB000020505F0200058B100210846791A78EBAB
:100BC000000005DA784203904FF02D0006900AE00D
:100BD00005F0100010B12B20069004E005F008008D
:100BE00008B120200690002600BF039890FBF9F181
:100BF00009FB11010198425C3046761C07A90A5492
:100C0000039890FBF9F0039003980028EDDC002492
:100C1000069820B12146641C04AA0698505405F099
:100C20000100B8B1B9F1080F02D0B9F1100F11D11C
:100C300030222046641C04A90A54B9F1100F09D1CE
:100C400005F0400008B1782200E058222046641CDC
:100C500004A90A54002004A908553019504503DAA4
:100C6000AAEB0600001B00E0002083463019504527
:100C700003DAAAEB0600A0EB040BBBF1000F25DDA5
:100C800005F0040010BB05F0020070B1002406E07E
:100C900004A8035D17A807C8FFF7FEFE641C04A89C
:100CA000005D0028F4D18DF810000AE005F0020084
:100CB00008B1302000E02020034617A807C8FFF73E
:100CC000EBFEBBF10000ABF1010BEFDC002406E012
:100CD00004A8035D17A807C8FFF7DEFE641C04A87C
:100CE000005D0028F4D105E007A8835D17A807C8B8
:100CF000FFF7D2FE301EA6F10106F5DCBBF1000FB6
:100D00000DDD05F0040050B104E0029B17A807C8F0
:100D1000FFF7C2FEBBF10000ABF1010BF5DC00BF39
:100D20003AE7000030313233343536373839414212
:100D30004344454600000000303132333435363705
:100D40003839616263646566000000002DE9F04790
:100D50008046894692461C46DDE908670025002E3C
:100D600003DD204600F0F8F8351A002D00DA0025E2
:100D70006DB107F0040050B905E020235246494602
:100D80004046FFF789FE281EA5F10105F5DC06E0C7
:100D900014F8013B524649464046FFF77DFE207855
:100DA0000028F5D16DB107F0040050B105E0202313
:100DB000524649464046FFF76FFE281EA5F1010541
:100DC000F5DCBDE8F087014600200AE00A681278E9
:100DD00000EB800302EB4302A2F130000A68521CD0
:100DE0000A600A681278302A03DB0A681278392A06
:100DF000ECDD7047506002604160086070474860F9
:100E0000016070472DE9FF4F89B09B4604460025DD
:100E100006E025280BD05A460B999047641C6D1CA0
:100E200020780028F5D10DB02846BDE8F08F0027C6
:100E3000B8460122474900E0074314F8013F203B30
:100E400002FA03F00842F7D120782E2819D114F8BD
:100E5000010F47F004072A280ED06FF02F022078E8
:100E6000A0F1300109290CD808EB880102EB4101FF
:100E700000EB0108641CF2E70A98641C50F8048B2C
:100E80000A9020780028CED0642808D0692806D09F
:100E900075281ED05A460B9990476D1C58E00A9948
:100EA0004FF00A0901C90A91002802DA40422D21B7
:100EB00002E0390504D52B218DF82010012103E033
:100EC000F90704D02021F7E78A4608AE0DE000219B
:100ED000FAE70A994FF00A0901C90A91F7E749466A
:100EE000FFF7DDF9303106F8011D0028F7D1ADEB31
:100EF000060000F12009780701D44FF00108C84529
:100F000002DDA8EB090000E000208046002706E093
:100F100008A85A46C05D0B9990476D1C7F1C574529
:100F2000F6DB04E030205A460B9990476D1CB8F16F
:100F30000001A8F10108F5DC05E016F8010B5A469E
:100F40000B9990476D1CB9F10001A9F10109F4DC7E
:100F5000641C65E7092801000146002001E0401CEF
:100F6000491C0A78002AFAD1704710B502460023BE
:100F70000AB9002010BD00BF481E10444C1EA043FB
:100F80000346B3F1804F01D90020F3E70C2B01D9C0
:100F90001846EFE70C20EDE770B504460D462846ED
:100FA00000F014F9001D616808446060204600F0FC
:100FB00020F8204670BD70B505460C46284600F066
:100FC00005F904F11001884201D3012070BD002011
:100FD000FCE77CB50446204600F0F8F805466A4672
:100FE00001A900F079FD2046DDE9002100F016FCA2
:100FF0007CBD70B50446204600F064F805462C60C0
:10100000284670BD7CB50446002001900090002564
:1010100004B97CBD6A4601A9204600F07AFD01981A
:10102000182804DA694601A800F080F8054625B1C1
:101030002846DDE9002101F02DF82846E9E770B5E2
:1010400004462046FFF7D5FF0546284600F0A9F8DC
:10105000204600F0A1F870BD70B50446204600F0AF
:1010600031F80546284600F0A1F8204600F0A9F81E
:1010700070BD70B50546284600F024F8044600BF50
:10108000207900F0010038B1204600F03EF82146FA
:101090002846FFF781FF0546284670BD70B5044617
:1010A00000BF207900F0020050B100BF256800BFEA
:1010B000284600F02AF821462846FFF76DFF04462F
:1010C000204670BD2DE9F0410446204600F07EF830
:1010D000061F204600F09EF80746314600F0C1FD8D
:1010E00005462846BDE8F08170B504460D460CB9AA
:1010F000002070BD2946204600F090F82046FFF7FA
:10110000ABFF204600F086F8F3E77CB504462046A6
:1011100000F05CF805466A4601A900F0DDFC2046B7
:10112000DDE9002100F0B6FF7CBD00002DE9F047AD
:1011300005460E462C683768164850F824004FF0D4
:10114000FF31B94000EA0109B9F1000F16D1114889
:101150002438006A611C4FF0FF328A4000EA02081E
:10116000B8F1000F02D10020BDE8F0874046FFF73C
:1011700073FC04462C60074850F824904846FFF75B
:101180006BFC074637600348603000EBC41050F832
:101190002700E9E7B4320020416841F001014160D5
:1011A0007047416841F0020141607047416821F099
:1011B000020141607047027902F003020A43426073
:1011C0007047416821F0010141607047014648685D
:1011D00020F0030070472DE9F04105460C462846F3
:1011E00000F018F88046211F00F03BFD0646284617
:1011F000FFF7ECFF211D471A39463046FFF7DBFFAA
:1012000021462846FFF7D7FF3046FFF718FF304644
:10121000BDE8F081014601F10800704770B5044651
:101220000D4629462046FFF7C6FE68B129462046EE
:10123000FFF7D1FF06462046FFF7DBFE3046FFF7FB
:10124000B0FF3046FFF7C5FE70BD10B5FEF7A7FF33
:1012500010BD000010B507480CC807480068002101
:10126000FEF7C8FF054908600846006800F00EF860
:1012700010BD0000400000200000002048000020B9
:1012800010B5FEF791FF10BDFEF77CFF10B50446C8
:10129000002000F0EAFD204600F0CDFD10BDF0B5C5
:1012A0000446059D581920F007004FF08077061F6F
:1012B00030463760061F30463460061F30463260C5
:1012C0004FF01237061F304637604FF00337061FC6
:1012D000304637604FF00237061F304637607F10C8
:1012E000061F30463760061F304631604FF0113719
:1012F000061F304637604FF01037061F3046376004
:101300004FF00937061F304637604FF00837061F89
:10131000304637604FF00737061F304637604FF0D2
:101320000637061F304637604FF00537061F304638
:1013300037604FF00437061F30463760F0BD70B598
:1013400005460DB9002070BD681E284018B128461A
:10135000FFF7ACFB054605F1180000F043FF04461B
:10136000BCB104F11800606100F09AFFE06000F089
:10137000C2FF2061E06808B1206920B9204600F072
:1013800037FF0020DFE7256000206060A060204676
:10139000D9E70020D7E72DE9F04104460E4615466F
:1013A00098464146206900F0B1FF0CB106B115B96D
:1013B0000020BDE8F081D4E90101401AA84201D91A
:1013C000284602E0D4E90101401A05462168491E79
:1013D000A06808402168081AA84201D9284605E0FB
:1013E0002168491EA06808402168081A074622683B
:1013F000521EA0681040626981183A463046FEF7D6
:101400002AFFEA1BF0196169FEF725FFA06828444E
:10141000A0602846CDE72DE9F04704460E46154664
:1014200099460CB106B115B90020BDE8F0874946D0
:10143000E06800F03FFF0746781C08B90020F4E799
:10144000D4E90001401AA1680844A84201D92846FD
:1014500004E0D4E90001401AA16808440546D4E933
:101460000010491E08402168081AA84201D92846E0
:1014700005E0D4E90010491E08402168081A80469A
:10148000D4E90021521E1140626988184246314653
:10149000FEF7E1FEA5EB080206EB08016069FEF726
:1014A000DAFE606828446060E06800F011FF20699F
:1014B00000F03AFF2846B8E72DE9FF4F8BB083468E
:1014C0008A4600200A908046BBF1000F00D1824678
:1014D00000BF0D9810F8014B0D90B8F1000F0CD122
:1014E000252C03D14FF0010800275DE12346524629
:1014F0000AA95846FFF7D0FA56E1B8F1010F2AD1F0
:101500002B2C1AD006DC202C14D0232C09D0272C0D
:1015100018D115E02D2C0AD0302C05D0492C11D132
:101520000FE047F0010715E047F0020712E047F02F
:1015300004070FE047F008070CE047F0100709E048
:1015400000BF07E00D98401E0D904FF000094FF0CE
:10155000020800BF28E1B8F1020F24D12A2C0BD1D8
:101560000E9850F8049B0E90B9F1000FBDDAC9F146
:10157000000947F0040717E1302C0BDB392C09DC9C
:10158000302C07DD0D98401E0D900DA8FFF71BFCB9
:10159000814609E10D98401E0D904FF0FF300790F5
:1015A0004FF0030800E1B8F1030F28D12E2C1ED113
:1015B0000D980078302808DB0D980078392804DC75
:1015C0000DA8FFF700FC079009E00D9800782A2885
:1015D00005D10E98006807900E98001D0E90079890
:1015E000002801DA002000E00798079002E00D983B
:1015F000401E0D90002006904FF00408D4E0B8F192
:10160000040F20D14C2C14D0682C02D06C2C13D198
:1016100007E00698012801D1022000E00120069091
:1016200010E00698032801D1042000E00320069072
:1016300008E00520069005E00D98401E0D904FF043
:10164000050800BFB0E0B8F1050F94D1642C0BD0B1
:10165000692C09D06F2C07D0622C05D0752C03D0D3
:10166000782C01D0582C4DD10698032804D10E981F
:1016700020C8EE170E901AE0069800F0050048B159
:101680000E98C01D20F007000E90D0E900560830DB
:101690000E900CE0642C01D0692C04D10E9820C867
:1016A000EE170E9003E00E9820C800260E900A2038
:1016B0000890642C01D0692C02D147F0200715E076
:1016C000782C01D0582C08D1782C01D1402000E092
:1016D000002007431020089008E06F2C02D108205A
:1016E000089003E0622C01D102200890089852462D
:1016F0000AA9CDE90397CDE9005602905846FFF7B5
:1017000035FA4FE0702C13D10E9820C800260E90A9
:101710001020089047F04107089852460AA9CDE9E1
:101720000397CDE9005602905846FFF71FFA39E0BB
:10173000732C12D10E98006809900E98001D0E901F
:10174000099808B926A00990CDE9009752460AA940
:101750005846099BFFF7FAFA24E0632C0DD10E9846
:1017600010F8041BCCB20E90234652460AA95846E4
:10177000CDE90097FFF7C4F914E0252C06D12346E4
:1017800052460AA95846FFF787F90BE0252352462F
:101790000AA95846FFF780F9234652460AA9584637
:1017A000FFF77AF94FF00008002C7FF492AE00BFEB
:1017B00000BF0A98401E0A900A98504504D20020A3
:1017C0000A990BF8010007E0BAF1000F04D00021DC
:1017D000AAF101000BF800100A980FB0BDE8F08FD5
:1017E000286E756C6C29000070B504460D46E1B298
:1017F0000548FFF7F6F800BF80210348FFF724F8FB
:101800000028F9D0204670BD0038014010B50446CC
:10181000204601F041F9C0F1200010BD30B5124C56
:1018200004EBC11454F8223083600F4C743CC46044
:10183000D860743404EBC11444F822000A4C843C90
:10184000246A01258D402C43074D843D2C6205F10F
:10185000240454F82150012494402C43024D603D4F
:1018600045F8214030BD00001433002000BF00BF08
:10187000FEE700001FB5002008490968084A126801
:101880000923CDE90032CDE902100346054A06A13D
:10189000074801F0B3FC04B010BD0000A8350008F3
:1018A000A43500086D18000869646C65000000002C
:1018B000C809002001460348814201D10120704738
:1018C0000020FCE7C80900200348007808B1012087
:1018D00070470020FCE70000280000200348007843
:1018E00008B1012070470020FCE70000290000201B
:1018F000014604480068814201D101207047002060
:10190000FCE700003800002002465088884201D1E0
:10191000012070470020FCE702465088884201D130
:10192000012070470020FCE702465088884201D120
:10193000012070470020FCE710B5002401F03AF9BF
:1019400008B9012000E0002000B110BDFFF7BCFF86
:1019500000B1FAE7FFF7C2FF00B1F6E700BF01F000
:10196000A7F8044600BF00F0DBFA0B490860084600
:101970000068FFF7BDFF28B100BF204601F092F8D4
:1019800000BFE2E7FFF761FC00BF204601F08AF8E4
:1019900000BF00BFD9E700003C0000201FB5FEF7E4
:1019A0000BFF1EA0FFF748F801F086F800F04AFC94
:1019B00021A0FFF741F814204FF48061224A03234D
:1019C000CDE90032CDE902100023204A20A12248AF
:1019D00001F014FC04461CB1214620A0FFF72CF8AE
:1019E00029A0FFF729F814204FF480612A4A042324
:1019F000CDE90032CDE902100023284A28A12A4867
:101A000001F0FCFB04461CB1214628A0FFF714F8A6
:101A100001F038F9002004B010BD000057656C6378
:101A20006F6D6520746F2054656E63656E744F53DF
:101A30002074696E790D0A006372656174652074A3
:101A400061736B310D0A00007001002089250008C8
:101A50007461736B310000008000002054656E6378
:101A6000656E744F532043726561746520746173B1
:101A70006B31206661696C2120636F6465203A20B8
:101A80002564200D0A00000063726561746520748E
:101A900061736B320D0A00007005002025260008D6
:101AA0007461736B32000000F800002054656E63AF
:101AB000656E744F53204372656174652074617361
:101AC0006B32206661696C2120636F6465203A2067
:101AD0002564200D0A0000002DE9F04104460F4660
:101AE0009046802C06D200252046E11704EB917128
:101AF0008E1009E02046FEF7B9FF0546681F44FA3C
:101B000000F080F02006AD1F3D60C8F80060BDE821
:101B1000F0812DE9F04104460E461746802C08D38B
:101B20002046FEF7A3FF401F012101FA00F0451EE9
:101B30002C443A4631462046FFF7CEFFBDE8F081FF
:101B40000022154B1A60002005E00023124A121DE6
:101B500042F82030401C0328F7DB0F4A10320E4BAE
:101B60009A61DA6100221A62002012E000230A4A18
:101B7000243242F82030002108E0074A103202F1F6
:101B8000740303EBC01343F82120491C2029F4DB24
:101B9000401C1828EADB70479032002070B50446DC
:101BA0000D46FFF7CDFF2946204601F0EBF870BD4A
:101BB0000246002100BF07E0074850F8210090428C
:101BC00001D101207047491C0348001F006888426A
:101BD000F2DC0020F6E700009432002010B5024647
:101BE0000B461361587D10750120107302F1180027
:101BF00003F140010C68606004604160086000BF50
:101C000000BF10BD70B50446256900BFD4E90610B9
:101C10004860016000BF00BF00202061207395F87C
:101C200048000A2808D095F84810284601F008FC1A
:101C30000A2085F8480009E0687D217D884205D0AA
:101C4000217D284601F0FCFB0A20207570BD10B5EF
:101C500004462046FFF7D6FF0421201D00F0C8F8F7
:101C600010BD02465018704770B50446204601F07A
:101C700038F808B1002001E02068383805460DB179
:101C8000687D70BD0A20FCE7014608683838704757
:101C900010B50446204601F024F810BD30B50B46BF
:101CA0001968A1F1380407E0417D627D914200DAB4
:101CB00006E0A16BA1F1380404F138019942F3D197
:101CC00000BF00F1380104F13802556851600A6024
:101CD0004D60296000BF00BFC36400BF017D41F0BB
:101CE0000201017500BF30BD10B5044604F1380093
:101CF00000F0F1FF2046E16CFFF7D0FF10BD10B5FA
:101D0000044604F1380000F0E6FF0020E06400BF64
:101D1000207D20F00200207500BF10BD10B50446E4
:101D2000204600F0FEFF10BD0146012901D1002030
:101D30007047022902D140F2B440F9E7032902D1E9
:101D400040F2B540F4E7042902D140F2B640EFE793
:101D500040F2B340ECE72DE9F04106460F46144649
:101D60001D46304600F064F9002086F850003946E0
:101D70003046FFF793FF4FF0FF3184EA01006940DE
:101D8000084304D022462B46304600F099FCBDE8BB
:101D9000F08170B504460D4600BF207D00F00200C2
:101DA00020B184F850502046FFF7A9FF00BF207DE6
:101DB00000F0010010B1204600F092FC00BF207D31
:101DC00000F0040000B170BD204600F057F800BFDD
:101DD000F9E770B505460E46144624B93146284643
:101DE00000F01FF803E03146284600F001F870BD0E
:101DF0002DE9F04105460F462868A0F13804A06B94
:101E0000A0F1380607E039462046FFF7C2FF344606
:101E1000A06BA0F1380604F13800A842F3D1BDE868
:101E2000F08170B504460D462168A1F138002946BD
:101E3000FFF7AFFF70BD70B504462546B5F1807F52
:101E400000D311E025F07F40401E4FF0E0214861B3
:101E50000F214FF0FF30FEF751FB00204FF0E02143
:101E600088610720086100BF70BD10B50446214697
:101E70004FF0FF30FEF742FB10BD000010B50446E6
:101E8000607D06490968497D884203D1204600F0FB
:101E900021F802E0204600F003F810BD38000020D1
:101EA0002DE9F04105466E7D094800EBC604204649
:101EB00000F01FFF10B1304600F09CF805F1380724
:101EC000214638462268FEF795FF00BFBDE8F08145
:101ED0007009002070B50446657D084800EBC50612
:101EE000304600F006FF10B1284600F083F8314676
:101EF00004F1380000F0E6FE70BD0000700900201B
:101F000070B50446054800EBC405284600F0F1FE14
:101F100008B1002070BD28683838FBE77009002040
:101F2000044890F85400034A02EBC00108683838AE
:101F300070470000700900200A210E4A82F85410F0
:101F40000021084608E00B4A02EBC0010960496025
:101F500000BF411CC9B208460A28F4D3002006E09D
:101F600000220449503141F82020411CC8B2002809
:101F7000F6D07047700900200146064800EBC10208
:101F80001068A0F13803986B904201D1012070478E
:101F90000020FCE77009002070B506460A4800EBF7
:101FA000C605284600F0A5FE60B92C6800BFD4E93C
:101FB0000010FEF724FF00BF2946204600F082FEF5
:101FC00000BF00BF70BD00007009002070B5002583
:101FD000074C03E005F12000C5B2241D206800284D
:101FE000F8D0206800F058FD2844C5B2284670BDDE
:101FF000C009002000BF42110C4951F8221000F026
:102000001F02C2F11F0301229A4011434311074AE4
:1020100042F8231000BFA2F1500191F85410814200
:1020200003DDA2F1500181F854007047C00900207F
:1020300070B505466C7D164800EBC40600BFD5E9B7
:102040000E10FEF7DCFE00BF304600F052FE98B1E5
:1020500000BF61110E48503050F8210004F01F01FC
:10206000C1F11F020121914088436211084950319A
:1020700041F8220000BF00BF054890F85400A0427C
:1020800004D1FFF7A3FF024981F8540070BD00009E
:102090007009002070B5C4688368DC60A360144DCB
:1020A00005EBC11555F82250854220D1104D05EBA6
:1020B000C11545F822300E4D743DAB4217D1143591
:1020C00055F821600125954026EA0505084E603E39
:1020D00046F82150354655F8215045B9A6F124055A
:1020E0002D6A01268E40B543014E843E356270BD97
:1020F0001433002070B50546002600BF00F0D8FC60
:10210000064600BF2846FFF7FBFE04461CB12046EA
:10211000FFF7D0FB28B100BF304600F0C3FC00BF82
:1021200070BD2846FFF728FF28B100BF304600F0F9
:10213000B9FC00BFF4E7FFF7D1FB28B100BF304680
:1021400000F0B0FC00BFEBE7A06D10B1A06D401E29
:10215000A065A06D28B100BF304600F0A3FC00BF11
:10216000DEE70D490968487DFFF716FF2846FFF7AF
:10217000C7FE0446606D18B908480068A06501E014
:10218000606DA06500BF304600F08CFC00BFFFF71B
:10219000D3FB00BFC4E70000380000205C00002033
:1021A0000FB438B505A8009040F2FF110B48009B12
:1021B000049AFFF781F90446B4F5007F01D940F293
:1021C000FF1464232246054905480068FFF723F9F8
:1021D0000020009038BC5DF814FB00001441002082
:1021E0007000002010B50446204600F0A0FD10BD90
:1021F00010B50446204600F0ADFD10BD10B500F04E
:10220000E9FF10BD10B500234FF400720A490B48D6
:102210000068FFF7C0F80A4908600846006800280F
:1022200009DD08460168044800F05DF804480168CB
:102230000148FEF729F810BD143F0020700000206F
:10224000740000201CB54FF48050FFF778F80E4959
:1022500008600846006810B94FF0FF301CBD3220FE
:1022600008210B020022CDE90010084908A000F067
:102270006AF80A4908600846006810B94FF0FF3054
:10228000ECE70020EAE70000700000203F23000890
:1022900073616C6F665F7461736B0000780000207F
:1022A00010B52020FFF79EFF0446204600F0C8FD31
:1022B000204610BD70B505460C4622460023284630
:1022C00000F0EAFD10B14FF0FF3070BD0020FCE7D8
:1022D00010B50446204600F071FE10B14FF0FF30FB
:1022E00010BD0020FCE770B504460D462946204687
:1022F00000F09AF870BD10B51020FFF773FF044688
:102300000021204600F0D1FE204610BD70B50546E4
:102310000C4622460023284600F0EAFE10B14FF09A
:10232000FF3070BD0020FCE710B50446204600F0E9
:1023300049FF10B14FF0FF3010BD0020FCE701E075
:10234000FFF760FFFCE72DE9F04F85B005460E462C
:1023500017461C46DDE90E9A7820FFF743FF0490EC
:102360002046FFF73FFF804609F0FF003B4632461C
:102370002946CDE9024ACDE90008049800F03EFF65
:102380008346BBF1000F05D0049800F0E3FC404603
:1023900000F0E0FC049805B0BDE8F08F70B504468D
:1023A0000D46002600BF0CB9012000E0002010B14E
:1023B00040F24C4070BD00BF00BF41F6EE312046F8
:1023C000FFF7AAFA10B940F24D40F3E700BF00BF93
:1023D00000F06EFB064600BFA089E189884207D164
:1023E00000BF304600F05EFB00BF4FF4E160E1E764
:1023F000201DFFF74DFC48B1A089401CA08100BF03
:10240000304600F04FFB00BF0020D3E72A460121F1
:10241000201DFFF7DEFC00BF304600F043FB00BF8D
:10242000FFF78AFA0020C5E770B504460D4621463D
:102430000248FEF7EBFA284670BD00000038014064
:1024400070B5044600252046FFF734FA10B140F27B
:102450006C7070BD00BF00F02BFB054600BF04F19F
:10246000400000F04EFC10B9204600F04EF8204627
:1024700000F083F810B12046FFF7DAFD00BF207DA1
:1024800000F0010010B1204600F02AF900BF207DC5
:1024900000F0020010B12046FFF731FC00BFD4E984
:1024A00008104860016000BF00BF204600F044F8FB
:1024B00000BF0820207500BF00BF284600F0F2FAD8
:1024C00000BFFFF739FA0020C3E710B5002000F085
:1024D00087FF10BD2DE9F04105460A27286CA0F1C1
:1024E000180609E0301DFFF7BFFB0446BC4200DAC6
:1024F0002746B069A0F1180606F1180005F1400161
:102500008842EFD13846BDE8F08170B50546286CA9
:10251000A0F11804A069A0F1180606E02046FFF714
:1025200096FB3446A069A0F1180604F1180005F1E5
:1025300040018842F2D170BD10B5044600BF0020B2
:10254000E08000BF04F1200000F0EEFB04F1300059
:1025500000F0EAFB04F1380000F0E6FB04F1400073
:1025600000F0E2FB0A2084F84800002084F85000C4
:10257000E064E0652066606610BD0146087D08B92C
:10258000012070470020FCE728E000BF14A0FFF7FF
:1025900007FEFFF733FE0446214615A0FFF700FEB5
:1025A00016A0FFF7FDFD19A0FFF7FAFD00BF00BF61
:1025B00018A0FFF7F5FDFFF721FE044621460CA009
:1025C000FFF7EEFD0DA0FFF7EBFD10A0FFF7E8FD14
:1025D00000BF4FF47A70002100F0B6FED5E700008E
:1025E0001B0A5B33326D5B495D203E3E20000000DC
:1025F0005B54533A2025645D200000005461736BE6
:10260000312052756E6E696E670D0A001B5B306D6E
:10261000000000001B0A5B33316D5B455D203E3ED0
:102620002000000028E000BF14A0FFF7B9FDFFF76D
:10263000E5FD0446214615A0FFF7B2FD16A0FFF701
:10264000AFFD19A0FFF7ACFD00BF00BF18A0FFF75A
:10265000A7FDFFF7D3FD044621460CA0FFF7A0FD20
:102660000DA0FFF79DFD10A0FFF79AFD00BF4FF4EE
:102670007A70002100F068FED5E700001B0A5B338A
:10268000336D5B575D203E3E200000005B54533AA3
:102690002025645D200000005461736B3220527568
:1026A0006E6E696E670D0A001B5B306D00000000E6
:1026B0001B0A5B306D5B445D203E3E200000000045
:1026C00070B5044615461E462A463346204600F09D
:1026D00013F800BF207D40F00100207500BF70BDE1
:1026E00010B50446204600F06BF800BF207D20F0B6
:1026F0000100207500BF10BD2DE9F84F82469046BD
:10270000994600200090834600210E460F4600BFE8
:1027100000F0CEF9009000BFCAE90A892748006896
:10272000A0F1300B1DE0DBE90A108C1940EB070526
:10273000DAE90A10091BA84100D217E0DAE90A0118
:1027400060406940084306D19AF815009BF81510BF
:10275000884200DA0AE026462F46DBF83000A0F176
:10276000300B0BF1300015498842DCD100BFDAE9AB
:102770000A10891B60EB0700CAE90A100BF1300050
:102780000E49884208D0DBE90A20DAE90A31D21A78
:1027900060EB0100CBE90A200AF130000BF13001B7
:1027A0004A68486001604260106000BF00BF00BF1F
:1027B000009800F077F900BFBDE8F88F54000020C2
:1027C00070B50446002600BF00F072F9064600BF4F
:1027D00004F1300000F09DFA08B1002001E0206B08
:1027E00030380546F5B11649206B88421AD06FF093
:1027F00001014810D4E90A238A1A60EB0300D5E9E5
:102800000A13511A984108D3D5E90A20D4E90A31AC
:10281000D2184841C5E90A2004E06FF001014810D0
:10282000C5E90A1000BFD4E90C104860016000BF80
:1028300000BF00BF304600F035F900BF70BD00009A
:10284000540000202DE9F04704460D464FF00009E2
:1028500000BF00F02DF9814600BF2948D0E90010E3
:1028600009196841264AC2E90010264800F051FAC9
:1028700030B100BF484600F015F900BFBDE8F08751
:1028800020480068A0F13007D7E90A01201A75EB4B
:10289000010003D30021B962F9620CE0D7E90A1004
:1028A000091B60EB0500C7E90A1000BF484600F0AD
:1028B000F9F800BFE2E713480068A0F13006306B7A
:1028C000A0F130080FE00023D6E90A105940584023
:1028D000014300D00CE002213046FFF75AFA464689
:1028E000306BA0F1300806F1300006498842EAD189
:1028F00000BF00BF484600F0D5F800BF00BFBDE7ED
:1029000030000020540000200020704770B50446BD
:102910000026002500BF00F0CBF8064600BF1D4A88
:10292000D4E9063006CA59185041C4E906101A48BD
:102930008068A0F10C050AE0D4E90630D5E906125A
:10294000591A904100D208E0E868A0F10C0505F1A1
:102950000C00114908318842EED100BF04F10C008F
:1029600005F10C014A68486001604260106000BFD8
:1029700000BF0948816804F10C00814204D1064A75
:10298000D4E90610C2E9001000BF304600F08AF812
:1029900000BF70BD30000020600000202DE9F04134
:1029A0000446002700BF00F083F8074600BF174821
:1029B0008068A0F10C0500BFD4E9031048600160F5
:1029C00000BF00BFA54219D104F10C00016881428B
:1029D00001D1012100E0002109B1002001E0E068FF
:1029E0000C3806462EB94FF0FF31084A116051608D
:1029F00004E0064AD6E90610C2E9001000BF3846D6
:102A000000F050F800BFBDE8F08100006000002039
:102A100070B51F48D0E900301E4A06CA591A9041C5
:102A200000D270BD00F0D0F819488068A0F10C0405
:102A3000E068A0F10C0520E01648D4E90621D0E9B1
:102A400000309A1A884100D21DE02046FFF7A6FF09
:102A5000208E022807D1D4E90A01C4E906012046E4
:102A6000FFF754FF02E0032084F83200D4E901109C
:102A700088472C46E068A0F10C0504F10C000449DD
:102A800008318842D8D100BF00F0CCF800BFC8E7B9
:102A9000600000203000002010B504462046FDF7FD
:102AA0006EFB10BD10B504462046FDF765FB10BD5A
:102AB00010B5FDF75DFB10BD10B5FEF7CBFBFFF7C2
:102AC0003BFA4FF420510A48FFF768F804460CB16E
:102AD000204610BDFEF7CEFE04460CB12046F8E7B6
:102AE000FFF712FF04460CB12046F2E70020F0E7A2
:102AF000900A002000B500F05DF800B900BD08485C
:102B00000078FA2801DB012000E0002000B1F5E7A1
:102B100003480078401C0249087000BFEEE700003F
:102B20002800002010B5002400F044F800B910BDC2
:102B300000BFFFF7BDFF044600BFFEF7C5FE28B982
:102B400000BF2046FFF7AEFF00BFF0E71748007850
:102B5000401E16490870FEF7B7FE28B100BF204698
:102B6000FFF7A0FF00BFE2E7FEF7B8FE28B100BF05
:102B70002046FFF797FF00BFD9E7FFF7D1F90C49CF
:102B8000086008460068FEF7B3FE28B100BF204683
:102B9000FFF788FF00BFCAE7FEF772FB00BF2046C1
:102BA000FFF780FF00BF00BFC1E700002800002042
:102BB0003C00002003480078012800D17047002025
:102BC000FCE700002A00002010B5002400BFFEF73B
:102BD0007BFE08B1012000E0002010B14FF4C87066
:102BE00010BD00BFFFF7E6FF10B94FF4FA70F7E72A
:102BF0000B480078FA2802DB4FF41670F0E700BFAC
:102C0000FFF756FF044600BF05480078401C044902
:102C1000087000BF2046FFF745FF00BF0020DFE738
:102C20002900002010B5002400BFFEF74DFE08B1BA
:102C3000012000E0002010B14FF4C87010BD00BFAB
:102C4000FFF7B8FF10B94FF4FA70F7E7FEF746FE4A
:102C500010B940F2A560F1E700BFFFF729FF044675
:102C600000BF07480078401E0549087000BF204695
:102C7000FFF718FF00BFFEF75FFE0020DEE7000051
:102C80002900002010B5FFF795FF08B1012000E0F2
:102C9000002010B140F2F51010BDFFF741F90649D0
:102CA000086008460068054908600120044908706A
:102CB000FEF7EAFA0020EFE73C0000203800002091
:102CC0002A00002070B505460C4622462846616859
:102CD000FEF790F870BDD0E900124A60116000BFA5
:102CE000704701460868884201D1012070470020E2
:102CF000FCE701460868884201D1012070470020A6
:102D0000FCE701460868884201D101207047002095
:102D1000FCE701460868884201D101207047002085
:102D2000FCE700604060704700604060704770B52D
:102D3000054604212846FEF718F906463046FEF7F8
:102D400061F904460CB9002070BD31462046FEF7FB
:102D5000CBF9F9E770B5044604B970BD00BFA4F122
:102D6000080005462846FEF76AF92846FEF796F958
:102D700005462846FEF77DF905462846FEF729F95F
:102D800000BFEAE72DE9F04104460E4600BF2B489C
:102D90000068032801D1012000E0002018B140F2B2
:102DA0002230BDE8F0812046FEF702FF10B140F26C
:102DB0002330F6E7A6F1080004214A1E0240851AD6
:102DC00000BF04F0030010B14FF44870E9E70C2D88
:102DD00002D3B5F1804F02D940F22130E1E76FF024
:102DE00003012046FEF73DFF074629463846FEF719
:102DF000E2F93846FEF7D0F93846FEF7D7F93846FB
:102E0000FEF7E7F83846FEF7F4F880460021404622
:102E1000FEF7D1F94046FEF7D4F94046FEF7C1F976
:102E200000BF064801680068401C044A1060101D7D
:102E300040F8214000BF0020B3E70000903200209E
:102E400010B5044600BFFEF73FFD08B1012000E0C9
:102E5000002010B14FF4C87010BD00BF00BF0CB906
:102E6000012000E0002010B140F24C40F4E700BF28
:102E700042F6EE30608000BF201DFEF74FFF0020BD
:102E8000207320610A20207504F118000060406062
:102E900000BF0020E0E700002DE9F04104461546A0
:102EA0001E46002700BFFEF70FFD08B1012000E01D
:102EB000002018B14FF4C870BDE8F08100BF00BF1A
:102EC0000CB9012000E0002010B140F24C40F3E7C3
:102ED00000BF00BF42F6EE312046FEF715FD10B9E7
:102EE00040F24D40E8E700BF00BFFFF7E1FD0746B5
:102EF00000BF207B58B9304801682046FEF76EFEBF
:102F000000BF3846FFF7CEFD00BF0020D4E72069A0
:102F1000FEF7EEFCA8B1207BFF2807D100BF3846A2
:102F2000FFF7C0FD00BF40F2EA30C5E7207B401C40
:102F3000207300BF3846FFF7B5FD00BF40F2E9300F
:102F4000BAE7002185EA01007140084307D100BFBC
:102F50003846FFF7A7FD00BF4FF49660ACE7FEF7D9
:102F6000BDFC38B100BF3846FFF79CFD00BF40F202
:102F7000B140A1E72069407D0F490968497D884239
:102F800005DD0D4A1268517D206900F059FA2A4684
:102F90003346211D08480068FEF7DDFE00BF3846B5
:102FA000FFF780FD00BFFEF7C7FC0349096891F8F1
:102FB0005000FEF7B9FE7FE7380000202DE9F0470A
:102FC00004464FF0000900BFFEF77EFC08B1012067
:102FD00000E0002018B14FF4C870BDE8F08700BFD2
:102FE00000BF0CB9012000E0002010B140F24C40BD
:102FF000F3E700BF00BF42F6EE312046FEF784FC47
:1030000010B940F24D40E8E700BF00BFFFF750FDA8
:10301000814600BF2069FEF76BFC38B900BF484607
:10302000FFF740FD00BF4FF47A70D6E7207B401ECB
:103030002073207B002807DD00BF4846FFF732FDE4
:1030400000BF40F2E930C8E72046FEF7DBFD201D57
:10305000FEF71EFE30B100BF4846FFF723FD00BF5C
:103060000020BAE7201DFEF70FFE0646274635462C
:1030700029463846FEF7B2FD381DFEF7F5FD8046BD
:10308000687D404503DD4146284600F0D9F900BF80
:103090000121201DFEF7C5FE00BF4846FFF702FDD7
:1030A00000BFFEF749FC002097E770B504460D46C7
:1030B0004FF6FF722946204600F001F870BD70B54A
:1030C00004460D46164600BF0CB9012000E0002062
:1030D00010B140F24C4070BD00BF41F6EE30608050
:1030E00000BF201DFEF71AFEA581E6810020F2E751
:1030F0002DE9F041044615461E46002700BF0CB9D5
:10310000012000E0002018B140F24C40BDE8F08101
:1031100000BF00BF41F6EE312046FEF7FDFB10B9BF
:1031200040F24D40F2E700BF00BFFFF7C1FC074689
:1031300000BFA089002809DDA089401EA08100BF32
:103140003846FFF7AFFC00BF0020DFE7002185EA2B
:1031500001007140084307D100BF3846FFF7A2FCC9
:1031600000BF4FF49660D1E7FEF7AEFB38B100BF69
:103170003846FFF797FC00BF40F2B240C6E7FEF7C3
:10318000ADFB38B100BF3846FFF78CFC00BF40F202
:10319000B140BBE72A463346211D09480068FEF7C7
:1031A000DAFD00BF3846FFF77DFC00BFFEF7C4FB29
:1031B0000349096891F85000FEF7B6FDA6E7000044
:1031C0003800002010B5044600212046FFF7E6F83D
:1031D00010BD000070B5002600BFFFF769FC064671
:1031E00000BF054830C800BF3046FFF75BFC00BF9A
:1031F0002046294670BD0000300000202DE9FC5F0C
:1032000004468B4615461E460CAF97E88007002003
:10321000019000BFFEF758FB08B1012000E000203C
:1032200018B14FF4C870BDE8FC9F00BF00BF0CB9D7
:10323000012000E0002010B140F24C40F3E700BF55
:1032400000BF0DB9012000E0002010B140F24C4059
:10325000E9E700BF00BFB8F1000F01D1012000E095
:10326000002010B140F24C40DDE700BFB9F1400F43
:1032700001D2012000E0002010B140F27370D2E7CB
:10328000092F05D12046FEF715FB08B9012000E003
:10329000002010B140F26E70C5E7092F01DD01205A
:1032A00000E0002010B140F26E70BCE72046FFF74E
:1032B00043F904F1200021490A685060026041602E
:1032C000086000BF00BF201D4DF6D121418000BF26
:1032D00043461B4A31462846CDF80090FDF7DFFFF4
:1032E0002060E5602661C4F808B06775C4F81880EE
:1032F000C4F81C90C4F854A0BAF1000F03D11148CF
:103300000068A06501E0C4F858A000BFFFF7D0FB3B
:10331000019000BF00BF0020207500BF2046FEF7CF
:10332000D9FD00BF0198FFF7BDFB00BFFFF742FCCE
:1033300008B1FEF701FB002075E700004C000020FB
:10334000CB2400085C00002070B504460D46002622
:1033500000BFFEF7B9FA08B1012000E0002010B16B
:103360004FF4C87070BD00BFFEF7B8FA10B140F25C
:10337000A460F7E7002184EA01006940084301D115
:10338000012000E0002018B100F0D6F80020E9E7A5
:103390004FF0FF3184EA01006940084301D1012068
:1033A00000E0002008B16520DCE700BFFFF780FBEC
:1033B000064600BF22462B4608480068FFF780F902
:1033C00006480068FEF734FE00BF3046FFF76AFB90
:1033D00000BFFEF7B1FA0020C4E70000380000206B
:1033E00010B5044600BFFEF76FFA08B1012000E0F7
:1033F000002010B14FF4C87010BD00BF0CB90120FF
:1034000000E0002008B10D48046800BF4DF6D1214E
:10341000201DFEF789FA10B940F24D40ECE700BFDD
:103420002046FEF765FA28B1FEF758FA10B140F2CF
:10343000A460E1E72046FFF703F8DDE7380000204D
:103440002DE9F04104460D46002700BF0CB90120CC
:1034500000E0002018B140F24C40BDE8F08100BF10
:1034600000BF4DF6D121201DFEF75EFA10B940F2E3
:103470004D40F2E700BF00BFFEF726FA08B1012079
:1034800000E0002010B14FF4C870E6E700BF092D3E
:1034900001DB012000E0002010B140F26E70DCE79B
:1034A00000BFFFF705FB074600BF607DA84208D1BB
:1034B00000BF3846FFF7F6FA00BFFEF73DFA0020DE
:1034C000CBE704F14000FFF71CFC40B92046FFF7B2
:1034D00001F80646B54202DD84F84850354600BF83
:1034E000207D00F0020020B165752046FEF7FCFB50
:1034F00019E000BF207D00F0010008B1657512E001
:103500002046FFF73AF870B12046FEF791FD657549
:103510002046FEF7EDF918B12046FEF7C1FC02E0A7
:103520002046FEF7D7FC00BF3846FFF7BBFA00BFC6
:10353000FEF702FA002090E710B50024FEF7C4F968
:1035400000B110BD00BFFFF7B3FA044600BF084842
:103550000068FEF76DFD06480068FEF7BBFC00BF83
:103560002046FFF79FFA00BFFEF7E6F900BFE8E745
:103570003800002010B5FFF71DFB08B9012000E05E
:10358000002000B110BD01200021FFF75BF9FFF71B
:103590003FFA03490968487DFEF7ACFD00BFF1E73B
:1035A00038000020400A002050000000CC35000800
:1035B00000000020800000007A0A00084C36000855
:1035C00080000020984600008A0A000800A24A04F1
:1035D00000000000000000000102030406070809C3
:1035E00000000000010203040102030406070809A9
:1035F00002040608000000000000000000000000B7
:10360000000000000000000000000000E8030000CF
:1036100000000000000000004C0000204C000020D2
:10362000540000205400002064000000FFFFFFFF52
:10363000FFFFFFFF6800002068000020000000007E
:0C3640000000000000000000000000007E
:0400000508000131BD
:00000001FF
