:020000040800F2
:10000000804F002045010008510400084904000801
:100010004D0400082D030008EB0900080000000053
:1000200000000000000000000000000019060008A9
:100030003103000800000000B301000805070008B4
:100040005F0100085F0100085F0100085F01000810
:100050005F0100085F0100085F0100085F01000800
:100060005F0100085F0100085F0100085F010008F0
:100070005F0100085F0100085F0100085F010008E0
:100080005F0100085F0100085F0100085F010008D0
:100090005F0100085F0100085F0100085F010008C0
:1000A0005F0100085F0100085F0100085F010008B0
:1000B0005F0100085F0100085F0100085F010008A0
:1000C0005F0100085F0100085F0100085F01000890
:1000D0005F0100087D0700085F0100085F0100085C
:1000E0005F0100085F0100085F0100085F01000870
:1000F0005F0100085F0100085F0100085F01000860
:100100005F0100085F0100085F0100085F0100084F
:100110005F0100085F0100085F0100085F0100083F
:100120005F0100085F0100085F0100085F0100082F
:10013000DFF80CD000F0E8F800480047FD1900088F
:10014000804F00200648804706480047FEE7FEE74C
:10015000FEE7FEE7FEE7FEE7FEE7FEE7FEE7FEE777
:100160001D0700083101000872B6704762B670477B
:10017000EFF3108072B6704780F310887047B0FAC2
:1001800080F0704717484FF0FF010170002080F3A6
:10019000098815484FF08051016062B6FEE71248A9
:1001A0004FF08051016070470F484FF0805101605F
:1001B000704772B6EFF3098028B1203880E8F00F5D
:1001C0000A4909680860094809490A680260106814
:1001D00090E8F00F203080F309884EF0040E62B6EC
:1001E000704700BF22ED00E004ED00E03800002081
:1001F0003C0000202DE9F05F0546002092469B461A
:1002000088460646814640241BE02846414647462C
:10021000224600F069F853465A46C01A914110D35D
:1002200011461846224600F050F82D1A67EB0108D7
:100230004F4622460120002100F047F817EB000945
:100240004E41201EA4F10104DFDC484631462A4617
:100250004346BDE8F09F40EA01039B0703D009E055
:1002600008C9121F08C0042AFAD203E011F8013BA2
:1002700000F8013B521EF9D27047D2B201E000F8FB
:10028000012B491EFBD270470022F6E710B513463A
:100290000A4604461946FFF7F0FF204610BD30B568
:1002A0000B46014600202022012409E021FA02F534
:1002B0009D4205D303FA02F5491B04FA02F52844CE
:1002C000151EA2F10102F1DC30BD202A04DB203A28
:1002D00000FA02F1002070479140C2F1200320FA99
:1002E00003F3194390407047202A04DB203A21FA97
:1002F00002F00021704721FA02F3D040C2F120023F
:100300009140084319467047064C074D06E0E068E7
:1003100040F0010394E8070098471034AC42F6D34C
:10032000FFF70AFFF03400081035000800BFFEE7B1
:1003300070472DE9F04102460025002600200023E9
:100340000024002791F803C00CF00F0591F803C0BA
:100350000CF0100CBCF1000F03D091F802C04CEA75
:10036000050591F800C0BCF1000F31D014680020E1
:100370002BE04FF0010C0CFA00F3B1F800C00CEACE
:1003800003069E4220D183004FF00F0C0CFA03F7B6
:10039000BC4305FA03FC4CEA040491F803C0BCF129
:1003A000280F06D14FF0010C0CFA00FCC2F814C063
:1003B0000AE091F803C0BCF1480F05D14FF0010CE1
:1003C0000CFA00FCC2F810C0401C0828D1D31460FD
:1003D000B1F800C0BCF1FF0F34DD546800202EE0FE
:1003E00000F1080C4FF0010808FA0CF3B1F800C056
:1003F0000CEA03069E4221D183004FF00F0C0CFA49
:1004000003F7BC4305FA03FC4CEA040491F803C06B
:10041000BCF1280F05D100F1080C08FA0CF8C2F85D
:10042000148091F803C0BCF1480F07D100F1080C0B
:100430004FF0010808FA0CF8C2F81080401C082898
:10044000CED35460BDE8F08100BFFEE700BFFEE7F9
:10045000704708B54FF4A06000F046F825208DF8ED
:10046000000001208DF801008DF802008DF80300D6
:10047000684600F001F808BD70B5002100230F2286
:10048000C47804B3154C246804F4E064C4F5E06453
:10049000210AC1F10403CA40447804FA03F18478C4
:1004A0001440214309010E4C0678A155047804F04C
:1004B0001F050124AC4005786D11AD0005F1E02564
:1004C000C5F8004109E0047804F01F050124AC40A0
:1004D000044D0678761145F8264070BD0CED00E01D
:1004E00000E400E080E100E002490143024A1160BB
:1004F000704700000000FA050CED00E010B5002880
:1005000007DA0A07140E054A00F00F031B1FD45424
:1005100003E00A07130E024A135410BD18ED00E061
:1005200000E400E029B1064A92690243044B9A6153
:1005300004E0034A92698243014B9A6170470000CC
:100540000010024030B500210022002400232D4D70
:100550006D6805F00C0121B1042905D0082923D1CB
:1005600005E0294D056022E0274D05601FE0254D7F
:100570006D6805F47012234D6D6805F48034022512
:1005800005EB92421CB9214D554305600BE01D4D12
:100590006D6805F400351DB11C4D5543056002E042
:1005A000194D5543056002E0174D056000BF00BFBF
:1005B000144D6D6805F0F0010909154D6B5C056877
:1005C000DD4045600F4D6D6805F4E061090A104D8E
:1005D0006B5C4568DD4085600A4D6D6805F46051CF
:1005E000C90A0B4D6B5C4568DD40C560054D6D6803
:1005F00005F44041890B074D6B5CC568B5FBF3F50D
:10060000056130BD0010024000127A0000093D0073
:100610001400002024000020704710B500F002F8FC
:1006200010BD00000CB50020019000903348006818
:1006300040F480303149086000BF3048006800F461
:10064000003000900198401C0190009818B9019862
:10065000B0F5A06FF1D12948006800F4003010B166
:100660000120009001E0002000900098012843D173
:100670002348006840F010002149086008460068DF
:1006800020F0030008600846006840F0020008609F
:100690001A4840681949486008464068486008465A
:1006A000406840F4806048600846406820F47C1050
:1006B00048600846406840F4E81048600846006812
:1006C00040F08070086000BF0C48006800F00070C7
:1006D0000028F9D00948406820F003000749486025
:1006E0000846406840F00200486000BF0348406888
:1006F00000F00C000828F9D10CBD000000100240E9
:100700000020024010B502F025FA28B102F0C2F92B
:1007100002F0D2FE02F0D6F910BD000010B5134869
:10072000006840F00100114908600846406810491F
:1007300008400E494860084600680E4908400B49C9
:1007400008600846006820F4802008600846406879
:1007500020F4FE0048604FF41F008860FFF75DFF43
:100760004FF000600449086010BD00000010024016
:100770000000FFF8FFFFF6FE08ED00E010B540F2C4
:100780002551064800F06DF838B1044800F024F90E
:10079000C4B22146014800F024F910BD00380140E0
:1007A00021B1828942F40052828104E082894DF6AF
:1007B000FF731A408281704700B585B00121042083
:1007C000FFF7B0FE01218803FFF7ACFE4FF4007085
:1007D000ADF8100018208DF8130003208DF81200DA
:1007E00004A91748FFF7A5FD4FF48060ADF810008D
:1007F00004208DF8130004A91148FFF79AFD4FF467
:10080000E13000900020ADF80400ADF80600ADF82E
:100810000800ADF80C000C20ADF80A006946094844
:1008200000F06EF8FFF715FE012240F22551054851
:1008300000F041F801210348FFF7B2FF05B000BD09
:10084000000801400038014002460020B1F5007F59
:1008500000D100BF13880B400BB1012000E0002045
:10086000704770B50246002400230025002040F6A2
:100870006A16B14200D100BFC1F3421501F01F0357
:10088000012606FA03F3012D02D19689334006E0D2
:10089000022D02D1168A334001E0968A33400C12B1
:1008A000012606FA04F41688344013B10CB1012075
:1008B00000E0002070BDF0B50346002400260025AE
:1008C000002040F66A17B94200D100BF1846C1F3B4
:1008D000421401F01F06012707FA06F5012C01D189
:1008E0000C3004E0022C01D1103000E014301AB1B9
:1008F00007682F43076002E00768AF430760F0BD59
:100900002DE9F04786B005460E460024A24600BFFA
:10091000A1460027B08900B100BF2F462C8A4CF6B3
:10092000FF700440F08804432C82AC894EF6F3102B
:100930000440B08831890843718908430443AC817D
:10094000AC8A4FF6FF400440B0890443AC8201A852
:10095000FFF7F8FD1F48874202D1DDF810A001E043
:10096000DDF80CA0A88900F4004040B10AEBCA00F1
:1009700000EB0A1031684900B0FBF1F807E00AEB20
:10098000CA0000EB0A1031688900B0FBF1F864205E
:10099000B8FBF0F004012009642101FB1089A8894B
:1009A00000F4004040B1322000EBC900B0FBF1F090
:1009B00000F00700044308E0322000EB0910642136
:1009C000B0FBF1F000F00F0004432C8106B0BDE84D
:1009D000F08700000038014001468888C0F3080015
:1009E0007047C1F308028280704700BFFEE770B510
:1009F00004460D4629462046FFF7F3FF00BF80213D
:100A00002046FFF721FF0028F9D070BD70B50646DB
:100A10000C46002500BF615D3046FFF7E8FF6D1C06
:100A2000605D0028F7D100BF40213046FFF70CFF82
:100A30000028F9D070BD00000FB4054B10B503A914
:100A4000044A029800F0E4F910BC5DF814FB0000C1
:100A50008D1800088400002010B50446E143491CAD
:100A600004EA010000F024FF401E10BD10B504464A
:100A7000204600F01DFF401E10BD02E008C8121FF6
:100A800008C1002AFAD170477047002001E001C177
:100A9000121F002AFBD1704710B50C68944201D296
:100AA0000C6803550C68641C0C6010BD10B504463E
:100AB000601E00F005F8401E012101FA00F010BD93
:100AC0000146202209B900207047080C000408B92B
:100AD0000904103A01F07F4008B90902083A01F010
:100AE000704008B90901121F01F0404008B989009F
:100AF000921E01F0004008B94900521E1046E3E77B
:100B00002DE9F0470746884691469A46DDE90856A2
:100B10000024002D00DD6C1E002C00DA00246CB1D6
:100B200006F0040050B905E020234A464146384605
:100B3000FFF7B2FF201EA4F10104F5DC53464A463C
:100B400041463846FFF7A8FF6CB106F0040050B1EB
:100B500005E020234A4641463846FFF79DFF201E08
:100B6000A4F10104F5DCBDE8F08700002DE9FF4F9A
:100B700097B024AF97E88007289D00200690039740
:100B80002020029067A001906BA00090B9F1020FA5
:100B900002DBB9F1100F02DD1BB0BDE8F08F05F0EC
:100BA000400008B10098019005F0040008B125F05C
:100BB000020505F0200058B100210846791A78EBAB
:100BC000000005DA784203904FF02D0006900AE00D
:100BD00005F0100010B12B20069004E005F008008D
:100BE00008B120200690002600BF039890FBF9F181
:100BF00009FB11010198425C3046761C07A90A5492
:100C0000039890FBF9F0039003980028EDDC002492
:100C1000069820B12146641C04AA0698505405F099
:100C20000100B8B1B9F1080F02D0B9F1100F11D11C
:100C300030222046641C04A90A54B9F1100F09D1CE
:100C400005F0400008B1782200E058222046641CDC
:100C500004A90A54002004A908553019504503DAA4
:100C6000AAEB0600001B00E0002083463019504527
:100C700003DAAAEB0600A0EB040BBBF1000F25DDA5
:100C800005F0040010BB05F0020070B1002406E07E
:100C900004A8035D17A807C8FFF7FEFE641C04A89C
:100CA000005D0028F4D18DF810000AE005F0020084
:100CB00008B1302000E02020034617A807C8FFF73E
:100CC000EBFEBBF10000ABF1010BEFDC002406E012
:100CD00004A8035D17A807C8FFF7DEFE641C04A87C
:100CE000005D0028F4D105E007A8835D17A807C8B8
:100CF000FFF7D2FE301EA6F10106F5DCBBF1000FB6
:100D00000DDD05F0040050B104E0029B17A807C8F0
:100D1000FFF7C2FEBBF10000ABF1010BF5DC00BF39
:100D20003AE7000030313233343536373839414212
:100D30004344454600000000303132333435363705
:100D40003839616263646566000000002DE9F04790
:100D50008046894692461C46DDE908670025002E3C
:100D600003DD204600F030F9351A002D00DA0025A9
:100D70006DB107F0040050B905E020235246494602
:100D80004046FFF789FE281EA5F10105F5DC06E0C7
:100D900014F8013B524649464046FFF77DFE207855
:100DA0000028F5D16DB107F0040050B105E0202313
:100DB000524649464046FFF76FFE281EA5F1010541
:100DC000F5DCBDE8F087014600200AE00A681278E9
:100DD00000EB800302EB4302A2F130000A68521CD0
:100DE0000A600A681278302A03DB0A681278392A06
:100DF000ECDD7047506002604160086070475060F1
:100E00000260416008607047486001607047000000
:100E10002DE9FF4F8BB09A460F460546002606E0A7
:100E200025280BD052460D9990476D1C761C2878CA
:100E30000028F5D10FB03046BDE8F08F0024A04661
:100E40000122604900E0044315F8013F203B02FA0B
:100E500003F00842F7D128782E2817D115F8010F92
:100E600044F004042A280ED06FF02F022878A0F155
:100E7000300109290AD808EB880102EB410100EB97
:100E800001086D1CF2E757F8048B6D1C287869285F
:100E90003ED006DC0028CDD063280BD0642804D1D6
:100EA00036E0732810D075284BD052460D999047E4
:100EB000761C85E017F8040B8DF8000000208DF8F3
:100EC0000100E946012003E057F8049B4FF0FF3092
:100ED00061074FF0000401D40AE0641C44450DDAB8
:100EE0008442FADB19F804100029F6D106E0641CEC
:100EF0008442FCDB19F804100029F8D1264404E0F0
:100F000019F8010B52460D999047641EF8D257E02C
:100F100001CF4FF00A0B002802DA40422D2102E0F7
:100F2000210504D52B218DF82410012103E0E107D0
:100F300005D02021F7E70DF1200908910CE00021F0
:100F4000F9E701CF4FF00A0BF9E75946FFF7A7F988
:100F500001F1300209F8012D0028F6D1ADEB0900AE
:100F600000F1200B600701D44FF00108D84502DDE5
:100F7000A8EB0B0000E000208046002406E009A852
:100F80005246005D0D999047641C761C0898844277
:100F9000F5DB04E0302052460D999047761CB8F1FD
:100FA0000001A8F10108F5DC05E019F8010B524633
:100FB0000D999047761CBBF10001ABF1010BF4DCFD
:100FC0006D1C34E7092801000146002001E0401CA7
:100FD000491C0A78002AFAD1704770B504460E46BB
:100FE00000250CB9002070BD3146204600F011F8F4
:100FF0000546B5F1804F01D90020F4E70C2D01D949
:101000002846F0E70C20EEE70246481E1040101A72
:1010100070470246481E10444B1E9843704770B5F7
:1010200004460D46284600F023F9001D6168084477
:101030006060204600F02EF8204670BD70B5054671
:101040000C46284600F014F904F11001884201D33F
:10105000012070BD0020FCE70146A1F108007047A7
:101060007CB50446204600F003F905466A4601A90E
:1010700000F066FD2046DDE9002100F021FC7CBD8A
:101080000146087900F0010070470146087900F038
:101090000200704770B50446204600F063F805462C
:1010A0002C60284670BD7CB504460020019000905D
:1010B000002504B97CBD6A4601A9204600F05DFD0B
:1010C0000198182804DA694601A800F081F805465D
:1010D00025B12846DDE9002100F0F2FF2846E9E7C6
:1010E00070B504462046FFF7D5FF0546284600F0B8
:1010F000AAF8204600F0A2F870BD70B5044620465C
:1011000000F030F80546284600F0A2F8204600F02E
:10111000AAF870BD70B50446204600F023F80546D5
:101120002846FFF7ADFF38B1284600F041F82946C0
:101130002046FFF774FF0446204670BD70B5044694
:101140002046FFF7A2FF58B1204600F02EF80546D2
:10115000284600F02DF821462846FFF760FF044698
:10116000204670BD2DE9F0410446204600F080F88D
:10117000061F204600F0A0F80746314600F096FD15
:1011800005462846BDE8F08170B504460D460CB909
:10119000002070BD2946204600F092F82046FFF757
:1011A000ACFF204600F088F8F3E701460868704776
:1011B0007CB50446204600F05BF805466A4601A966
:1011C00000F0BEFC2046DDE9002100F079FF7CBD87
:1011D0002DE9F04705460E462C683768164850F84A
:1011E00024004FF0FF31B94000EA0109B9F1000FC6
:1011F00016D1114814380069611C4FF0FF328A4043
:1012000000EA0208B8F1000F02D10020BDE8F08723
:101210004046FFF721FC04462C60074850F8249014
:101220004846FFF719FC074637600348603000EB7B
:10123000C41050F82700E9E77C3A0020416841F0EB
:10124000010141607047416841F00201416070470F
:10125000416821F0020141607047027902F0030207
:101260000A4342607047416821F0010141607047C4
:101270000146486820F0030070472DE9F04105461B
:101280000C46284600F018F88046211F00F00EFD9D
:1012900006462846FFF7ECFF211D471A394630461F
:1012A000FFF7DBFF21462846FFF7D7FF3046FFF761
:1012B00017FF3046BDE8F081014601F10800704794
:1012C00070B504460D4629462046FFF7B7FE68B1C3
:1012D00029462046FFF7D1FF06462046FFF7DAFEF3
:1012E0003046FFF7B0FF3046FFF7BAFE70BD10B5CD
:1012F000FEF755FF10BD000010B507480CC80748A1
:1013000000680021FEF776FF05490860084600687E
:1013100000F00EF810BD000040000020000000208A
:101320004800002010B5FEF73FFF10BDFEF72AFF72
:1013300010B50446002000F0AEFD204600F091FDFF
:1013400010BDF0B50446059D581920F007004FF078
:101350008077061F30463760061F30463460061F10
:10136000304632604FF01237061F304637604FF07C
:101370000337061F304637604FF00237061F3046EE
:1013800037607F10061F30463760061F30463160D9
:101390004FF01137061F304637604FF01037061FE9
:1013A000304637604FF00937061F304637604FF040
:1013B0000837061F304637604FF00737061F3046A4
:1013C00037604FF00637061F304637604FF005375D
:1013D000061F304637604FF00437061F304637602F
:1013E000F0BD70B505460DB9002070BD681E2840DF
:1013F00018B12846FFF75AFB054605F1180000F022
:101400000BFF0446BCB104F11800606100F068FFF6
:10141000E06000F090FF2061E06808B1206920B929
:10142000204600F0FFFE0020DFE72560002060601E
:10143000A0602046D9E70020D7E72DE9F041044617
:101440000E46154698464146206900F07FFF0CB1D4
:1014500006B115B90020BDE8F081D4E90101401AB8
:10146000A84201D9284602E0D4E90101401A054604
:101470002168491EA06808402168081AA84201D9BD
:10148000284605E02168491EA06808402168081A1E
:1014900007462268521EA0681040626981183A46C9
:1014A0003046FEF7D8FEEA1BF0196169FEF7D3FE5D
:1014B000A0682844A0602846CDE72DE9F0470446FF
:1014C0000E46154699460CB106B115B90020BDE887
:1014D000F0874946E06800F00DFF0746781C08B920
:1014E0000020F4E7D4E90001401AA1680844A842AA
:1014F00001D9284604E0D4E90001401AA168084453
:101500000546D4E90010491E08402168081AA8427F
:1015100001D9284605E0D4E90010491E0840216899
:10152000081A8046D4E90021521E114062698818C9
:1015300042463146FEF78FFEA5EB080206EB080196
:101540006069FEF788FE606828446060E06800F02B
:10155000DFFE206900F008FF2846B8E72DE9FF4FBD
:101560008BB083468A4600200A908046BBF1000F6C
:1015700000D1824600BF0D9810F8014B0D90B8F1D4
:10158000000F0CD1252C03D14FF0010800275DE19D
:10159000234652460AA95846FFF77EFA56E1B8F1AB
:1015A000010F2AD12B2C1AD006DC202C14D0232C8E
:1015B00009D0272C18D115E02D2C0AD0302C05D0BD
:1015C000492C11D10FE047F0010715E047F0020761
:1015D00012E047F004070FE047F008070CE047F07F
:1015E000100709E000BF07E00D98401E0D904FF076
:1015F00000094FF0020800BF28E1B8F1020F24D122
:101600002A2C0BD10E9850F8049B0E90B9F1000FC4
:10161000BDDAC9F1000947F0040717E1302C0BDBF4
:10162000392C09DC302C07DD0D98401E0D900DA8DB
:10163000FFF7C9FB814609E10D98401E0D904FF060
:10164000FF3007904FF0030800E1B8F1030F28D1F5
:101650002E2C1ED10D980078302808DB0D980078CC
:10166000392804DC0DA8FFF7AEFB079009E00D98C0
:1016700000782A2805D10E98006807900E98001D62
:101680000E900798002801DA002000E007980790E4
:1016900002E00D98401E0D90002006904FF00408C7
:1016A000D4E0B8F1040F20D14C2C14D0682C02D017
:1016B0006C2C13D107E00698012801D1022000E02C
:1016C0000120069010E00698032801D1042000E0D4
:1016D0000320069008E00520069005E00D98401EC6
:1016E0000D904FF0050800BFB0E0B8F1050F94D1A0
:1016F000642C0BD0692C09D06F2C07D0622C05D03C
:10170000752C03D0782C01D0582C4DD10698032885
:1017100004D10E9820C8EE170E901AE0069800F03B
:10172000050048B10E98C01D20F007000E90D0E9CA
:10173000005608300E900CE0642C01D0692C04D1C6
:101740000E9820C8EE170E9003E00E9820C80026D1
:101750000E900A200890642C01D0692C02D147F029
:10176000200715E0782C01D0582C08D1782C01D115
:10177000402000E0002007431020089008E06F2C74
:1017800002D10820089003E0622C01D102200890C9
:10179000089852460AA9CDE90397CDE90056029070
:1017A0005846FFF7E3F94FE0702C13D10E9820C88C
:1017B00000260E901020089047F0410708985246E6
:1017C0000AA9CDE90397CDE9005602905846FFF7E4
:1017D000CDF939E0732C12D10E98006809900E985B
:1017E000001D0E90099808B926A00990CDE9009730
:1017F00052460AA95846099BFFF7A8FA24E0632C31
:101800000DD10E9810F8041BCCB20E902346524610
:101810000AA95846CDE90097FFF772F914E0252C84
:1018200006D1234652460AA95846FFF735F90BE080
:10183000252352460AA95846FFF72EF92346524659
:101840000AA95846FFF728F94FF00008002C7FF44A
:1018500092AE00BF00BF0A98401E0A900A985045F9
:1018600004D200200A990BF8010007E0BAF1000F3A
:1018700004D00021AAF101000BF800100A980FB063
:10188000BDE8F08F286E756C6C29000070B50446B9
:101890000D46E1B20548FFF7A4F800BF80210348D8
:1018A000FEF7D2FF0028F9D0204670BD0038014075
:1018B00010B50446204601F0C1F8C0F1200010BD6B
:1018C00030B5114C04EBC11454F8223083600E4C37
:1018D000743CC460D860743404EBC11444F8220032
:1018E000094C743C256901248C402543064C743C0A
:1018F0002561143454F82150012494402C43024DA6
:10190000603D45F8214030BDDC3A002000BF00BFFB
:10191000FEE700001FB5002008490968084A126860
:101920000923CDE90032CDE902100346054A06A19C
:10193000074801F0F9FB04B010BD0000EC340008CA
:10194000E83400080D19000869646C6500000000A7
:10195000B009002001460348814201D101207047AF
:101960000020FCE7B00900200348007808B10120FE
:1019700070470020FCE700002800002003480078A2
:1019800008B1012070470020FCE70000290000207A
:10199000014604480068814201D1012070470020BF
:1019A000FCE700003800002010B50024FFF7DCFF42
:1019B00000B110BDFFF7E2FF00B1FAE700BF01F090
:1019C00049F8044600BF00F0C1FA0B490860084618
:1019D0000068FFF7DDFF28B100BF204601F034F8B2
:1019E00000BFE6E7FFF783FC00BF204601F02CF8BC
:1019F00000BF00BFDDE700003C0000201FB5FEF780
:101A0000DBFE20A0FFF718F801F028F84FF4FA7178
:101A1000002001F0DBFA00F035FC21A0FFF70CF804
:101A200014204FF48061224A0323CDE90032CDE92E
:101A3000021000231F4A20A1214801F075FB044633
:101A40001CB121461FA0FEF7F7FF29A0FEF7F4FF07
:101A500014204FF480612A4A0423CDE90032CDE9F5
:101A600002100023274A28A1294801F05DFB044603
:101A70001CB1214627A0FEF7DFFF01F0D3F80020BC
:101A800004B010BD57656C636F6D6520746F205492
:101A9000656E63656E744F532074696E790D0A002C
:101AA000637265617465207461736B310D0A0000A7
:101AB00058010020052500087461736B3100000097
:101AC0008800002054656E63656E744F5320437226
:101AD00065617465207461736B31206661696C2186
:101AE00020636F6465203A202564200D0A00000001
:101AF000637265617465207461736B320D0A000056
:101B000058050020BD2500087461736B3200000089
:101B1000F000002054656E63656E744F532043726D
:101B200065617465207461736B32206661696C2134
:101B300020636F6465203A202564200D0A000000B0
:101B40002DE9F04104460F469046802C06D2002530
:101B50002046E11704EB91718E1009E02046FEF754
:101B600085FF0546681F44FA00F080F02006AD1F8F
:101B70003D60C8F80060BDE8F0812DE9F041044601
:101B80000E461746802C08D32046FEF76FFF401FF5
:101B9000012101FA00F0451E2C443A463146204608
:101BA000FFF7CEFFBDE8F0810E4A13469A60DA6077
:101BB00000221A61002011E000230A4A143242F880
:101BC0002030002107E0074B03F1740202EBC01242
:101BD00042F82130491C2029F5DB401C1828EBDB9A
:101BE00070470000683A002070B504460D46FFF7C4
:101BF000DBFF2946204601F09DF870BD10B500249A
:101C00000BE0074901EB041001F060F8044901EB17
:101C10000410044901F022F8641C0A2CF1D310BD11
:101C2000DC4600207000002010B502460B46012063
:101C300010731361587C107502F1180003F138011C
:101C40000C68606004604160086000BF00BF10BDA8
:101C500070B50446256900BFD4E9061048600160EC
:101C600000BF00BF0020206195F840000A2808D07E
:101C700095F84010284601F08FFB0A2085F84000B7
:101C800009E0687C217D884205D0217D284601F04D
:101C900083FB0A20207570BD10B504462046FFF76F
:101CA000D7FF0421204600F0BFF810BD02465018AF
:101CB000704770B50446201D00F0E8FF08B1002011
:101CC00001E06068303805460DB1687C70BD0A20BF
:101CD000FCE710B50446201D00F0D8FF10BD70B51C
:101CE00002460B461D1D286807E0A0F13006517C16
:101CF000747CA14200DA02E00068A842F5D100BF7E
:101D000002F130014468416008604C60216000BF0E
:101D100000BF536400BF117C41F00201117400BF89
:101D200070BD10B5044604F1300000F0A9FF204654
:101D3000616CFFF7D4FF10BD10B5044604F130000C
:101D400000F09EFF0020606400BF207C20F00200B5
:101D5000207400BF10BD70B504460D462580201DBF
:101D600000F0B7FF70BD0146012901D10020704786
:101D7000022902D140F24360F9E7032902D140F27F
:101D80004460F4E7042902D140F24560EFE740F2F5
:101D90004260ECE72DE9F04106460F4614461D4629
:101DA000304600F05BF939463046FFF798FF4FF0B8
:101DB000FF3184EA01006940084304D022462B46E3
:101DC000304600F057FCBDE8F08170B504460D4682
:101DD00000BF207C00F0020020B184F8485020466B
:101DE000FFF7AAFF00BF207C00F0010010B12046E1
:101DF00000F064FC00BF207C00F0040000B170BD66
:101E0000204600F051F800BFF9E770B505460E46D0
:101E1000144624B93146284600F019F803E031464B
:101E2000284600F001F870BD2DE9F04105460F4647
:101E30006C68266806E0A4F130003946FFF7C5FF5C
:101E400034462668281D8442F5D1BDE8F08170B57E
:101E500004460D466168A1F130002946FFF7B5FF41
:101E600070BD70B504462546B5F1807F00D311E002
:101E700025F07F40401E4FF0E02148610F214FF0D8
:101E8000FF30FEF73BFB00204FF0E0218861072088
:101E9000086100BF70BD10B5044621464FF0FF3009
:101EA000FEF72CFB10BD000010B50446607C06490F
:101EB0000968497C884203D1204600F021F802E0FD
:101EC000204600F003F810BD380000202DE9F04155
:101ED00005466E7C094800EBC604204600F0DEFE95
:101EE00010B1304600F09CF805F130072146384625
:101EF0002268FEF784FF00BFBDE8F081580900208A
:101F000070B50446657C084800EBC506304600F015
:101F1000C5FE10B1284600F083F8314604F13000C8
:101F200000F0A5FE70BD00005809002070B5044601
:101F3000054800EBC405284600F0B0FE08B10020BB
:101F400070BD28683038FBE758090020044890F835
:101F50005400034A02EBC0010868303870470000A3
:101F6000580900200A210E4A82F854100021084620
:101F700008E00B4A02EBC0010960496000BF411C48
:101F8000C9B208460A28F4D3002006E0002204491A
:101F9000503141F82020411CC8B20028F6D07047CB
:101FA000580900200146064800EBC1021068A0F164
:101FB0003003186B904201D1012070470020FCE7EC
:101FC0005809002070B506460A4800EBC6052846A9
:101FD00000F064FE60B92C6800BFD4E90010FEF781
:101FE00013FF00BF2946204600F041FE00BF00BF9E
:101FF00070BD00005809002070B50025074C03E0B3
:1020000005F12000C5B2241D20680028F8D0206802
:1020100000F014FD2844C5B2284670BDA809002070
:1020200000BF42110C4951F8221000F01F02C2F10A
:102030001F0301229A4011434311074A42F823101B
:1020400000BFA2F1500191F85410814203DDA2F1CA
:10205000500181F854007047A809002070B505466A
:102060006C7C164800EBC40600BFD5E90C10FEF7E7
:10207000CBFE00BF304600F011FE98B100BF6111E9
:102080000E48503050F8210004F01F01C1F11F022A
:1020900001219140884362110849503141F82200E2
:1020A00000BF00BF054890F85400A04204D1FFF7DC
:1020B000A3FF024981F8540070BD000058090020B8
:1020C00070B5C4688368DC60A360134D05EBC1156F
:1020D00055F8225085421ED10F4D05EBC11545F82C
:1020E00022300D4D743DAB4215D1143555F82160A9
:1020F00001259540AE43084D603D45F8216055F8F7
:10210000215045B9044D743D2D6901268E40B543DB
:10211000014E743E356170BDDC3A002070B5054655
:1021200000262948007800B170BD00BF00F092FC85
:10213000064600BF2846FFF7F9FE04461CB12046BC
:10214000FFF708FC28B100BF304600F07DFC00BF5F
:10215000EAE72846FFF726FF28B100BF304600F027
:1021600073FC00BFE0E7FFF709FC28B100BF304671
:1021700000F06AFC00BFD7E7206D10B1206D401E53
:102180002065206D28B100BF304600F05DFC00BF27
:10219000CAE70E490968487CFFF714FF2846FFF795
:1021A000C5FE0446E06C18B909480068206501E0E6
:1021B000E06C206500BF304600F046FC00BFFFF732
:1021C000F3FB00BFB0E700005800002038000020FB
:1021D000540000200FB438B505A8009040F2FF115C
:1021E0000B48009B049AFFF7B9F90446B4F5007F49
:1021F00001D940F2FF1464232246054905480068CE
:10220000FFF75BF90020009038BC5DF814FB00007C
:102210007C4900207800002010B50446204600F0DC
:102220005EFD10BD10B50446204600F06BFD10BDEC
:1022300001480068406870473800002010B500F081
:102240005FFF10BD10B500234FF400720A490B4820
:102250000068FFF7F2F80A4908600846006800289D
:1022600009DD08460168044800F05DF8044801688B
:102270000148FEF709F810BD7C47002078000020D7
:102280007C0000201CB54FF48050FFF7AAF80E49DF
:1022900008600846006810B94FF0FF301CBD1420DC
:1022A00008210B020022CDE90010084908A000F027
:1022B0006AF80A4908600846006810B94FF0FF3014
:1022C000ECE70020EAE70000780000207F23000808
:1022D00073616C6F665F7461736B00008000002037
:1022E00010B52020FFF798FF0446204600F05EFD61
:1022F000204610BD70B505460C46224600232846F0
:1023000000F072FD10B14FF0FF3070BD0020FCE70F
:1023100010B50446204600F011FE10B14FF0FF301A
:1023200010BD0020FCE770B504460D462946204646
:1023300000F090F870BD10B51020FFF76DFF044657
:102340000021204600F05EFE204610BD70B5054617
:102350000C4622460023284600F06AFE10B14FF0DA
:10236000FF3070BD0020FCE710B50446204600F0A9
:10237000BFFE10B14FF0FF3010BD0020FCE701E0C0
:10238000FFF760FFFCE72DE9F04F85B005460E46EC
:1023900017461C46DDE90E9A6820FFF73DFF0490C2
:1023A0002046FFF739FF804609F0FF003B463246E2
:1023B0002946CDE9024ACDE90008049800F0B4FEB0
:1023C0008346BBF1000F05D0049800F09BFC40460B
:1023D00000F098FC049805B0BDE8F08F70B5044695
:1023E0000D46002600BF0CB9012000E0002010B10E
:1023F00040F24C4070BD00BF00BF00F02BFB064612
:1024000000BFA0894FF6FF71884207D100BF304658
:1024100000F01AFB00BF4FF4E160EBE72046FFF746
:1024200058FC48B1A089401CA08100BF304600F094
:102430000BFB00BF0020DDE72A4601212046FFF705
:10244000E4FC00BF304600F0FFFA00BFFFF7ACFA33
:102450000020CFE770B504460D4621460248FEF73E
:10246000D5FA284670BD00000038014010B50020A4
:1024700000F034FF10BD2DE9F04105464FF00A0889
:10248000AE6B09E0A6F118073846FFF712FC0446C8
:10249000444500DAA046366805F138008642F1D19D
:1024A0004046BDE8F08170B50546AC6B266805E096
:1024B000A4F11800FFF7F0FB3446266805F1380058
:1024C0008442F5D170BD10B5044604F1280000F037
:1024D00003FC04F1300000F0FFFB04F1380000F0D1
:1024E000FBFB0A2084F84000002084F84800606468
:1024F0006065A06510BD0146087C08B901207047E1
:102500000020FCE730E000BF18A0FFF763FEFFF7F4
:102510008FFE0446FFF792FE05462246294617A085
:10252000FFF758FE1BA0FFF755FE1EA0FFF752FE57
:1025300000BF00BF1DA0FFF74DFEFFF779FE044668
:10254000FFF77CFE0546224629460CA0FFF742FE17
:1025500010A0FFF73FFE13A0FFF73CFE00BF4FF4B3
:102560007A70002100F074FECDE700001B0A5B3397
:10257000326D5B495D203E3E200000005B54533AC3
:1025800020256C645D205B5441523A2025735D2008
:10259000000000005461736B312052756E6E696EDD
:1025A000670D0A001B5B306D000000001B0A5B33E7
:1025B000316D5B455D203E3E2000000030E000BFF5
:1025C00018A0FFF707FEFFF733FE0446FFF736FEBD
:1025D00005462246294617A0FFF7FCFD1BA0FFF782
:1025E000F9FD1EA0FFF7F6FD00BF00BF1DA0FFF71D
:1025F000F1FDFFF71DFE0446FFF720FE05462246CB
:1026000029460CA0FFF7E6FD10A0FFF7E3FD13A09D
:10261000FFF7E0FD00BF4FF47A70002100F018FED4
:10262000CDE700001B0A5B33336D5B575D203E3EF8
:10263000200000005B54533A20256C645D205B54FD
:1026400041523A2025735D20000000005461736BF5
:10265000322052756E6E696E670D0A001B5B306D1D
:10266000000000001B0A5B306D5B445D203E3E2095
:102670000000000070B5064614461D46002184EA9D
:1026800001006940084301D1642070BD4FF0FF3163
:1026900084EA01006940084301D16520F5E7C6E9F5
:1026A000084522462B46304600F014F800BF307C27
:1026B00040F00100307400BF0020E6E710B504468A
:1026C000204600F059F800BF207C20F00100207463
:1026D00000BF10BD2DE9FF5F81464FF0000BDA46C9
:1026E00000210F46884600BF00F0B4F9834600BFC2
:1026F000DDE90201C9E908011E4804680FE0A4F100
:10270000280ADAE90810CD1940EB0806D9E90810C3
:10271000491BB04100D205E02F46B0462468154859
:102720008442ECD100BFD9E90810C91B60EB080056
:10273000C9E908100F4884420BD0BAF1000F08D045
:10274000DAE90830D9E90812591A60EB0200CAE93F
:10275000081009F128006168606004604160086049
:1027600000BF00BF00BF584600F06EF900BFBDE8D3
:10277000FF9F00004C00002070B50446002600BFFB
:1027800000F068F9064600BF04F1280000F096FA50
:1027900008B1002001E0A06A28380546F5B11649C5
:1027A000A06A88421AD06FF001014810D4E90823CA
:1027B0008A1A60EB0300D5E90813511A984108D32F
:1027C000D5E90820D4E90831D2184841C5E90820E4
:1027D00004E06FF001014810C5E9081000BFD4E91A
:1027E0000A104860016000BF00BF00BF304600F023
:1027F0002BF900BF70BD00004C0000202DE9F04710
:1028000004460D464FF0000A00BF00F023F982464F
:1028100000BF2748D0E9001009196841244AC2E9DD
:102820000010244800F04AFA30B100BF504600F0D2
:102830000BF900BFBDE8F0871E480068A0F128062C
:10284000D6E90801201A75EB010003D3002131629B
:1028500071620CE0D6E90810091B60EB0500C6E9BF
:10286000081000BF504600F0EFF800BFE2E7114843
:102870000768D7F8009010E0A7F128080023D8E9EE
:10288000081059405840014300D009E00221404659
:10289000FFF79BFA4F46D7F8009006488742EBD1E6
:1028A00000BF00BF504600F0CFF800BF00BFC1E737
:1028B000300000204C000020002070472DE9F0413E
:1028C00005460026002700BF00F0C4F8064600BFFA
:1028D0001B49D5E90420D1E90031D2184841C5E9A6
:1028E0000420184884680AE0A4F10807D5E90430F8
:1028F000D7E90412591A904100D204E02468114823
:1029000008308442F0D100BF05F1080061686060C2
:1029100004604160086000BF00BF0A48816805F19B
:102920000800814204D1074AD5E90410C2E9001029
:1029300000BF304600F088F800BFBDE8F08100001D
:1029400030000020600000202DE9F04104460027FF
:1029500000BF00F07FF8074600BF17488068A0F16D
:10296000080500BFD4E902104860016000BF00BF45
:10297000A54219D104F108000168814201D1012169
:1029800000E0002109B1002001E0A06808380646F7
:102990002EB94FF0FF31084A1160516004E0064A39
:1029A000D6E90410C2E9001000BF384600F04CF828
:1029B00000BFBDE8F08100006000002070B51D4838
:1029C000D0E900201C49D1E90031D21A884100D257
:1029D00070BD00F0C9F8174885682E6820E0A5F1A1
:1029E00008041548D4E90412D0E90030591A90417E
:1029F00000D219E02046FFF7A7FF208D022807D15B
:102A0000D4E90801C4E904012046FFF757FF02E0BA
:102A1000032084F82A00D4E90010884735462E6840
:102A2000044808308542DAD100BF00F0CBF800BF7F
:102A3000CEE70000600000203000002010B5044602
:102A40002046FDF79CFB10BD10B504462046FDF75F
:102A500093FB10BD10B5FDF78BFB10BD10B5FEF755
:102A60004BFCFFF77FFA4FF440510948FFF7BCF8E1
:102A7000FFF7C4F8FEF74EFF04460CB1204610BD28
:102A8000FFF71AFF04460CB12046F8E70020F6E7EE
:102A9000680A002000B500F05DF800B900BD0848E4
:102AA0000078FA2801DB012000E0002000B1F5E702
:102AB00003480078401C0249087000BFEEE70000A0
:102AC0002800002010B5002400F044F800B910BD23
:102AD00000BFFFF7BFFF044600BFFEF745FF28B960
:102AE00000BF2046FFF7B0FF00BFF0E717480078AF
:102AF000401E16490870FEF737FF28B100BF204678
:102B0000FFF7A2FF00BFE2E7FEF738FF28B100BFE2
:102B10002046FFF799FF00BFD9E7FFF717FA0C49E6
:102B2000086008460068FEF733FF28B100BF204662
:102B3000FFF78AFF00BFCAE7FEF7F4FB00BF20469D
:102B4000FFF782FF00BF00BFC1E7000028000020A0
:102B50003C00002003480078012800D17047002085
:102B6000FCE700002A00002010B5002400BFFEF79B
:102B7000FBFE08B1012000E0002010B14FF4C87046
:102B800010BD00BFFFF7E6FF10B94FF4FA70F7E78A
:102B90000B480078FA2802DB4FF41670F0E700BF0C
:102BA000FFF758FF044600BF05480078401C044961
:102BB000087000BF2046FFF747FF00BF0020DFE797
:102BC0002900002010B5002400BFFEF7CDFE08B19B
:102BD000012000E0002010B14FF4C87010BD00BF0C
:102BE000FFF7B8FF10B94FF4FA70F7E7FEF7C6FE2B
:102BF00010B940F2A560F1E700BFFFF72BFF0446D4
:102C000000BF07480078401E0549087000BF2046F5
:102C1000FFF71AFF00BFFEF7C7FE0020DEE7000047
:102C20002900002010B5FFF795FF10B140F2F51014
:102C300010BDFFF78BF90649086008460068054992
:102C40000860012004490870FEF770FB0020EFE7E0
:102C50003C000020380000202A00002070B5054606
:102C60000C46214628462268FEF7C4F870BD70B5B0
:102C700005460C46224628466168FEF7C0F870BD3E
:102C8000D0E900124A60116000BF70470146086831
:102C9000884201D1012070470020FCE70146086806
:102CA000884201D1012070470020FCE701460868F6
:102CB000884201D1012070470020FCE701460868E6
:102CC000884201D1012070470020FCE7006040608D
:102CD000704700604060704700604060704770B5AA
:102CE000054604212846FEF778F906463046FEF7E9
:102CF000DAF904460CB9002070BD31462046FEF7D3
:102D000043FAF9E770B5044604B970BD2046FEF7F2
:102D1000A3F905462846FEF7E3F92846FEF70EFA22
:102D200005462846FEF7F6F905462846FEF798F9C7
:102D300000BFEAE72DE9F04105460E46A6F108007E
:102D40000421FEF761F9044605F0030018B14FF4C1
:102D50004870BDE8F0810C2C02D3B4F1804F02D949
:102D600040F22130F5E76FF003012846FEF79EFFA1
:102D7000074621463846FEF770FA3846FEF75EFAF7
:102D80003846FEF765FA3846FEF76AF93846FEF728
:102D900081F9804600214046FEF75FFA4046FEF783
:102DA00062FA4046FEF74FFA0020D2E710B504461B
:102DB00000BF0CB9012000E0002010B140F24C40EF
:102DC00010BD00BF42F6EE312046FEF7C4FF0020E2
:102DD000207320610A20207504F118000060406013
:102DE00000BF0020ECE700002DE9F05F0446164626
:102DF0001F464FF0000B00BF0CB9012000E000207F
:102E000018B140F24C40BDE8F09F00BF00BFFEF794
:102E1000ABFD08B1012000E0002010B14FF4C870F4
:102E2000F1E700BF00BFFFF715FE834600BF207B20
:102E300058B9414801682046FEF7F6FE00BF5846E3
:102E4000FFF702FE00BF0020DDE72069FEF7A0FDCE
:102E5000A8B1207BFF2807D100BF5846FFF7F4FD3B
:102E600000BF40F2EA30CEE7207B401C207300BF59
:102E70005846FFF7E9FD00BF40F2E930C3E7002103
:102E800086EA01007940084307D100BF5846FFF7A2
:102E9000DBFD00BF4FF4C860B5E7FEF76FFD38B14A
:102EA00000BF5846FFF7D0FD00BF40F24160AAE7DF
:102EB0002069407C20490968497C884205DD1E4A1A
:102EC0001268517C206900F067FA32463B46214681
:102ED00019480068FEF75EFF00BF5846FFF7B4FDD3
:102EE00000BFFEF761FD1449096891F84800FEF73C
:102EF0003AFF8046B8F1000F1CD100BFFFF7AAFDD2
:102F0000834600BFA1460C48056829464846FEF79F
:102F10008BFE4846FEF7CDFE8246687C504503DDB9
:102F20005146284600F038FA00BF00BF5846FFF768
:102F30008BFD00BF404666E73800002070B50446B0
:102F4000002500BF0CB9012000E0002010B140F2C4
:102F50004C4070BD00BF00BFFFF77CFD054600BFC1
:102F60002069FEF715FD38B900BF2846FFF76CFD54
:102F700000BF4FF47A70ECE7207B401E2073207B6B
:102F8000002807DD00BF2846FFF75EFD00BF40F2C6
:102F9000E930DEE72046FEF75BFE2046FEF799FEAD
:102FA00030B100BF2846FFF74FFD00BF0020D0E73B
:102FB00001212046FEF74BFF00BF2846FFF744FDE6
:102FC00000BFFEF7F1FC0020C3E7000070B5054626
:102FD0000C46002600BFFFF73DFD064600BF074830
:102FE000057014B10648046002E0642004490860DA
:102FF00000BF3046FFF728FD00BF70BD580000201D
:103000005400002070B504460D4600BF0CB90120E5
:1030100000E0002010B140F24C4070BD00BF41F60E
:10302000EE312046FEF797FEA5810020F5E700006F
:103030002DE9F041044615461E46002700BF0CB995
:10304000012000E0002018B140F24C40BDE8F081C2
:1030500000BF00BFFEF788FC08B1012000E000209F
:1030600010B14FF4C870F1E700BF00BFFFF7F2FCEA
:10307000074600BFA089002809DDA089401EA08165
:1030800000BF3846FFF7E0FC00BF0020DEE700216C
:1030900085EA01007140084307D100BF3846FFF7B9
:1030A000D3FC00BF4FF4C860D0E7FEF767FC38B12F
:1030B00000BF3846FFF7C8FC00BF40F24160C5E7DB
:1030C0002A463346214609480068FEF763FE00BFE2
:1030D0003846FFF7B9FC00BFFEF766FC03490968F4
:1030E00091F84800FEF73FFEB0E7000038000020EE
:1030F00010B5044600212046FFF770F910BD00000E
:1031000070B5002600BFFFF7A5FC064600BF0548C6
:1031100030C800BF3046FFF797FC00BF2046294665
:1031200070BD0000300000202DE9FC5F04468B4696
:1031300015461E460CAF97E880070020019000BF9F
:10314000FEF712FC08B1012000E0002018B14FF496
:10315000C870BDE8FC9F00BF00BF0CB9012000E0B3
:10316000002010B140F24C40F3E700BF00BF0DB9A2
:10317000012000E0002010B140F24C40E9E700BF20
:1031800000BFB8F1000F01D1012000E0002010B114
:1031900040F24C40DDE700BFB9F1400F01D2012001
:1031A00000E0002010B140F27370D2E7092F05D182
:1031B0002046FEF7CFFB08B9012000E0002010B147
:1031C00040F26E70C5E7092F01DD012000E000200C
:1031D00010B140F26E70BCE72046FFF774F9434629
:1031E000194A31462846CDF80090FEF7AAF820602B
:1031F000A560E660C4F804B06774C4F81480C4F82D
:103200001890C4F84CA0BAF1000F03D10F48006821
:10321000206501E0C4F850A000BFFFF71BFC01903F
:1032200000BF00BF0020207400BF2046FEF768FEEC
:1032300000BF0198FFF708FC00BFFFF78BFC08B147
:10324000FEF7B2FB002084E76D2400085400002044
:1032500070B504460D46002600BFFEF785FB08B199
:10326000012000E0002010B14FF4C87070BD00BF15
:10327000FEF784FB10B140F2A460F7E7002184EA76
:1032800001006940084301D1012000E0002018B18D
:1032900000F0F4F80020E9E700BFFFF7DBFB06468B
:1032A00000BF22462B460C480068FFF7E3F930B117
:1032B00000BF3046FFF7C8FB00BF6520D6E70648D1
:1032C0000068FEF7CBFE00BF3046FFF7BDFB00BF36
:1032D000FEF76AFB0020C9E73800002070B50446FD
:1032E000002500BFFEF740FB08B1012000E00020F0
:1032F00010B14FF4C87070BD00BF0CB9012000E0E0
:10330000002008B1234804682046FEF723FB10B1D3
:1033100040F26C70EFE72046FEF73AFB28B1FEF76B
:103320002DFB10B140F2A460E5E700BFFFF792FB70
:10333000054600BF04F13800FFF7B8FC10B920467D
:10334000FFF7B1F82046FFF7D6F810B12046FEF798
:1033500085FE00BF207C00F0010010B12046FFF781
:10336000ADF900BF207C00F0020010B12046FEF74E
:10337000E3FC2046FFF7A7F800BF0820207400BF39
:1033800000BF2846FFF760FB00BFFEF70DFB0020E3
:10339000B1E70000380000202DE9F04104460D4659
:1033A000002700BF0CB9012000E0002018B140F256
:1033B0004C40BDE8F08100BF00BFFEF7D5FA08B170
:1033C000012000E0002010B14FF4C870F1E700BF09
:1033D000092D01DB012000E0002010B140F26E70E9
:1033E000E7E700BFFFF736FB074600BF607CA84257
:1033F00008D100BF3846FFF727FB00BFFEF7D4FA1D
:103400000020D6E704F13800FFF750FC40B9204611
:10341000FFF731F80646B54202DD84F840503546E4
:1034200000BF207C00F0020020B165742046FEF74A
:1034300078FC19E000BF207C00F0010008B1657441
:1034400012E02046FFF757F870B12046FEF706FE5F
:1034500065742046FEF79CFA18B12046FEF736FD4B
:1034600002E02046FEF74CFD00BF3846FFF7ECFABD
:1034700000BFFEF799FA00209BE7000010B500247A
:10348000FEF772FA00B110BD00BFFFF7E3FA044681
:1034900000BF08480068FEF7E1FD06480068FEF737
:1034A0002FFD00BF2046FFF7CFFA00BFFEF77CFAE2
:1034B00000BFE8E73800002010B5FFF74BFB08B964
:1034C000012000E0002000B110BD01200021FFF725
:1034D00095F9FFF773FA03490968487CFEF71EFE69
:1034E00000BFF1E738000020180A0020500000005B
:1034F0001035000800000020880000007A0A00084B
:103500009835000888000020F84E00008A0A00085C
:1035100000A24A04000000000000000001020304B1
:103520000607080900000000010203040102030469
:103530000607080902040608000000000000000059
:10354000000000000000000000000000000000007B
:10355000E803000000000000000000004C00002014
:103560004C0000206400000001000000000000008A
:10357000FFFFFFFFFFFFFFFF680000206800002043
:10358000700000207000002000000000000000001B
:08359000000000000000000033
:0400000508000131BD
:00000001FF
